{
	"compilerInput": "{\"language\":\"Solidity\",\"sources\":{\"MilkTrace.sol\":{\"content\":\"// SPDX-License-Identifier: MIT\\npragma solidity ^0.8.24;\\n\\nimport \\\"@openzeppelin/contracts/access/AccessControl.sol\\\";\\n\\ncontract MilkTrace is AccessControl {\\n    bytes32 public constant MANUFACTURER_ROLE = keccak256(\\\"MANUFACTURER_ROLE\\\");\\n    bytes32 public constant COLLECTOR_ROLE    = keccak256(\\\"COLLECTOR_ROLE\\\");\\n    bytes32 public constant CUSTOMS_ROLE      = keccak256(\\\"CUSTOMS_ROLE\\\");\\n    bytes32 public constant RETAILER_ROLE     = keccak256(\\\"RETAILER_ROLE\\\");\\n\\n    enum Status { Init, Produced, Collected, Cleared, Retail }\\n\\n    struct Product {\\n        string name;\\n        string batch;\\n        uint64 mfgDate;\\n        Status status;\\n        bool exists;\\n    }\\n\\n    mapping(bytes32 => Product) private products;\\n    mapping(bytes32 => Status[]) private statusHistory;\\n    mapping(bytes32 => uint256[]) private timeHistory;\\n\\n    event ProductRegistered(bytes32 indexed productId, string name, string batch, uint64 mfgDate);\\n    event TraceUpdated(bytes32 indexed productId, Status newStatus, uint256 timestamp);\\n\\n    constructor(address admin) {\\n        _grantRole(DEFAULT_ADMIN_ROLE, admin);\\n    }\\n\\n    function registerProduct(bytes32 productId, string calldata name, string calldata batch, uint64 mfgDate)\\n        external\\n        onlyRole(MANUFACTURER_ROLE)\\n    {\\n        require(!products[productId].exists, \\\"Already exists\\\");\\n        products[productId] = Product({name: name, batch: batch, mfgDate: mfgDate, status: Status.Produced, exists: true});\\n        statusHistory[productId].push(Status.Produced);\\n        timeHistory[productId].push(block.timestamp);\\n        emit ProductRegistered(productId, name, batch, mfgDate);\\n        emit TraceUpdated(productId, Status.Produced, block.timestamp);\\n    }\\n\\n    function setCollected(bytes32 productId) external onlyRole(COLLECTOR_ROLE) {\\n        _advance(productId, Status.Collected, Status.Produced);\\n    }\\n\\n    function setCleared(bytes32 productId) external onlyRole(CUSTOMS_ROLE) {\\n        _advance(productId, Status.Cleared, Status.Collected);\\n    }\\n\\n    function setRetail(bytes32 productId) external onlyRole(RETAILER_ROLE) {\\n        _advance(productId, Status.Retail, Status.Cleared);\\n    }\\n\\n    function _advance(bytes32 productId, Status target, Status requiredPrev) internal {\\n        require(products[productId].exists, \\\"No product\\\");\\n        require(products[productId].status == requiredPrev, \\\"Wrong order\\\");\\n        products[productId].status = target;\\n        statusHistory[productId].push(target);\\n        timeHistory[productId].push(block.timestamp);\\n        emit TraceUpdated(productId, target, block.timestamp);\\n    }\\n\\n    function getProduct(bytes32 productId) external view returns (Product memory) {\\n        require(products[productId].exists, \\\"No product\\\");\\n        return products[productId];\\n    }\\n\\n    function getHistory(bytes32 productId) external view returns (Status[] memory, uint256[] memory) {\\n        require(products[productId].exists, \\\"No product\\\");\\n        return (statusHistory[productId], timeHistory[productId]);\\n    }\\n\\n    function grantMany(bytes32 role, address[] calldata addrs) external onlyRole(getRoleAdmin(role)) {\\n        for (uint i = 0; i < addrs.length; i++) _grantRole(role, addrs[i]);\\n    }\\n}\\n\"},\"@openzeppelin/contracts/access/AccessControl.sol\":{\"content\":\"// SPDX-License-Identifier: MIT\\n// OpenZeppelin Contracts (last updated v5.4.0) (access/AccessControl.sol)\\n\\npragma solidity ^0.8.20;\\n\\nimport {IAccessControl} from \\\"./IAccessControl.sol\\\";\\nimport {Context} from \\\"../utils/Context.sol\\\";\\nimport {IERC165, ERC165} from \\\"../utils/introspection/ERC165.sol\\\";\\n\\n/**\\n * @dev Contract module that allows children to implement role-based access\\n * control mechanisms. This is a lightweight version that doesn't allow enumerating role\\n * members except through off-chain means by accessing the contract event logs. Some\\n * applications may benefit from on-chain enumerability, for those cases see\\n * {AccessControlEnumerable}.\\n *\\n * Roles are referred to by their `bytes32` identifier. These should be exposed\\n * in the external API and be unique. The best way to achieve this is by\\n * using `public constant` hash digests:\\n *\\n * ```solidity\\n * bytes32 public constant MY_ROLE = keccak256(\\\"MY_ROLE\\\");\\n * ```\\n *\\n * Roles can be used to represent a set of permissions. To restrict access to a\\n * function call, use {hasRole}:\\n *\\n * ```solidity\\n * function foo() public {\\n *     require(hasRole(MY_ROLE, msg.sender));\\n *     ...\\n * }\\n * ```\\n *\\n * Roles can be granted and revoked dynamically via the {grantRole} and\\n * {revokeRole} functions. Each role has an associated admin role, and only\\n * accounts that have a role's admin role can call {grantRole} and {revokeRole}.\\n *\\n * By default, the admin role for all roles is `DEFAULT_ADMIN_ROLE`, which means\\n * that only accounts with this role will be able to grant or revoke other\\n * roles. More complex role relationships can be created by using\\n * {_setRoleAdmin}.\\n *\\n * WARNING: The `DEFAULT_ADMIN_ROLE` is also its own admin: it has permission to\\n * grant and revoke this role. Extra precautions should be taken to secure\\n * accounts that have been granted it. We recommend using {AccessControlDefaultAdminRules}\\n * to enforce additional security measures for this role.\\n */\\nabstract contract AccessControl is Context, IAccessControl, ERC165 {\\n    struct RoleData {\\n        mapping(address account => bool) hasRole;\\n        bytes32 adminRole;\\n    }\\n\\n    mapping(bytes32 role => RoleData) private _roles;\\n\\n    bytes32 public constant DEFAULT_ADMIN_ROLE = 0x00;\\n\\n    /**\\n     * @dev Modifier that checks that an account has a specific role. Reverts\\n     * with an {AccessControlUnauthorizedAccount} error including the required role.\\n     */\\n    modifier onlyRole(bytes32 role) {\\n        _checkRole(role);\\n        _;\\n    }\\n\\n    /// @inheritdoc IERC165\\n    function supportsInterface(bytes4 interfaceId) public view virtual override returns (bool) {\\n        return interfaceId == type(IAccessControl).interfaceId || super.supportsInterface(interfaceId);\\n    }\\n\\n    /**\\n     * @dev Returns `true` if `account` has been granted `role`.\\n     */\\n    function hasRole(bytes32 role, address account) public view virtual returns (bool) {\\n        return _roles[role].hasRole[account];\\n    }\\n\\n    /**\\n     * @dev Reverts with an {AccessControlUnauthorizedAccount} error if `_msgSender()`\\n     * is missing `role`. Overriding this function changes the behavior of the {onlyRole} modifier.\\n     */\\n    function _checkRole(bytes32 role) internal view virtual {\\n        _checkRole(role, _msgSender());\\n    }\\n\\n    /**\\n     * @dev Reverts with an {AccessControlUnauthorizedAccount} error if `account`\\n     * is missing `role`.\\n     */\\n    function _checkRole(bytes32 role, address account) internal view virtual {\\n        if (!hasRole(role, account)) {\\n            revert AccessControlUnauthorizedAccount(account, role);\\n        }\\n    }\\n\\n    /**\\n     * @dev Returns the admin role that controls `role`. See {grantRole} and\\n     * {revokeRole}.\\n     *\\n     * To change a role's admin, use {_setRoleAdmin}.\\n     */\\n    function getRoleAdmin(bytes32 role) public view virtual returns (bytes32) {\\n        return _roles[role].adminRole;\\n    }\\n\\n    /**\\n     * @dev Grants `role` to `account`.\\n     *\\n     * If `account` had not been already granted `role`, emits a {RoleGranted}\\n     * event.\\n     *\\n     * Requirements:\\n     *\\n     * - the caller must have ``role``'s admin role.\\n     *\\n     * May emit a {RoleGranted} event.\\n     */\\n    function grantRole(bytes32 role, address account) public virtual onlyRole(getRoleAdmin(role)) {\\n        _grantRole(role, account);\\n    }\\n\\n    /**\\n     * @dev Revokes `role` from `account`.\\n     *\\n     * If `account` had been granted `role`, emits a {RoleRevoked} event.\\n     *\\n     * Requirements:\\n     *\\n     * - the caller must have ``role``'s admin role.\\n     *\\n     * May emit a {RoleRevoked} event.\\n     */\\n    function revokeRole(bytes32 role, address account) public virtual onlyRole(getRoleAdmin(role)) {\\n        _revokeRole(role, account);\\n    }\\n\\n    /**\\n     * @dev Revokes `role` from the calling account.\\n     *\\n     * Roles are often managed via {grantRole} and {revokeRole}: this function's\\n     * purpose is to provide a mechanism for accounts to lose their privileges\\n     * if they are compromised (such as when a trusted device is misplaced).\\n     *\\n     * If the calling account had been revoked `role`, emits a {RoleRevoked}\\n     * event.\\n     *\\n     * Requirements:\\n     *\\n     * - the caller must be `callerConfirmation`.\\n     *\\n     * May emit a {RoleRevoked} event.\\n     */\\n    function renounceRole(bytes32 role, address callerConfirmation) public virtual {\\n        if (callerConfirmation != _msgSender()) {\\n            revert AccessControlBadConfirmation();\\n        }\\n\\n        _revokeRole(role, callerConfirmation);\\n    }\\n\\n    /**\\n     * @dev Sets `adminRole` as ``role``'s admin role.\\n     *\\n     * Emits a {RoleAdminChanged} event.\\n     */\\n    function _setRoleAdmin(bytes32 role, bytes32 adminRole) internal virtual {\\n        bytes32 previousAdminRole = getRoleAdmin(role);\\n        _roles[role].adminRole = adminRole;\\n        emit RoleAdminChanged(role, previousAdminRole, adminRole);\\n    }\\n\\n    /**\\n     * @dev Attempts to grant `role` to `account` and returns a boolean indicating if `role` was granted.\\n     *\\n     * Internal function without access restriction.\\n     *\\n     * May emit a {RoleGranted} event.\\n     */\\n    function _grantRole(bytes32 role, address account) internal virtual returns (bool) {\\n        if (!hasRole(role, account)) {\\n            _roles[role].hasRole[account] = true;\\n            emit RoleGranted(role, account, _msgSender());\\n            return true;\\n        } else {\\n            return false;\\n        }\\n    }\\n\\n    /**\\n     * @dev Attempts to revoke `role` from `account` and returns a boolean indicating if `role` was revoked.\\n     *\\n     * Internal function without access restriction.\\n     *\\n     * May emit a {RoleRevoked} event.\\n     */\\n    function _revokeRole(bytes32 role, address account) internal virtual returns (bool) {\\n        if (hasRole(role, account)) {\\n            _roles[role].hasRole[account] = false;\\n            emit RoleRevoked(role, account, _msgSender());\\n            return true;\\n        } else {\\n            return false;\\n        }\\n    }\\n}\\n\"},\"@openzeppelin/contracts/utils/introspection/ERC165.sol\":{\"content\":\"// SPDX-License-Identifier: MIT\\n// OpenZeppelin Contracts (last updated v5.4.0) (utils/introspection/ERC165.sol)\\n\\npragma solidity ^0.8.20;\\n\\nimport {IERC165} from \\\"./IERC165.sol\\\";\\n\\n/**\\n * @dev Implementation of the {IERC165} interface.\\n *\\n * Contracts that want to implement ERC-165 should inherit from this contract and override {supportsInterface} to check\\n * for the additional interface id that will be supported. For example:\\n *\\n * ```solidity\\n * function supportsInterface(bytes4 interfaceId) public view virtual override returns (bool) {\\n *     return interfaceId == type(MyInterface).interfaceId || super.supportsInterface(interfaceId);\\n * }\\n * ```\\n */\\nabstract contract ERC165 is IERC165 {\\n    /// @inheritdoc IERC165\\n    function supportsInterface(bytes4 interfaceId) public view virtual returns (bool) {\\n        return interfaceId == type(IERC165).interfaceId;\\n    }\\n}\\n\"},\"@openzeppelin/contracts/utils/Context.sol\":{\"content\":\"// SPDX-License-Identifier: MIT\\n// OpenZeppelin Contracts (last updated v5.0.1) (utils/Context.sol)\\n\\npragma solidity ^0.8.20;\\n\\n/**\\n * @dev Provides information about the current execution context, including the\\n * sender of the transaction and its data. While these are generally available\\n * via msg.sender and msg.data, they should not be accessed in such a direct\\n * manner, since when dealing with meta-transactions the account sending and\\n * paying for execution may not be the actual sender (as far as an application\\n * is concerned).\\n *\\n * This contract is only required for intermediate, library-like contracts.\\n */\\nabstract contract Context {\\n    function _msgSender() internal view virtual returns (address) {\\n        return msg.sender;\\n    }\\n\\n    function _msgData() internal view virtual returns (bytes calldata) {\\n        return msg.data;\\n    }\\n\\n    function _contextSuffixLength() internal view virtual returns (uint256) {\\n        return 0;\\n    }\\n}\\n\"},\"@openzeppelin/contracts/access/IAccessControl.sol\":{\"content\":\"// SPDX-License-Identifier: MIT\\n// OpenZeppelin Contracts (last updated v5.4.0) (access/IAccessControl.sol)\\n\\npragma solidity >=0.8.4;\\n\\n/**\\n * @dev External interface of AccessControl declared to support ERC-165 detection.\\n */\\ninterface IAccessControl {\\n    /**\\n     * @dev The `account` is missing a role.\\n     */\\n    error AccessControlUnauthorizedAccount(address account, bytes32 neededRole);\\n\\n    /**\\n     * @dev The caller of a function is not the expected one.\\n     *\\n     * NOTE: Don't confuse with {AccessControlUnauthorizedAccount}.\\n     */\\n    error AccessControlBadConfirmation();\\n\\n    /**\\n     * @dev Emitted when `newAdminRole` is set as ``role``'s admin role, replacing `previousAdminRole`\\n     *\\n     * `DEFAULT_ADMIN_ROLE` is the starting admin for all roles, despite\\n     * {RoleAdminChanged} not being emitted to signal this.\\n     */\\n    event RoleAdminChanged(bytes32 indexed role, bytes32 indexed previousAdminRole, bytes32 indexed newAdminRole);\\n\\n    /**\\n     * @dev Emitted when `account` is granted `role`.\\n     *\\n     * `sender` is the account that originated the contract call. This account bears the admin role (for the granted role).\\n     * Expected in cases where the role was granted using the internal {AccessControl-_grantRole}.\\n     */\\n    event RoleGranted(bytes32 indexed role, address indexed account, address indexed sender);\\n\\n    /**\\n     * @dev Emitted when `account` is revoked `role`.\\n     *\\n     * `sender` is the account that originated the contract call:\\n     *   - if using `revokeRole`, it is the admin role bearer\\n     *   - if using `renounceRole`, it is the role bearer (i.e. `account`)\\n     */\\n    event RoleRevoked(bytes32 indexed role, address indexed account, address indexed sender);\\n\\n    /**\\n     * @dev Returns `true` if `account` has been granted `role`.\\n     */\\n    function hasRole(bytes32 role, address account) external view returns (bool);\\n\\n    /**\\n     * @dev Returns the admin role that controls `role`. See {grantRole} and\\n     * {revokeRole}.\\n     *\\n     * To change a role's admin, use {AccessControl-_setRoleAdmin}.\\n     */\\n    function getRoleAdmin(bytes32 role) external view returns (bytes32);\\n\\n    /**\\n     * @dev Grants `role` to `account`.\\n     *\\n     * If `account` had not been already granted `role`, emits a {RoleGranted}\\n     * event.\\n     *\\n     * Requirements:\\n     *\\n     * - the caller must have ``role``'s admin role.\\n     */\\n    function grantRole(bytes32 role, address account) external;\\n\\n    /**\\n     * @dev Revokes `role` from `account`.\\n     *\\n     * If `account` had been granted `role`, emits a {RoleRevoked} event.\\n     *\\n     * Requirements:\\n     *\\n     * - the caller must have ``role``'s admin role.\\n     */\\n    function revokeRole(bytes32 role, address account) external;\\n\\n    /**\\n     * @dev Revokes `role` from the calling account.\\n     *\\n     * Roles are often managed via {grantRole} and {revokeRole}: this function's\\n     * purpose is to provide a mechanism for accounts to lose their privileges\\n     * if they are compromised (such as when a trusted device is misplaced).\\n     *\\n     * If the calling account had been granted `role`, emits a {RoleRevoked}\\n     * event.\\n     *\\n     * Requirements:\\n     *\\n     * - the caller must be `callerConfirmation`.\\n     */\\n    function renounceRole(bytes32 role, address callerConfirmation) external;\\n}\\n\"},\"@openzeppelin/contracts/utils/introspection/IERC165.sol\":{\"content\":\"// SPDX-License-Identifier: MIT\\n// OpenZeppelin Contracts (last updated v5.4.0) (utils/introspection/IERC165.sol)\\n\\npragma solidity >=0.4.16;\\n\\n/**\\n * @dev Interface of the ERC-165 standard, as defined in the\\n * https://eips.ethereum.org/EIPS/eip-165[ERC].\\n *\\n * Implementers can declare support of contract interfaces, which can then be\\n * queried by others ({ERC165Checker}).\\n *\\n * For an implementation, see {ERC165}.\\n */\\ninterface IERC165 {\\n    /**\\n     * @dev Returns true if this contract implements the interface defined by\\n     * `interfaceId`. See the corresponding\\n     * https://eips.ethereum.org/EIPS/eip-165#how-interfaces-are-identified[ERC section]\\n     * to learn more about how these ids are created.\\n     *\\n     * This function call must use less than 30 000 gas.\\n     */\\n    function supportsInterface(bytes4 interfaceId) external view returns (bool);\\n}\\n\"}},\"settings\":{\"optimizer\":{\"enabled\":true,\"runs\":200},\"outputSelection\":{\"*\":{\"\":[\"ast\"],\"*\":[\"abi\",\"metadata\",\"devdoc\",\"userdoc\",\"storageLayout\",\"evm.legacyAssembly\",\"evm.bytecode\",\"evm.deployedBytecode\",\"evm.methodIdentifiers\",\"evm.gasEstimates\",\"evm.assembly\"]}},\"remappings\":[]}}",
	"name": "MilkTrace",
	"bytecode": {
		"linkReferences": {},
		"object": "608060405234801561000f575f80fd5b5060405161148938038061148983398101604081905261002e916100e8565b6100385f8261003f565b5050610115565b5f828152602081815260408083206001600160a01b038516845290915281205460ff166100df575f838152602081815260408083206001600160a01b03861684529091529020805460ff191660011790556100973390565b6001600160a01b0316826001600160a01b0316847f2f8788117e7eff1d82e926ec794901d17c78024a50270940304540a733656f0d60405160405180910390a45060016100e2565b505f5b92915050565b5f602082840312156100f8575f80fd5b81516001600160a01b038116811461010e575f80fd5b9392505050565b611367806101225f395ff3fe608060405234801561000f575f80fd5b5060043610610111575f3560e01c80637c66ac851161009e578063a217fddf1161006e578063a217fddf14610297578063b2dcb90c1461029e578063d547741f146102b1578063dc04d247146102c4578063ef9c6271146102eb575f80fd5b80637c66ac851461022357806391d1485414610236578063965288b0146102495780639ca39ae914610270575f80fd5b8063248a9ca3116100e4578063248a9ca3146101a85780632f2ff15d146101ca57806336568abe146101dd5780633a20e9df146101f057806353e6a52214610210575f80fd5b806301ffc9a714610115578063115d620d1461013d578063173a25b21461015e5780632115e7bf14610173575b5f80fd5b610128610123366004610dc9565b6102fe565b60405190151581526020015b60405180910390f35b61015061014b366004610df7565b610334565b604051610134929190610e42565b61017161016c366004610f07565b610463565b005b61019a7f2a5f906c256a5d799494fcd066e1f6c077689de1cdb65052a1624de4bace99bf81565b604051908152602001610134565b61019a6101b6366004610df7565b5f9081526020819052604090206001015490565b6101716101d8366004610fad565b61070f565b6101716101eb366004610fad565b610739565b6102036101fe366004610df7565b610771565b604051610134919061101a565b61017161021e366004611092565b61094e565b610171610231366004610df7565b6109b2565b610128610244366004610fad565b6109ed565b61019a7feefb95e842a3287179d933b4460be539a1d5af11aa8b325bb45c5c8dc92de4ed81565b61019a7f14cf45180c3fcf249a5a305e9657ea05c14fd4f4e1800ee0216a8213091711d281565b61019a5f81565b6101716102ac366004610df7565b610a15565b6101716102bf366004610fad565b610a4c565b61019a7f545cd3008e8205610ec65c7ca17f448815c2ab7eaad3609fe9d3a0aed335653681565b6101716102f9366004610df7565b610a70565b5f6001600160e01b03198216637965db0b60e01b148061032e57506301ffc9a760e01b6001600160e01b03198316145b92915050565b5f818152600160205260409020600201546060908190600160481b900460ff166103795760405162461bcd60e51b81526004016103709061110a565b60405180910390fd5b5f83815260026020908152604080832060038352928190208354825181850281018501909352808352909284919083018282801561040357602002820191905f5260205f20905f905b82829054906101000a900460ff1660048111156103e1576103e1610e0e565b8152602060019283018181049485019490930390920291018084116103c25790505b505050505091508080548060200260200160405190810160405280929190818152602001828054801561045357602002820191905f5260205f20905b81548152602001906001019080831161043f575b5050505050905091509150915091565b7feefb95e842a3287179d933b4460be539a1d5af11aa8b325bb45c5c8dc92de4ed61048d81610aa7565b5f87815260016020526040902060020154600160481b900460ff16156104e65760405162461bcd60e51b815260206004820152600e60248201526d416c72656164792065786973747360901b6044820152606401610370565b6040518060a0016040528087878080601f0160208091040260200160405190810160405280939291908181526020018383808284375f92019190915250505090825250604080516020601f8801819004810282018101909252868152918101919087908790819084018382808284375f9201919091525050509082525067ffffffffffffffff8416602082015260400160018152600160209182018190525f8a81529152604090208151819061059c90826111be565b50602082015160018201906105b190826111be565b50604082015160028201805467ffffffffffffffff90921667ffffffffffffffff1983168117825560608501519268ffffffffffffffffff191617600160401b83600481111561060357610603610e0e565b0217905550608091909101516002918201805469ff0000000000000000001916600160481b921515929092029190911790555f8881526020918252604080822080546001818101835591845284842085820401805460ff601f9093166101000a928302191690911790558a83526003845281832080549182018155835292909120429201919091555187907fed037748ee9548d24f616fe577e1ac2e4aaffee46e8a16c4280b3a820cbfeb54906106c390899089908990899089906112a6565b60405180910390a2867fca73b838fb308ed0de2f1d63ee69e1af3c7d64a31b00067689cbbe94d50c86d46001426040516106fe9291906112e9565b60405180910390a250505050505050565b5f8281526020819052604090206001015461072981610aa7565b6107338383610ab4565b50505050565b6001600160a01b03811633146107625760405163334bd91960e11b815260040160405180910390fd5b61076c8282610b43565b505050565b610779610d82565b5f82815260016020526040902060020154600160481b900460ff166107b05760405162461bcd60e51b81526004016103709061110a565b5f8281526001602052604090819020815160a081019092528054829082906107d790611142565b80601f016020809104026020016040519081016040528092919081815260200182805461080390611142565b801561084e5780601f106108255761010080835404028352916020019161084e565b820191905f5260205f20905b81548152906001019060200180831161083157829003601f168201915b5050505050815260200160018201805461086790611142565b80601f016020809104026020016040519081016040528092919081815260200182805461089390611142565b80156108de5780601f106108b5576101008083540402835291602001916108de565b820191905f5260205f20905b8154815290600101906020018083116108c157829003601f168201915b5050509183525050600282015467ffffffffffffffff81166020830152604090910190600160401b900460ff16600481111561091c5761091c610e0e565b600481111561092d5761092d610e0e565b815260029190910154600160481b900460ff16151560209091015292915050565b5f8381526020819052604090206001015461096881610aa7565b5f5b828110156109ab576109a28585858481811061098857610988611304565b905060200201602081019061099d9190611318565b610ab4565b5060010161096a565b5050505050565b7f2a5f906c256a5d799494fcd066e1f6c077689de1cdb65052a1624de4bace99bf6109dc81610aa7565b6109e98260046003610bac565b5050565b5f918252602082815260408084206001600160a01b0393909316845291905290205460ff1690565b7f14cf45180c3fcf249a5a305e9657ea05c14fd4f4e1800ee0216a8213091711d2610a3f81610aa7565b6109e98260026001610bac565b5f82815260208190526040902060010154610a6681610aa7565b6107338383610b43565b7f545cd3008e8205610ec65c7ca17f448815c2ab7eaad3609fe9d3a0aed3356536610a9a81610aa7565b6109e98260036002610bac565b610ab18133610d49565b50565b5f610abf83836109ed565b610b3c575f838152602081815260408083206001600160a01b03861684529091529020805460ff19166001179055610af43390565b6001600160a01b0316826001600160a01b0316847f2f8788117e7eff1d82e926ec794901d17c78024a50270940304540a733656f0d60405160405180910390a450600161032e565b505f61032e565b5f610b4e83836109ed565b15610b3c575f838152602081815260408083206001600160a01b0386168085529252808320805460ff1916905551339286917ff6391f5c32d9c69d2a47ea670b442974b53935d1edc7fd64eb21e047a839171b9190a450600161032e565b5f83815260016020526040902060020154600160481b900460ff16610be35760405162461bcd60e51b81526004016103709061110a565b806004811115610bf557610bf5610e0e565b5f84815260016020526040902060020154600160401b900460ff166004811115610c2157610c21610e0e565b14610c5c5760405162461bcd60e51b815260206004820152600b60248201526a2bb937b7339037b93232b960a91b6044820152606401610370565b5f838152600160205260409020600201805483919068ff00000000000000001916600160401b836004811115610c9457610c94610e0e565b02179055505f83815260026020908152604082208054600181018255908352918190209082040180548492601f166101000a60ff81021990911690836004811115610ce157610ce1610e0e565b02179055505f838152600360209081526040808320805460018101825590845291909220429101819055905184917fca73b838fb308ed0de2f1d63ee69e1af3c7d64a31b00067689cbbe94d50c86d491610d3c9186916112e9565b60405180910390a2505050565b610d5382826109ed565b6109e95760405163e2517d3f60e01b81526001600160a01b038216600482015260248101839052604401610370565b6040518060a0016040528060608152602001606081526020015f67ffffffffffffffff1681526020015f6004811115610dbd57610dbd610e0e565b81525f60209091015290565b5f60208284031215610dd9575f80fd5b81356001600160e01b031981168114610df0575f80fd5b9392505050565b5f60208284031215610e07575f80fd5b5035919050565b634e487b7160e01b5f52602160045260245ffd5b60058110610e3e57634e487b7160e01b5f52602160045260245ffd5b9052565b604080825283519082018190525f906020906060840190828701845b82811015610e8157610e71848351610e22565b9284019290840190600101610e5e565b505050838103828501528451808252858301918301905f5b81811015610eb557835183529284019291840191600101610e99565b5090979650505050505050565b5f8083601f840112610ed2575f80fd5b50813567ffffffffffffffff811115610ee9575f80fd5b602083019150836020828501011115610f00575f80fd5b9250929050565b5f805f805f8060808789031215610f1c575f80fd5b86359550602087013567ffffffffffffffff80821115610f3a575f80fd5b610f468a838b01610ec2565b90975095506040890135915080821115610f5e575f80fd5b610f6a8a838b01610ec2565b9095509350606089013591508082168214610f83575f80fd5b50809150509295509295509295565b80356001600160a01b0381168114610fa8575f80fd5b919050565b5f8060408385031215610fbe575f80fd5b82359150610fce60208401610f92565b90509250929050565b5f81518084525f5b81811015610ffb57602081850181015186830182015201610fdf565b505f602082860101526020601f19601f83011685010191505092915050565b602081525f825160a0602084015261103560c0840182610fd7565b90506020840151601f198483030160408501526110528282610fd7565b91505067ffffffffffffffff6040850151166060840152606084015161107b6080850182610e22565b506080840151151560a08401528091505092915050565b5f805f604084860312156110a4575f80fd5b83359250602084013567ffffffffffffffff808211156110c2575f80fd5b818601915086601f8301126110d5575f80fd5b8135818111156110e3575f80fd5b8760208260051b85010111156110f7575f80fd5b6020830194508093505050509250925092565b6020808252600a9082015269139bc81c1c9bd91d58dd60b21b604082015260600190565b634e487b7160e01b5f52604160045260245ffd5b600181811c9082168061115657607f821691505b60208210810361117457634e487b7160e01b5f52602260045260245ffd5b50919050565b601f82111561076c57805f5260205f20601f840160051c8101602085101561119f5750805b601f840160051c820191505b818110156109ab575f81556001016111ab565b815167ffffffffffffffff8111156111d8576111d861112e565b6111ec816111e68454611142565b8461117a565b602080601f83116001811461121f575f84156112085750858301515b5f19600386901b1c1916600185901b178555611276565b5f85815260208120601f198616915b8281101561124d5788860151825594840194600190910190840161122e565b508582101561126a57878501515f19600388901b60f8161c191681555b505060018460011b0185555b505050505050565b81835281816020850137505f828201602090810191909152601f909101601f19169091010190565b606081525f6112b960608301878961127e565b82810360208401526112cc81868861127e565b91505067ffffffffffffffff831660408301529695505050505050565b604081016112f78285610e22565b8260208301529392505050565b634e487b7160e01b5f52603260045260245ffd5b5f60208284031215611328575f80fd5b610df082610f9256fea26469706673582212204d3759aa58304a0421666e3b120b442d86cd67222c0be01b4ea00914f9cdadcd64736f6c63430008180033",
		"opcodes": "PUSH1 0x80 PUSH1 0x40 MSTORE CALLVALUE DUP1 ISZERO PUSH2 0xF JUMPI PUSH0 DUP1 REVERT JUMPDEST POP PUSH1 0x40 MLOAD PUSH2 0x1489 CODESIZE SUB DUP1 PUSH2 0x1489 DUP4 CODECOPY DUP2 ADD PUSH1 0x40 DUP2 SWAP1 MSTORE PUSH2 0x2E SWAP2 PUSH2 0xE8 JUMP JUMPDEST PUSH2 0x38 PUSH0 DUP3 PUSH2 0x3F JUMP JUMPDEST POP POP PUSH2 0x115 JUMP JUMPDEST PUSH0 DUP3 DUP2 MSTORE PUSH1 0x20 DUP2 DUP2 MSTORE PUSH1 0x40 DUP1 DUP4 KECCAK256 PUSH1 0x1 PUSH1 0x1 PUSH1 0xA0 SHL SUB DUP6 AND DUP5 MSTORE SWAP1 SWAP2 MSTORE DUP2 KECCAK256 SLOAD PUSH1 0xFF AND PUSH2 0xDF JUMPI PUSH0 DUP4 DUP2 MSTORE PUSH1 0x20 DUP2 DUP2 MSTORE PUSH1 0x40 DUP1 DUP4 KECCAK256 PUSH1 0x1 PUSH1 0x1 PUSH1 0xA0 SHL SUB DUP7 AND DUP5 MSTORE SWAP1 SWAP2 MSTORE SWAP1 KECCAK256 DUP1 SLOAD PUSH1 0xFF NOT AND PUSH1 0x1 OR SWAP1 SSTORE PUSH2 0x97 CALLER SWAP1 JUMP JUMPDEST PUSH1 0x1 PUSH1 0x1 PUSH1 0xA0 SHL SUB AND DUP3 PUSH1 0x1 PUSH1 0x1 PUSH1 0xA0 SHL SUB AND DUP5 PUSH32 0x2F8788117E7EFF1D82E926EC794901D17C78024A50270940304540A733656F0D PUSH1 0x40 MLOAD PUSH1 0x40 MLOAD DUP1 SWAP2 SUB SWAP1 LOG4 POP PUSH1 0x1 PUSH2 0xE2 JUMP JUMPDEST POP PUSH0 JUMPDEST SWAP3 SWAP2 POP POP JUMP JUMPDEST PUSH0 PUSH1 0x20 DUP3 DUP5 SUB SLT ISZERO PUSH2 0xF8 JUMPI PUSH0 DUP1 REVERT JUMPDEST DUP2 MLOAD PUSH1 0x1 PUSH1 0x1 PUSH1 0xA0 SHL SUB DUP2 AND DUP2 EQ PUSH2 0x10E JUMPI PUSH0 DUP1 REVERT JUMPDEST SWAP4 SWAP3 POP POP POP JUMP JUMPDEST PUSH2 0x1367 DUP1 PUSH2 0x122 PUSH0 CODECOPY PUSH0 RETURN INVALID PUSH1 0x80 PUSH1 0x40 MSTORE CALLVALUE DUP1 ISZERO PUSH2 0xF JUMPI PUSH0 DUP1 REVERT JUMPDEST POP PUSH1 0x4 CALLDATASIZE LT PUSH2 0x111 JUMPI PUSH0 CALLDATALOAD PUSH1 0xE0 SHR DUP1 PUSH4 0x7C66AC85 GT PUSH2 0x9E JUMPI DUP1 PUSH4 0xA217FDDF GT PUSH2 0x6E JUMPI DUP1 PUSH4 0xA217FDDF EQ PUSH2 0x297 JUMPI DUP1 PUSH4 0xB2DCB90C EQ PUSH2 0x29E JUMPI DUP1 PUSH4 0xD547741F EQ PUSH2 0x2B1 JUMPI DUP1 PUSH4 0xDC04D247 EQ PUSH2 0x2C4 JUMPI DUP1 PUSH4 0xEF9C6271 EQ PUSH2 0x2EB JUMPI PUSH0 DUP1 REVERT JUMPDEST DUP1 PUSH4 0x7C66AC85 EQ PUSH2 0x223 JUMPI DUP1 PUSH4 0x91D14854 EQ PUSH2 0x236 JUMPI DUP1 PUSH4 0x965288B0 EQ PUSH2 0x249 JUMPI DUP1 PUSH4 0x9CA39AE9 EQ PUSH2 0x270 JUMPI PUSH0 DUP1 REVERT JUMPDEST DUP1 PUSH4 0x248A9CA3 GT PUSH2 0xE4 JUMPI DUP1 PUSH4 0x248A9CA3 EQ PUSH2 0x1A8 JUMPI DUP1 PUSH4 0x2F2FF15D EQ PUSH2 0x1CA JUMPI DUP1 PUSH4 0x36568ABE EQ PUSH2 0x1DD JUMPI DUP1 PUSH4 0x3A20E9DF EQ PUSH2 0x1F0 JUMPI DUP1 PUSH4 0x53E6A522 EQ PUSH2 0x210 JUMPI PUSH0 DUP1 REVERT JUMPDEST DUP1 PUSH4 0x1FFC9A7 EQ PUSH2 0x115 JUMPI DUP1 PUSH4 0x115D620D EQ PUSH2 0x13D JUMPI DUP1 PUSH4 0x173A25B2 EQ PUSH2 0x15E JUMPI DUP1 PUSH4 0x2115E7BF EQ PUSH2 0x173 JUMPI JUMPDEST PUSH0 DUP1 REVERT JUMPDEST PUSH2 0x128 PUSH2 0x123 CALLDATASIZE PUSH1 0x4 PUSH2 0xDC9 JUMP JUMPDEST PUSH2 0x2FE JUMP JUMPDEST PUSH1 0x40 MLOAD SWAP1 ISZERO ISZERO DUP2 MSTORE PUSH1 0x20 ADD JUMPDEST PUSH1 0x40 MLOAD DUP1 SWAP2 SUB SWAP1 RETURN JUMPDEST PUSH2 0x150 PUSH2 0x14B CALLDATASIZE PUSH1 0x4 PUSH2 0xDF7 JUMP JUMPDEST PUSH2 0x334 JUMP JUMPDEST PUSH1 0x40 MLOAD PUSH2 0x134 SWAP3 SWAP2 SWAP1 PUSH2 0xE42 JUMP JUMPDEST PUSH2 0x171 PUSH2 0x16C CALLDATASIZE PUSH1 0x4 PUSH2 0xF07 JUMP JUMPDEST PUSH2 0x463 JUMP JUMPDEST STOP JUMPDEST PUSH2 0x19A PUSH32 0x2A5F906C256A5D799494FCD066E1F6C077689DE1CDB65052A1624DE4BACE99BF DUP2 JUMP JUMPDEST PUSH1 0x40 MLOAD SWAP1 DUP2 MSTORE PUSH1 0x20 ADD PUSH2 0x134 JUMP JUMPDEST PUSH2 0x19A PUSH2 0x1B6 CALLDATASIZE PUSH1 0x4 PUSH2 0xDF7 JUMP JUMPDEST PUSH0 SWAP1 DUP2 MSTORE PUSH1 0x20 DUP2 SWAP1 MSTORE PUSH1 0x40 SWAP1 KECCAK256 PUSH1 0x1 ADD SLOAD SWAP1 JUMP JUMPDEST PUSH2 0x171 PUSH2 0x1D8 CALLDATASIZE PUSH1 0x4 PUSH2 0xFAD JUMP JUMPDEST PUSH2 0x70F JUMP JUMPDEST PUSH2 0x171 PUSH2 0x1EB CALLDATASIZE PUSH1 0x4 PUSH2 0xFAD JUMP JUMPDEST PUSH2 0x739 JUMP JUMPDEST PUSH2 0x203 PUSH2 0x1FE CALLDATASIZE PUSH1 0x4 PUSH2 0xDF7 JUMP JUMPDEST PUSH2 0x771 JUMP JUMPDEST PUSH1 0x40 MLOAD PUSH2 0x134 SWAP2 SWAP1 PUSH2 0x101A JUMP JUMPDEST PUSH2 0x171 PUSH2 0x21E CALLDATASIZE PUSH1 0x4 PUSH2 0x1092 JUMP JUMPDEST PUSH2 0x94E JUMP JUMPDEST PUSH2 0x171 PUSH2 0x231 CALLDATASIZE PUSH1 0x4 PUSH2 0xDF7 JUMP JUMPDEST PUSH2 0x9B2 JUMP JUMPDEST PUSH2 0x128 PUSH2 0x244 CALLDATASIZE PUSH1 0x4 PUSH2 0xFAD JUMP JUMPDEST PUSH2 0x9ED JUMP JUMPDEST PUSH2 0x19A PUSH32 0xEEFB95E842A3287179D933B4460BE539A1D5AF11AA8B325BB45C5C8DC92DE4ED DUP2 JUMP JUMPDEST PUSH2 0x19A PUSH32 0x14CF45180C3FCF249A5A305E9657EA05C14FD4F4E1800EE0216A8213091711D2 DUP2 JUMP JUMPDEST PUSH2 0x19A PUSH0 DUP2 JUMP JUMPDEST PUSH2 0x171 PUSH2 0x2AC CALLDATASIZE PUSH1 0x4 PUSH2 0xDF7 JUMP JUMPDEST PUSH2 0xA15 JUMP JUMPDEST PUSH2 0x171 PUSH2 0x2BF CALLDATASIZE PUSH1 0x4 PUSH2 0xFAD JUMP JUMPDEST PUSH2 0xA4C JUMP JUMPDEST PUSH2 0x19A PUSH32 0x545CD3008E8205610EC65C7CA17F448815C2AB7EAAD3609FE9D3A0AED3356536 DUP2 JUMP JUMPDEST PUSH2 0x171 PUSH2 0x2F9 CALLDATASIZE PUSH1 0x4 PUSH2 0xDF7 JUMP JUMPDEST PUSH2 0xA70 JUMP JUMPDEST PUSH0 PUSH1 0x1 PUSH1 0x1 PUSH1 0xE0 SHL SUB NOT DUP3 AND PUSH4 0x7965DB0B PUSH1 0xE0 SHL EQ DUP1 PUSH2 0x32E JUMPI POP PUSH4 0x1FFC9A7 PUSH1 0xE0 SHL PUSH1 0x1 PUSH1 0x1 PUSH1 0xE0 SHL SUB NOT DUP4 AND EQ JUMPDEST SWAP3 SWAP2 POP POP JUMP JUMPDEST PUSH0 DUP2 DUP2 MSTORE PUSH1 0x1 PUSH1 0x20 MSTORE PUSH1 0x40 SWAP1 KECCAK256 PUSH1 0x2 ADD SLOAD PUSH1 0x60 SWAP1 DUP2 SWAP1 PUSH1 0x1 PUSH1 0x48 SHL SWAP1 DIV PUSH1 0xFF AND PUSH2 0x379 JUMPI PUSH1 0x40 MLOAD PUSH3 0x461BCD PUSH1 0xE5 SHL DUP2 MSTORE PUSH1 0x4 ADD PUSH2 0x370 SWAP1 PUSH2 0x110A JUMP JUMPDEST PUSH1 0x40 MLOAD DUP1 SWAP2 SUB SWAP1 REVERT JUMPDEST PUSH0 DUP4 DUP2 MSTORE PUSH1 0x2 PUSH1 0x20 SWAP1 DUP2 MSTORE PUSH1 0x40 DUP1 DUP4 KECCAK256 PUSH1 0x3 DUP4 MSTORE SWAP3 DUP2 SWAP1 KECCAK256 DUP4 SLOAD DUP3 MLOAD DUP2 DUP6 MUL DUP2 ADD DUP6 ADD SWAP1 SWAP4 MSTORE DUP1 DUP4 MSTORE SWAP1 SWAP3 DUP5 SWAP2 SWAP1 DUP4 ADD DUP3 DUP3 DUP1 ISZERO PUSH2 0x403 JUMPI PUSH1 0x20 MUL DUP3 ADD SWAP2 SWAP1 PUSH0 MSTORE PUSH1 0x20 PUSH0 KECCAK256 SWAP1 PUSH0 SWAP1 JUMPDEST DUP3 DUP3 SWAP1 SLOAD SWAP1 PUSH2 0x100 EXP SWAP1 DIV PUSH1 0xFF AND PUSH1 0x4 DUP2 GT ISZERO PUSH2 0x3E1 JUMPI PUSH2 0x3E1 PUSH2 0xE0E JUMP JUMPDEST DUP2 MSTORE PUSH1 0x20 PUSH1 0x1 SWAP3 DUP4 ADD DUP2 DUP2 DIV SWAP5 DUP6 ADD SWAP5 SWAP1 SWAP4 SUB SWAP1 SWAP3 MUL SWAP2 ADD DUP1 DUP5 GT PUSH2 0x3C2 JUMPI SWAP1 POP JUMPDEST POP POP POP POP POP SWAP2 POP DUP1 DUP1 SLOAD DUP1 PUSH1 0x20 MUL PUSH1 0x20 ADD PUSH1 0x40 MLOAD SWAP1 DUP2 ADD PUSH1 0x40 MSTORE DUP1 SWAP3 SWAP2 SWAP1 DUP2 DUP2 MSTORE PUSH1 0x20 ADD DUP3 DUP1 SLOAD DUP1 ISZERO PUSH2 0x453 JUMPI PUSH1 0x20 MUL DUP3 ADD SWAP2 SWAP1 PUSH0 MSTORE PUSH1 0x20 PUSH0 KECCAK256 SWAP1 JUMPDEST DUP2 SLOAD DUP2 MSTORE PUSH1 0x20 ADD SWAP1 PUSH1 0x1 ADD SWAP1 DUP1 DUP4 GT PUSH2 0x43F JUMPI JUMPDEST POP POP POP POP POP SWAP1 POP SWAP2 POP SWAP2 POP SWAP2 POP SWAP2 JUMP JUMPDEST PUSH32 0xEEFB95E842A3287179D933B4460BE539A1D5AF11AA8B325BB45C5C8DC92DE4ED PUSH2 0x48D DUP2 PUSH2 0xAA7 JUMP JUMPDEST PUSH0 DUP8 DUP2 MSTORE PUSH1 0x1 PUSH1 0x20 MSTORE PUSH1 0x40 SWAP1 KECCAK256 PUSH1 0x2 ADD SLOAD PUSH1 0x1 PUSH1 0x48 SHL SWAP1 DIV PUSH1 0xFF AND ISZERO PUSH2 0x4E6 JUMPI PUSH1 0x40 MLOAD PUSH3 0x461BCD PUSH1 0xE5 SHL DUP2 MSTORE PUSH1 0x20 PUSH1 0x4 DUP3 ADD MSTORE PUSH1 0xE PUSH1 0x24 DUP3 ADD MSTORE PUSH14 0x416C726561647920657869737473 PUSH1 0x90 SHL PUSH1 0x44 DUP3 ADD MSTORE PUSH1 0x64 ADD PUSH2 0x370 JUMP JUMPDEST PUSH1 0x40 MLOAD DUP1 PUSH1 0xA0 ADD PUSH1 0x40 MSTORE DUP1 DUP8 DUP8 DUP1 DUP1 PUSH1 0x1F ADD PUSH1 0x20 DUP1 SWAP2 DIV MUL PUSH1 0x20 ADD PUSH1 0x40 MLOAD SWAP1 DUP2 ADD PUSH1 0x40 MSTORE DUP1 SWAP4 SWAP3 SWAP2 SWAP1 DUP2 DUP2 MSTORE PUSH1 0x20 ADD DUP4 DUP4 DUP1 DUP3 DUP5 CALLDATACOPY PUSH0 SWAP3 ADD SWAP2 SWAP1 SWAP2 MSTORE POP POP POP SWAP1 DUP3 MSTORE POP PUSH1 0x40 DUP1 MLOAD PUSH1 0x20 PUSH1 0x1F DUP9 ADD DUP2 SWAP1 DIV DUP2 MUL DUP3 ADD DUP2 ADD SWAP1 SWAP3 MSTORE DUP7 DUP2 MSTORE SWAP2 DUP2 ADD SWAP2 SWAP1 DUP8 SWAP1 DUP8 SWAP1 DUP2 SWAP1 DUP5 ADD DUP4 DUP3 DUP1 DUP3 DUP5 CALLDATACOPY PUSH0 SWAP3 ADD SWAP2 SWAP1 SWAP2 MSTORE POP POP POP SWAP1 DUP3 MSTORE POP PUSH8 0xFFFFFFFFFFFFFFFF DUP5 AND PUSH1 0x20 DUP3 ADD MSTORE PUSH1 0x40 ADD PUSH1 0x1 DUP2 MSTORE PUSH1 0x1 PUSH1 0x20 SWAP2 DUP3 ADD DUP2 SWAP1 MSTORE PUSH0 DUP11 DUP2 MSTORE SWAP2 MSTORE PUSH1 0x40 SWAP1 KECCAK256 DUP2 MLOAD DUP2 SWAP1 PUSH2 0x59C SWAP1 DUP3 PUSH2 0x11BE JUMP JUMPDEST POP PUSH1 0x20 DUP3 ADD MLOAD PUSH1 0x1 DUP3 ADD SWAP1 PUSH2 0x5B1 SWAP1 DUP3 PUSH2 0x11BE JUMP JUMPDEST POP PUSH1 0x40 DUP3 ADD MLOAD PUSH1 0x2 DUP3 ADD DUP1 SLOAD PUSH8 0xFFFFFFFFFFFFFFFF SWAP1 SWAP3 AND PUSH8 0xFFFFFFFFFFFFFFFF NOT DUP4 AND DUP2 OR DUP3 SSTORE PUSH1 0x60 DUP6 ADD MLOAD SWAP3 PUSH9 0xFFFFFFFFFFFFFFFFFF NOT AND OR PUSH1 0x1 PUSH1 0x40 SHL DUP4 PUSH1 0x4 DUP2 GT ISZERO PUSH2 0x603 JUMPI PUSH2 0x603 PUSH2 0xE0E JUMP JUMPDEST MUL OR SWAP1 SSTORE POP PUSH1 0x80 SWAP2 SWAP1 SWAP2 ADD MLOAD PUSH1 0x2 SWAP2 DUP3 ADD DUP1 SLOAD PUSH10 0xFF000000000000000000 NOT AND PUSH1 0x1 PUSH1 0x48 SHL SWAP3 ISZERO ISZERO SWAP3 SWAP1 SWAP3 MUL SWAP2 SWAP1 SWAP2 OR SWAP1 SSTORE PUSH0 DUP9 DUP2 MSTORE PUSH1 0x20 SWAP2 DUP3 MSTORE PUSH1 0x40 DUP1 DUP3 KECCAK256 DUP1 SLOAD PUSH1 0x1 DUP2 DUP2 ADD DUP4 SSTORE SWAP2 DUP5 MSTORE DUP5 DUP5 KECCAK256 DUP6 DUP3 DIV ADD DUP1 SLOAD PUSH1 0xFF PUSH1 0x1F SWAP1 SWAP4 AND PUSH2 0x100 EXP SWAP3 DUP4 MUL NOT AND SWAP1 SWAP2 OR SWAP1 SSTORE DUP11 DUP4 MSTORE PUSH1 0x3 DUP5 MSTORE DUP2 DUP4 KECCAK256 DUP1 SLOAD SWAP2 DUP3 ADD DUP2 SSTORE DUP4 MSTORE SWAP3 SWAP1 SWAP2 KECCAK256 TIMESTAMP SWAP3 ADD SWAP2 SWAP1 SWAP2 SSTORE MLOAD DUP8 SWAP1 PUSH32 0xED037748EE9548D24F616FE577E1AC2E4AAFFEE46E8A16C4280B3A820CBFEB54 SWAP1 PUSH2 0x6C3 SWAP1 DUP10 SWAP1 DUP10 SWAP1 DUP10 SWAP1 DUP10 SWAP1 DUP10 SWAP1 PUSH2 0x12A6 JUMP JUMPDEST PUSH1 0x40 MLOAD DUP1 SWAP2 SUB SWAP1 LOG2 DUP7 PUSH32 0xCA73B838FB308ED0DE2F1D63EE69E1AF3C7D64A31B00067689CBBE94D50C86D4 PUSH1 0x1 TIMESTAMP PUSH1 0x40 MLOAD PUSH2 0x6FE SWAP3 SWAP2 SWAP1 PUSH2 0x12E9 JUMP JUMPDEST PUSH1 0x40 MLOAD DUP1 SWAP2 SUB SWAP1 LOG2 POP POP POP POP POP POP POP JUMP JUMPDEST PUSH0 DUP3 DUP2 MSTORE PUSH1 0x20 DUP2 SWAP1 MSTORE PUSH1 0x40 SWAP1 KECCAK256 PUSH1 0x1 ADD SLOAD PUSH2 0x729 DUP2 PUSH2 0xAA7 JUMP JUMPDEST PUSH2 0x733 DUP4 DUP4 PUSH2 0xAB4 JUMP JUMPDEST POP POP POP POP JUMP JUMPDEST PUSH1 0x1 PUSH1 0x1 PUSH1 0xA0 SHL SUB DUP2 AND CALLER EQ PUSH2 0x762 JUMPI PUSH1 0x40 MLOAD PUSH4 0x334BD919 PUSH1 0xE1 SHL DUP2 MSTORE PUSH1 0x4 ADD PUSH1 0x40 MLOAD DUP1 SWAP2 SUB SWAP1 REVERT JUMPDEST PUSH2 0x76C DUP3 DUP3 PUSH2 0xB43 JUMP JUMPDEST POP POP POP JUMP JUMPDEST PUSH2 0x779 PUSH2 0xD82 JUMP JUMPDEST PUSH0 DUP3 DUP2 MSTORE PUSH1 0x1 PUSH1 0x20 MSTORE PUSH1 0x40 SWAP1 KECCAK256 PUSH1 0x2 ADD SLOAD PUSH1 0x1 PUSH1 0x48 SHL SWAP1 DIV PUSH1 0xFF AND PUSH2 0x7B0 JUMPI PUSH1 0x40 MLOAD PUSH3 0x461BCD PUSH1 0xE5 SHL DUP2 MSTORE PUSH1 0x4 ADD PUSH2 0x370 SWAP1 PUSH2 0x110A JUMP JUMPDEST PUSH0 DUP3 DUP2 MSTORE PUSH1 0x1 PUSH1 0x20 MSTORE PUSH1 0x40 SWAP1 DUP2 SWAP1 KECCAK256 DUP2 MLOAD PUSH1 0xA0 DUP2 ADD SWAP1 SWAP3 MSTORE DUP1 SLOAD DUP3 SWAP1 DUP3 SWAP1 PUSH2 0x7D7 SWAP1 PUSH2 0x1142 JUMP JUMPDEST DUP1 PUSH1 0x1F ADD PUSH1 0x20 DUP1 SWAP2 DIV MUL PUSH1 0x20 ADD PUSH1 0x40 MLOAD SWAP1 DUP2 ADD PUSH1 0x40 MSTORE DUP1 SWAP3 SWAP2 SWAP1 DUP2 DUP2 MSTORE PUSH1 0x20 ADD DUP3 DUP1 SLOAD PUSH2 0x803 SWAP1 PUSH2 0x1142 JUMP JUMPDEST DUP1 ISZERO PUSH2 0x84E JUMPI DUP1 PUSH1 0x1F LT PUSH2 0x825 JUMPI PUSH2 0x100 DUP1 DUP4 SLOAD DIV MUL DUP4 MSTORE SWAP2 PUSH1 0x20 ADD SWAP2 PUSH2 0x84E JUMP JUMPDEST DUP3 ADD SWAP2 SWAP1 PUSH0 MSTORE PUSH1 0x20 PUSH0 KECCAK256 SWAP1 JUMPDEST DUP2 SLOAD DUP2 MSTORE SWAP1 PUSH1 0x1 ADD SWAP1 PUSH1 0x20 ADD DUP1 DUP4 GT PUSH2 0x831 JUMPI DUP3 SWAP1 SUB PUSH1 0x1F AND DUP3 ADD SWAP2 JUMPDEST POP POP POP POP POP DUP2 MSTORE PUSH1 0x20 ADD PUSH1 0x1 DUP3 ADD DUP1 SLOAD PUSH2 0x867 SWAP1 PUSH2 0x1142 JUMP JUMPDEST DUP1 PUSH1 0x1F ADD PUSH1 0x20 DUP1 SWAP2 DIV MUL PUSH1 0x20 ADD PUSH1 0x40 MLOAD SWAP1 DUP2 ADD PUSH1 0x40 MSTORE DUP1 SWAP3 SWAP2 SWAP1 DUP2 DUP2 MSTORE PUSH1 0x20 ADD DUP3 DUP1 SLOAD PUSH2 0x893 SWAP1 PUSH2 0x1142 JUMP JUMPDEST DUP1 ISZERO PUSH2 0x8DE JUMPI DUP1 PUSH1 0x1F LT PUSH2 0x8B5 JUMPI PUSH2 0x100 DUP1 DUP4 SLOAD DIV MUL DUP4 MSTORE SWAP2 PUSH1 0x20 ADD SWAP2 PUSH2 0x8DE JUMP JUMPDEST DUP3 ADD SWAP2 SWAP1 PUSH0 MSTORE PUSH1 0x20 PUSH0 KECCAK256 SWAP1 JUMPDEST DUP2 SLOAD DUP2 MSTORE SWAP1 PUSH1 0x1 ADD SWAP1 PUSH1 0x20 ADD DUP1 DUP4 GT PUSH2 0x8C1 JUMPI DUP3 SWAP1 SUB PUSH1 0x1F AND DUP3 ADD SWAP2 JUMPDEST POP POP POP SWAP2 DUP4 MSTORE POP POP PUSH1 0x2 DUP3 ADD SLOAD PUSH8 0xFFFFFFFFFFFFFFFF DUP2 AND PUSH1 0x20 DUP4 ADD MSTORE PUSH1 0x40 SWAP1 SWAP2 ADD SWAP1 PUSH1 0x1 PUSH1 0x40 SHL SWAP1 DIV PUSH1 0xFF AND PUSH1 0x4 DUP2 GT ISZERO PUSH2 0x91C JUMPI PUSH2 0x91C PUSH2 0xE0E JUMP JUMPDEST PUSH1 0x4 DUP2 GT ISZERO PUSH2 0x92D JUMPI PUSH2 0x92D PUSH2 0xE0E JUMP JUMPDEST DUP2 MSTORE PUSH1 0x2 SWAP2 SWAP1 SWAP2 ADD SLOAD PUSH1 0x1 PUSH1 0x48 SHL SWAP1 DIV PUSH1 0xFF AND ISZERO ISZERO PUSH1 0x20 SWAP1 SWAP2 ADD MSTORE SWAP3 SWAP2 POP POP JUMP JUMPDEST PUSH0 DUP4 DUP2 MSTORE PUSH1 0x20 DUP2 SWAP1 MSTORE PUSH1 0x40 SWAP1 KECCAK256 PUSH1 0x1 ADD SLOAD PUSH2 0x968 DUP2 PUSH2 0xAA7 JUMP JUMPDEST PUSH0 JUMPDEST DUP3 DUP2 LT ISZERO PUSH2 0x9AB JUMPI PUSH2 0x9A2 DUP6 DUP6 DUP6 DUP5 DUP2 DUP2 LT PUSH2 0x988 JUMPI PUSH2 0x988 PUSH2 0x1304 JUMP JUMPDEST SWAP1 POP PUSH1 0x20 MUL ADD PUSH1 0x20 DUP2 ADD SWAP1 PUSH2 0x99D SWAP2 SWAP1 PUSH2 0x1318 JUMP JUMPDEST PUSH2 0xAB4 JUMP JUMPDEST POP PUSH1 0x1 ADD PUSH2 0x96A JUMP JUMPDEST POP POP POP POP POP JUMP JUMPDEST PUSH32 0x2A5F906C256A5D799494FCD066E1F6C077689DE1CDB65052A1624DE4BACE99BF PUSH2 0x9DC DUP2 PUSH2 0xAA7 JUMP JUMPDEST PUSH2 0x9E9 DUP3 PUSH1 0x4 PUSH1 0x3 PUSH2 0xBAC JUMP JUMPDEST POP POP JUMP JUMPDEST PUSH0 SWAP2 DUP3 MSTORE PUSH1 0x20 DUP3 DUP2 MSTORE PUSH1 0x40 DUP1 DUP5 KECCAK256 PUSH1 0x1 PUSH1 0x1 PUSH1 0xA0 SHL SUB SWAP4 SWAP1 SWAP4 AND DUP5 MSTORE SWAP2 SWAP1 MSTORE SWAP1 KECCAK256 SLOAD PUSH1 0xFF AND SWAP1 JUMP JUMPDEST PUSH32 0x14CF45180C3FCF249A5A305E9657EA05C14FD4F4E1800EE0216A8213091711D2 PUSH2 0xA3F DUP2 PUSH2 0xAA7 JUMP JUMPDEST PUSH2 0x9E9 DUP3 PUSH1 0x2 PUSH1 0x1 PUSH2 0xBAC JUMP JUMPDEST PUSH0 DUP3 DUP2 MSTORE PUSH1 0x20 DUP2 SWAP1 MSTORE PUSH1 0x40 SWAP1 KECCAK256 PUSH1 0x1 ADD SLOAD PUSH2 0xA66 DUP2 PUSH2 0xAA7 JUMP JUMPDEST PUSH2 0x733 DUP4 DUP4 PUSH2 0xB43 JUMP JUMPDEST PUSH32 0x545CD3008E8205610EC65C7CA17F448815C2AB7EAAD3609FE9D3A0AED3356536 PUSH2 0xA9A DUP2 PUSH2 0xAA7 JUMP JUMPDEST PUSH2 0x9E9 DUP3 PUSH1 0x3 PUSH1 0x2 PUSH2 0xBAC JUMP JUMPDEST PUSH2 0xAB1 DUP2 CALLER PUSH2 0xD49 JUMP JUMPDEST POP JUMP JUMPDEST PUSH0 PUSH2 0xABF DUP4 DUP4 PUSH2 0x9ED JUMP JUMPDEST PUSH2 0xB3C JUMPI PUSH0 DUP4 DUP2 MSTORE PUSH1 0x20 DUP2 DUP2 MSTORE PUSH1 0x40 DUP1 DUP4 KECCAK256 PUSH1 0x1 PUSH1 0x1 PUSH1 0xA0 SHL SUB DUP7 AND DUP5 MSTORE SWAP1 SWAP2 MSTORE SWAP1 KECCAK256 DUP1 SLOAD PUSH1 0xFF NOT AND PUSH1 0x1 OR SWAP1 SSTORE PUSH2 0xAF4 CALLER SWAP1 JUMP JUMPDEST PUSH1 0x1 PUSH1 0x1 PUSH1 0xA0 SHL SUB AND DUP3 PUSH1 0x1 PUSH1 0x1 PUSH1 0xA0 SHL SUB AND DUP5 PUSH32 0x2F8788117E7EFF1D82E926EC794901D17C78024A50270940304540A733656F0D PUSH1 0x40 MLOAD PUSH1 0x40 MLOAD DUP1 SWAP2 SUB SWAP1 LOG4 POP PUSH1 0x1 PUSH2 0x32E JUMP JUMPDEST POP PUSH0 PUSH2 0x32E JUMP JUMPDEST PUSH0 PUSH2 0xB4E DUP4 DUP4 PUSH2 0x9ED JUMP JUMPDEST ISZERO PUSH2 0xB3C JUMPI PUSH0 DUP4 DUP2 MSTORE PUSH1 0x20 DUP2 DUP2 MSTORE PUSH1 0x40 DUP1 DUP4 KECCAK256 PUSH1 0x1 PUSH1 0x1 PUSH1 0xA0 SHL SUB DUP7 AND DUP1 DUP6 MSTORE SWAP3 MSTORE DUP1 DUP4 KECCAK256 DUP1 SLOAD PUSH1 0xFF NOT AND SWAP1 SSTORE MLOAD CALLER SWAP3 DUP7 SWAP2 PUSH32 0xF6391F5C32D9C69D2A47EA670B442974B53935D1EDC7FD64EB21E047A839171B SWAP2 SWAP1 LOG4 POP PUSH1 0x1 PUSH2 0x32E JUMP JUMPDEST PUSH0 DUP4 DUP2 MSTORE PUSH1 0x1 PUSH1 0x20 MSTORE PUSH1 0x40 SWAP1 KECCAK256 PUSH1 0x2 ADD SLOAD PUSH1 0x1 PUSH1 0x48 SHL SWAP1 DIV PUSH1 0xFF AND PUSH2 0xBE3 JUMPI PUSH1 0x40 MLOAD PUSH3 0x461BCD PUSH1 0xE5 SHL DUP2 MSTORE PUSH1 0x4 ADD PUSH2 0x370 SWAP1 PUSH2 0x110A JUMP JUMPDEST DUP1 PUSH1 0x4 DUP2 GT ISZERO PUSH2 0xBF5 JUMPI PUSH2 0xBF5 PUSH2 0xE0E JUMP JUMPDEST PUSH0 DUP5 DUP2 MSTORE PUSH1 0x1 PUSH1 0x20 MSTORE PUSH1 0x40 SWAP1 KECCAK256 PUSH1 0x2 ADD SLOAD PUSH1 0x1 PUSH1 0x40 SHL SWAP1 DIV PUSH1 0xFF AND PUSH1 0x4 DUP2 GT ISZERO PUSH2 0xC21 JUMPI PUSH2 0xC21 PUSH2 0xE0E JUMP JUMPDEST EQ PUSH2 0xC5C JUMPI PUSH1 0x40 MLOAD PUSH3 0x461BCD PUSH1 0xE5 SHL DUP2 MSTORE PUSH1 0x20 PUSH1 0x4 DUP3 ADD MSTORE PUSH1 0xB PUSH1 0x24 DUP3 ADD MSTORE PUSH11 0x2BB937B7339037B93232B9 PUSH1 0xA9 SHL PUSH1 0x44 DUP3 ADD MSTORE PUSH1 0x64 ADD PUSH2 0x370 JUMP JUMPDEST PUSH0 DUP4 DUP2 MSTORE PUSH1 0x1 PUSH1 0x20 MSTORE PUSH1 0x40 SWAP1 KECCAK256 PUSH1 0x2 ADD DUP1 SLOAD DUP4 SWAP2 SWAP1 PUSH9 0xFF0000000000000000 NOT AND PUSH1 0x1 PUSH1 0x40 SHL DUP4 PUSH1 0x4 DUP2 GT ISZERO PUSH2 0xC94 JUMPI PUSH2 0xC94 PUSH2 0xE0E JUMP JUMPDEST MUL OR SWAP1 SSTORE POP PUSH0 DUP4 DUP2 MSTORE PUSH1 0x2 PUSH1 0x20 SWAP1 DUP2 MSTORE PUSH1 0x40 DUP3 KECCAK256 DUP1 SLOAD PUSH1 0x1 DUP2 ADD DUP3 SSTORE SWAP1 DUP4 MSTORE SWAP2 DUP2 SWAP1 KECCAK256 SWAP1 DUP3 DIV ADD DUP1 SLOAD DUP5 SWAP3 PUSH1 0x1F AND PUSH2 0x100 EXP PUSH1 0xFF DUP2 MUL NOT SWAP1 SWAP2 AND SWAP1 DUP4 PUSH1 0x4 DUP2 GT ISZERO PUSH2 0xCE1 JUMPI PUSH2 0xCE1 PUSH2 0xE0E JUMP JUMPDEST MUL OR SWAP1 SSTORE POP PUSH0 DUP4 DUP2 MSTORE PUSH1 0x3 PUSH1 0x20 SWAP1 DUP2 MSTORE PUSH1 0x40 DUP1 DUP4 KECCAK256 DUP1 SLOAD PUSH1 0x1 DUP2 ADD DUP3 SSTORE SWAP1 DUP5 MSTORE SWAP2 SWAP1 SWAP3 KECCAK256 TIMESTAMP SWAP2 ADD DUP2 SWAP1 SSTORE SWAP1 MLOAD DUP5 SWAP2 PUSH32 0xCA73B838FB308ED0DE2F1D63EE69E1AF3C7D64A31B00067689CBBE94D50C86D4 SWAP2 PUSH2 0xD3C SWAP2 DUP7 SWAP2 PUSH2 0x12E9 JUMP JUMPDEST PUSH1 0x40 MLOAD DUP1 SWAP2 SUB SWAP1 LOG2 POP POP POP JUMP JUMPDEST PUSH2 0xD53 DUP3 DUP3 PUSH2 0x9ED JUMP JUMPDEST PUSH2 0x9E9 JUMPI PUSH1 0x40 MLOAD PUSH4 0xE2517D3F PUSH1 0xE0 SHL DUP2 MSTORE PUSH1 0x1 PUSH1 0x1 PUSH1 0xA0 SHL SUB DUP3 AND PUSH1 0x4 DUP3 ADD MSTORE PUSH1 0x24 DUP2 ADD DUP4 SWAP1 MSTORE PUSH1 0x44 ADD PUSH2 0x370 JUMP JUMPDEST PUSH1 0x40 MLOAD DUP1 PUSH1 0xA0 ADD PUSH1 0x40 MSTORE DUP1 PUSH1 0x60 DUP2 MSTORE PUSH1 0x20 ADD PUSH1 0x60 DUP2 MSTORE PUSH1 0x20 ADD PUSH0 PUSH8 0xFFFFFFFFFFFFFFFF AND DUP2 MSTORE PUSH1 0x20 ADD PUSH0 PUSH1 0x4 DUP2 GT ISZERO PUSH2 0xDBD JUMPI PUSH2 0xDBD PUSH2 0xE0E JUMP JUMPDEST DUP2 MSTORE PUSH0 PUSH1 0x20 SWAP1 SWAP2 ADD MSTORE SWAP1 JUMP JUMPDEST PUSH0 PUSH1 0x20 DUP3 DUP5 SUB SLT ISZERO PUSH2 0xDD9 JUMPI PUSH0 DUP1 REVERT JUMPDEST DUP2 CALLDATALOAD PUSH1 0x1 PUSH1 0x1 PUSH1 0xE0 SHL SUB NOT DUP2 AND DUP2 EQ PUSH2 0xDF0 JUMPI PUSH0 DUP1 REVERT JUMPDEST SWAP4 SWAP3 POP POP POP JUMP JUMPDEST PUSH0 PUSH1 0x20 DUP3 DUP5 SUB SLT ISZERO PUSH2 0xE07 JUMPI PUSH0 DUP1 REVERT JUMPDEST POP CALLDATALOAD SWAP2 SWAP1 POP JUMP JUMPDEST PUSH4 0x4E487B71 PUSH1 0xE0 SHL PUSH0 MSTORE PUSH1 0x21 PUSH1 0x4 MSTORE PUSH1 0x24 PUSH0 REVERT JUMPDEST PUSH1 0x5 DUP2 LT PUSH2 0xE3E JUMPI PUSH4 0x4E487B71 PUSH1 0xE0 SHL PUSH0 MSTORE PUSH1 0x21 PUSH1 0x4 MSTORE PUSH1 0x24 PUSH0 REVERT JUMPDEST SWAP1 MSTORE JUMP JUMPDEST PUSH1 0x40 DUP1 DUP3 MSTORE DUP4 MLOAD SWAP1 DUP3 ADD DUP2 SWAP1 MSTORE PUSH0 SWAP1 PUSH1 0x20 SWAP1 PUSH1 0x60 DUP5 ADD SWAP1 DUP3 DUP8 ADD DUP5 JUMPDEST DUP3 DUP2 LT ISZERO PUSH2 0xE81 JUMPI PUSH2 0xE71 DUP5 DUP4 MLOAD PUSH2 0xE22 JUMP JUMPDEST SWAP3 DUP5 ADD SWAP3 SWAP1 DUP5 ADD SWAP1 PUSH1 0x1 ADD PUSH2 0xE5E JUMP JUMPDEST POP POP POP DUP4 DUP2 SUB DUP3 DUP6 ADD MSTORE DUP5 MLOAD DUP1 DUP3 MSTORE DUP6 DUP4 ADD SWAP2 DUP4 ADD SWAP1 PUSH0 JUMPDEST DUP2 DUP2 LT ISZERO PUSH2 0xEB5 JUMPI DUP4 MLOAD DUP4 MSTORE SWAP3 DUP5 ADD SWAP3 SWAP2 DUP5 ADD SWAP2 PUSH1 0x1 ADD PUSH2 0xE99 JUMP JUMPDEST POP SWAP1 SWAP8 SWAP7 POP POP POP POP POP POP POP JUMP JUMPDEST PUSH0 DUP1 DUP4 PUSH1 0x1F DUP5 ADD SLT PUSH2 0xED2 JUMPI PUSH0 DUP1 REVERT JUMPDEST POP DUP2 CALLDATALOAD PUSH8 0xFFFFFFFFFFFFFFFF DUP2 GT ISZERO PUSH2 0xEE9 JUMPI PUSH0 DUP1 REVERT JUMPDEST PUSH1 0x20 DUP4 ADD SWAP2 POP DUP4 PUSH1 0x20 DUP3 DUP6 ADD ADD GT ISZERO PUSH2 0xF00 JUMPI PUSH0 DUP1 REVERT JUMPDEST SWAP3 POP SWAP3 SWAP1 POP JUMP JUMPDEST PUSH0 DUP1 PUSH0 DUP1 PUSH0 DUP1 PUSH1 0x80 DUP8 DUP10 SUB SLT ISZERO PUSH2 0xF1C JUMPI PUSH0 DUP1 REVERT JUMPDEST DUP7 CALLDATALOAD SWAP6 POP PUSH1 0x20 DUP8 ADD CALLDATALOAD PUSH8 0xFFFFFFFFFFFFFFFF DUP1 DUP3 GT ISZERO PUSH2 0xF3A JUMPI PUSH0 DUP1 REVERT JUMPDEST PUSH2 0xF46 DUP11 DUP4 DUP12 ADD PUSH2 0xEC2 JUMP JUMPDEST SWAP1 SWAP8 POP SWAP6 POP PUSH1 0x40 DUP10 ADD CALLDATALOAD SWAP2 POP DUP1 DUP3 GT ISZERO PUSH2 0xF5E JUMPI PUSH0 DUP1 REVERT JUMPDEST PUSH2 0xF6A DUP11 DUP4 DUP12 ADD PUSH2 0xEC2 JUMP JUMPDEST SWAP1 SWAP6 POP SWAP4 POP PUSH1 0x60 DUP10 ADD CALLDATALOAD SWAP2 POP DUP1 DUP3 AND DUP3 EQ PUSH2 0xF83 JUMPI PUSH0 DUP1 REVERT JUMPDEST POP DUP1 SWAP2 POP POP SWAP3 SWAP6 POP SWAP3 SWAP6 POP SWAP3 SWAP6 JUMP JUMPDEST DUP1 CALLDATALOAD PUSH1 0x1 PUSH1 0x1 PUSH1 0xA0 SHL SUB DUP2 AND DUP2 EQ PUSH2 0xFA8 JUMPI PUSH0 DUP1 REVERT JUMPDEST SWAP2 SWAP1 POP JUMP JUMPDEST PUSH0 DUP1 PUSH1 0x40 DUP4 DUP6 SUB SLT ISZERO PUSH2 0xFBE JUMPI PUSH0 DUP1 REVERT JUMPDEST DUP3 CALLDATALOAD SWAP2 POP PUSH2 0xFCE PUSH1 0x20 DUP5 ADD PUSH2 0xF92 JUMP JUMPDEST SWAP1 POP SWAP3 POP SWAP3 SWAP1 POP JUMP JUMPDEST PUSH0 DUP2 MLOAD DUP1 DUP5 MSTORE PUSH0 JUMPDEST DUP2 DUP2 LT ISZERO PUSH2 0xFFB JUMPI PUSH1 0x20 DUP2 DUP6 ADD DUP2 ADD MLOAD DUP7 DUP4 ADD DUP3 ADD MSTORE ADD PUSH2 0xFDF JUMP JUMPDEST POP PUSH0 PUSH1 0x20 DUP3 DUP7 ADD ADD MSTORE PUSH1 0x20 PUSH1 0x1F NOT PUSH1 0x1F DUP4 ADD AND DUP6 ADD ADD SWAP2 POP POP SWAP3 SWAP2 POP POP JUMP JUMPDEST PUSH1 0x20 DUP2 MSTORE PUSH0 DUP3 MLOAD PUSH1 0xA0 PUSH1 0x20 DUP5 ADD MSTORE PUSH2 0x1035 PUSH1 0xC0 DUP5 ADD DUP3 PUSH2 0xFD7 JUMP JUMPDEST SWAP1 POP PUSH1 0x20 DUP5 ADD MLOAD PUSH1 0x1F NOT DUP5 DUP4 SUB ADD PUSH1 0x40 DUP6 ADD MSTORE PUSH2 0x1052 DUP3 DUP3 PUSH2 0xFD7 JUMP JUMPDEST SWAP2 POP POP PUSH8 0xFFFFFFFFFFFFFFFF PUSH1 0x40 DUP6 ADD MLOAD AND PUSH1 0x60 DUP5 ADD MSTORE PUSH1 0x60 DUP5 ADD MLOAD PUSH2 0x107B PUSH1 0x80 DUP6 ADD DUP3 PUSH2 0xE22 JUMP JUMPDEST POP PUSH1 0x80 DUP5 ADD MLOAD ISZERO ISZERO PUSH1 0xA0 DUP5 ADD MSTORE DUP1 SWAP2 POP POP SWAP3 SWAP2 POP POP JUMP JUMPDEST PUSH0 DUP1 PUSH0 PUSH1 0x40 DUP5 DUP7 SUB SLT ISZERO PUSH2 0x10A4 JUMPI PUSH0 DUP1 REVERT JUMPDEST DUP4 CALLDATALOAD SWAP3 POP PUSH1 0x20 DUP5 ADD CALLDATALOAD PUSH8 0xFFFFFFFFFFFFFFFF DUP1 DUP3 GT ISZERO PUSH2 0x10C2 JUMPI PUSH0 DUP1 REVERT JUMPDEST DUP2 DUP7 ADD SWAP2 POP DUP7 PUSH1 0x1F DUP4 ADD SLT PUSH2 0x10D5 JUMPI PUSH0 DUP1 REVERT JUMPDEST DUP2 CALLDATALOAD DUP2 DUP2 GT ISZERO PUSH2 0x10E3 JUMPI PUSH0 DUP1 REVERT JUMPDEST DUP8 PUSH1 0x20 DUP3 PUSH1 0x5 SHL DUP6 ADD ADD GT ISZERO PUSH2 0x10F7 JUMPI PUSH0 DUP1 REVERT JUMPDEST PUSH1 0x20 DUP4 ADD SWAP5 POP DUP1 SWAP4 POP POP POP POP SWAP3 POP SWAP3 POP SWAP3 JUMP JUMPDEST PUSH1 0x20 DUP1 DUP3 MSTORE PUSH1 0xA SWAP1 DUP3 ADD MSTORE PUSH10 0x139BC81C1C9BD91D58DD PUSH1 0xB2 SHL PUSH1 0x40 DUP3 ADD MSTORE PUSH1 0x60 ADD SWAP1 JUMP JUMPDEST PUSH4 0x4E487B71 PUSH1 0xE0 SHL PUSH0 MSTORE PUSH1 0x41 PUSH1 0x4 MSTORE PUSH1 0x24 PUSH0 REVERT JUMPDEST PUSH1 0x1 DUP2 DUP2 SHR SWAP1 DUP3 AND DUP1 PUSH2 0x1156 JUMPI PUSH1 0x7F DUP3 AND SWAP2 POP JUMPDEST PUSH1 0x20 DUP3 LT DUP2 SUB PUSH2 0x1174 JUMPI PUSH4 0x4E487B71 PUSH1 0xE0 SHL PUSH0 MSTORE PUSH1 0x22 PUSH1 0x4 MSTORE PUSH1 0x24 PUSH0 REVERT JUMPDEST POP SWAP2 SWAP1 POP JUMP JUMPDEST PUSH1 0x1F DUP3 GT ISZERO PUSH2 0x76C JUMPI DUP1 PUSH0 MSTORE PUSH1 0x20 PUSH0 KECCAK256 PUSH1 0x1F DUP5 ADD PUSH1 0x5 SHR DUP2 ADD PUSH1 0x20 DUP6 LT ISZERO PUSH2 0x119F JUMPI POP DUP1 JUMPDEST PUSH1 0x1F DUP5 ADD PUSH1 0x5 SHR DUP3 ADD SWAP2 POP JUMPDEST DUP2 DUP2 LT ISZERO PUSH2 0x9AB JUMPI PUSH0 DUP2 SSTORE PUSH1 0x1 ADD PUSH2 0x11AB JUMP JUMPDEST DUP2 MLOAD PUSH8 0xFFFFFFFFFFFFFFFF DUP2 GT ISZERO PUSH2 0x11D8 JUMPI PUSH2 0x11D8 PUSH2 0x112E JUMP JUMPDEST PUSH2 0x11EC DUP2 PUSH2 0x11E6 DUP5 SLOAD PUSH2 0x1142 JUMP JUMPDEST DUP5 PUSH2 0x117A JUMP JUMPDEST PUSH1 0x20 DUP1 PUSH1 0x1F DUP4 GT PUSH1 0x1 DUP2 EQ PUSH2 0x121F JUMPI PUSH0 DUP5 ISZERO PUSH2 0x1208 JUMPI POP DUP6 DUP4 ADD MLOAD JUMPDEST PUSH0 NOT PUSH1 0x3 DUP7 SWAP1 SHL SHR NOT AND PUSH1 0x1 DUP6 SWAP1 SHL OR DUP6 SSTORE PUSH2 0x1276 JUMP JUMPDEST PUSH0 DUP6 DUP2 MSTORE PUSH1 0x20 DUP2 KECCAK256 PUSH1 0x1F NOT DUP7 AND SWAP2 JUMPDEST DUP3 DUP2 LT ISZERO PUSH2 0x124D JUMPI DUP9 DUP7 ADD MLOAD DUP3 SSTORE SWAP5 DUP5 ADD SWAP5 PUSH1 0x1 SWAP1 SWAP2 ADD SWAP1 DUP5 ADD PUSH2 0x122E JUMP JUMPDEST POP DUP6 DUP3 LT ISZERO PUSH2 0x126A JUMPI DUP8 DUP6 ADD MLOAD PUSH0 NOT PUSH1 0x3 DUP9 SWAP1 SHL PUSH1 0xF8 AND SHR NOT AND DUP2 SSTORE JUMPDEST POP POP PUSH1 0x1 DUP5 PUSH1 0x1 SHL ADD DUP6 SSTORE JUMPDEST POP POP POP POP POP POP JUMP JUMPDEST DUP2 DUP4 MSTORE DUP2 DUP2 PUSH1 0x20 DUP6 ADD CALLDATACOPY POP PUSH0 DUP3 DUP3 ADD PUSH1 0x20 SWAP1 DUP2 ADD SWAP2 SWAP1 SWAP2 MSTORE PUSH1 0x1F SWAP1 SWAP2 ADD PUSH1 0x1F NOT AND SWAP1 SWAP2 ADD ADD SWAP1 JUMP JUMPDEST PUSH1 0x60 DUP2 MSTORE PUSH0 PUSH2 0x12B9 PUSH1 0x60 DUP4 ADD DUP8 DUP10 PUSH2 0x127E JUMP JUMPDEST DUP3 DUP2 SUB PUSH1 0x20 DUP5 ADD MSTORE PUSH2 0x12CC DUP2 DUP7 DUP9 PUSH2 0x127E JUMP JUMPDEST SWAP2 POP POP PUSH8 0xFFFFFFFFFFFFFFFF DUP4 AND PUSH1 0x40 DUP4 ADD MSTORE SWAP7 SWAP6 POP POP POP POP POP POP JUMP JUMPDEST PUSH1 0x40 DUP2 ADD PUSH2 0x12F7 DUP3 DUP6 PUSH2 0xE22 JUMP JUMPDEST DUP3 PUSH1 0x20 DUP4 ADD MSTORE SWAP4 SWAP3 POP POP POP JUMP JUMPDEST PUSH4 0x4E487B71 PUSH1 0xE0 SHL PUSH0 MSTORE PUSH1 0x32 PUSH1 0x4 MSTORE PUSH1 0x24 PUSH0 REVERT JUMPDEST PUSH0 PUSH1 0x20 DUP3 DUP5 SUB SLT ISZERO PUSH2 0x1328 JUMPI PUSH0 DUP1 REVERT JUMPDEST PUSH2 0xDF0 DUP3 PUSH2 0xF92 JUMP INVALID LOG2 PUSH5 0x6970667358 0x22 SLT KECCAK256 0x4D CALLDATACOPY MSIZE 0xAA PC ADDRESS BLOBBASEFEE DIV 0x21 PUSH7 0x6E3B120B442D86 0xCD PUSH8 0x222C0BE01B4EA009 EQ 0xF9 0xCD 0xAD 0xCD PUSH5 0x736F6C6343 STOP ADDMOD XOR STOP CALLER "
	},
	"abi": [
		{
			"inputs": [
				{
					"internalType": "address",
					"name": "admin",
					"type": "address"
				}
			],
			"stateMutability": "nonpayable",
			"type": "constructor"
		},
		{
			"inputs": [],
			"name": "AccessControlBadConfirmation",
			"type": "error"
		},
		{
			"inputs": [
				{
					"internalType": "address",
					"name": "account",
					"type": "address"
				},
				{
					"internalType": "bytes32",
					"name": "neededRole",
					"type": "bytes32"
				}
			],
			"name": "AccessControlUnauthorizedAccount",
			"type": "error"
		},
		{
			"anonymous": false,
			"inputs": [
				{
					"indexed": true,
					"internalType": "bytes32",
					"name": "productId",
					"type": "bytes32"
				},
				{
					"indexed": false,
					"internalType": "string",
					"name": "name",
					"type": "string"
				},
				{
					"indexed": false,
					"internalType": "string",
					"name": "batch",
					"type": "string"
				},
				{
					"indexed": false,
					"internalType": "uint64",
					"name": "mfgDate",
					"type": "uint64"
				}
			],
			"name": "ProductRegistered",
			"type": "event"
		},
		{
			"anonymous": false,
			"inputs": [
				{
					"indexed": true,
					"internalType": "bytes32",
					"name": "role",
					"type": "bytes32"
				},
				{
					"indexed": true,
					"internalType": "bytes32",
					"name": "previousAdminRole",
					"type": "bytes32"
				},
				{
					"indexed": true,
					"internalType": "bytes32",
					"name": "newAdminRole",
					"type": "bytes32"
				}
			],
			"name": "RoleAdminChanged",
			"type": "event"
		},
		{
			"anonymous": false,
			"inputs": [
				{
					"indexed": true,
					"internalType": "bytes32",
					"name": "role",
					"type": "bytes32"
				},
				{
					"indexed": true,
					"internalType": "address",
					"name": "account",
					"type": "address"
				},
				{
					"indexed": true,
					"internalType": "address",
					"name": "sender",
					"type": "address"
				}
			],
			"name": "RoleGranted",
			"type": "event"
		},
		{
			"anonymous": false,
			"inputs": [
				{
					"indexed": true,
					"internalType": "bytes32",
					"name": "role",
					"type": "bytes32"
				},
				{
					"indexed": true,
					"internalType": "address",
					"name": "account",
					"type": "address"
				},
				{
					"indexed": true,
					"internalType": "address",
					"name": "sender",
					"type": "address"
				}
			],
			"name": "RoleRevoked",
			"type": "event"
		},
		{
			"anonymous": false,
			"inputs": [
				{
					"indexed": true,
					"internalType": "bytes32",
					"name": "productId",
					"type": "bytes32"
				},
				{
					"indexed": false,
					"internalType": "enum MilkTrace.Status",
					"name": "newStatus",
					"type": "uint8"
				},
				{
					"indexed": false,
					"internalType": "uint256",
					"name": "timestamp",
					"type": "uint256"
				}
			],
			"name": "TraceUpdated",
			"type": "event"
		},
		{
			"inputs": [],
			"name": "COLLECTOR_ROLE",
			"outputs": [
				{
					"internalType": "bytes32",
					"name": "",
					"type": "bytes32"
				}
			],
			"stateMutability": "view",
			"type": "function"
		},
		{
			"inputs": [],
			"name": "CUSTOMS_ROLE",
			"outputs": [
				{
					"internalType": "bytes32",
					"name": "",
					"type": "bytes32"
				}
			],
			"stateMutability": "view",
			"type": "function"
		},
		{
			"inputs": [],
			"name": "DEFAULT_ADMIN_ROLE",
			"outputs": [
				{
					"internalType": "bytes32",
					"name": "",
					"type": "bytes32"
				}
			],
			"stateMutability": "view",
			"type": "function"
		},
		{
			"inputs": [],
			"name": "MANUFACTURER_ROLE",
			"outputs": [
				{
					"internalType": "bytes32",
					"name": "",
					"type": "bytes32"
				}
			],
			"stateMutability": "view",
			"type": "function"
		},
		{
			"inputs": [],
			"name": "RETAILER_ROLE",
			"outputs": [
				{
					"internalType": "bytes32",
					"name": "",
					"type": "bytes32"
				}
			],
			"stateMutability": "view",
			"type": "function"
		},
		{
			"inputs": [
				{
					"internalType": "bytes32",
					"name": "productId",
					"type": "bytes32"
				}
			],
			"name": "getHistory",
			"outputs": [
				{
					"internalType": "enum MilkTrace.Status[]",
					"name": "",
					"type": "uint8[]"
				},
				{
					"internalType": "uint256[]",
					"name": "",
					"type": "uint256[]"
				}
			],
			"stateMutability": "view",
			"type": "function"
		},
		{
			"inputs": [
				{
					"internalType": "bytes32",
					"name": "productId",
					"type": "bytes32"
				}
			],
			"name": "getProduct",
			"outputs": [
				{
					"components": [
						{
							"internalType": "string",
							"name": "name",
							"type": "string"
						},
						{
							"internalType": "string",
							"name": "batch",
							"type": "string"
						},
						{
							"internalType": "uint64",
							"name": "mfgDate",
							"type": "uint64"
						},
						{
							"internalType": "enum MilkTrace.Status",
							"name": "status",
							"type": "uint8"
						},
						{
							"internalType": "bool",
							"name": "exists",
							"type": "bool"
						}
					],
					"internalType": "struct MilkTrace.Product",
					"name": "",
					"type": "tuple"
				}
			],
			"stateMutability": "view",
			"type": "function"
		},
		{
			"inputs": [
				{
					"internalType": "bytes32",
					"name": "role",
					"type": "bytes32"
				}
			],
			"name": "getRoleAdmin",
			"outputs": [
				{
					"internalType": "bytes32",
					"name": "",
					"type": "bytes32"
				}
			],
			"stateMutability": "view",
			"type": "function"
		},
		{
			"inputs": [
				{
					"internalType": "bytes32",
					"name": "role",
					"type": "bytes32"
				},
				{
					"internalType": "address[]",
					"name": "addrs",
					"type": "address[]"
				}
			],
			"name": "grantMany",
			"outputs": [],
			"stateMutability": "nonpayable",
			"type": "function"
		},
		{
			"inputs": [
				{
					"internalType": "bytes32",
					"name": "role",
					"type": "bytes32"
				},
				{
					"internalType": "address",
					"name": "account",
					"type": "address"
				}
			],
			"name": "grantRole",
			"outputs": [],
			"stateMutability": "nonpayable",
			"type": "function"
		},
		{
			"inputs": [
				{
					"internalType": "bytes32",
					"name": "role",
					"type": "bytes32"
				},
				{
					"internalType": "address",
					"name": "account",
					"type": "address"
				}
			],
			"name": "hasRole",
			"outputs": [
				{
					"internalType": "bool",
					"name": "",
					"type": "bool"
				}
			],
			"stateMutability": "view",
			"type": "function"
		},
		{
			"inputs": [
				{
					"internalType": "bytes32",
					"name": "productId",
					"type": "bytes32"
				},
				{
					"internalType": "string",
					"name": "name",
					"type": "string"
				},
				{
					"internalType": "string",
					"name": "batch",
					"type": "string"
				},
				{
					"internalType": "uint64",
					"name": "mfgDate",
					"type": "uint64"
				}
			],
			"name": "registerProduct",
			"outputs": [],
			"stateMutability": "nonpayable",
			"type": "function"
		},
		{
			"inputs": [
				{
					"internalType": "bytes32",
					"name": "role",
					"type": "bytes32"
				},
				{
					"internalType": "address",
					"name": "callerConfirmation",
					"type": "address"
				}
			],
			"name": "renounceRole",
			"outputs": [],
			"stateMutability": "nonpayable",
			"type": "function"
		},
		{
			"inputs": [
				{
					"internalType": "bytes32",
					"name": "role",
					"type": "bytes32"
				},
				{
					"internalType": "address",
					"name": "account",
					"type": "address"
				}
			],
			"name": "revokeRole",
			"outputs": [],
			"stateMutability": "nonpayable",
			"type": "function"
		},
		{
			"inputs": [
				{
					"internalType": "bytes32",
					"name": "productId",
					"type": "bytes32"
				}
			],
			"name": "setCleared",
			"outputs": [],
			"stateMutability": "nonpayable",
			"type": "function"
		},
		{
			"inputs": [
				{
					"internalType": "bytes32",
					"name": "productId",
					"type": "bytes32"
				}
			],
			"name": "setCollected",
			"outputs": [],
			"stateMutability": "nonpayable",
			"type": "function"
		},
		{
			"inputs": [
				{
					"internalType": "bytes32",
					"name": "productId",
					"type": "bytes32"
				}
			],
			"name": "setRetail",
			"outputs": [],
			"stateMutability": "nonpayable",
			"type": "function"
		},
		{
			"inputs": [
				{
					"internalType": "bytes4",
					"name": "interfaceId",
					"type": "bytes4"
				}
			],
			"name": "supportsInterface",
			"outputs": [
				{
					"internalType": "bool",
					"name": "",
					"type": "bool"
				}
			],
			"stateMutability": "view",
			"type": "function"
		}
	],
	"storageLayout": {
		"storage": [
			{
				"astId": 27,
				"contract": "MilkTrace.sol:MilkTrace",
				"label": "_roles",
				"offset": 0,
				"slot": "0",
				"type": "t_mapping(t_bytes32,t_struct(RoleData)22_storage)"
			},
			{
				"astId": 493,
				"contract": "MilkTrace.sol:MilkTrace",
				"label": "products",
				"offset": 0,
				"slot": "1",
				"type": "t_mapping(t_bytes32,t_struct(Product)488_storage)"
			},
			{
				"astId": 499,
				"contract": "MilkTrace.sol:MilkTrace",
				"label": "statusHistory",
				"offset": 0,
				"slot": "2",
				"type": "t_mapping(t_bytes32,t_array(t_enum(Status)476)dyn_storage)"
			},
			{
				"astId": 504,
				"contract": "MilkTrace.sol:MilkTrace",
				"label": "timeHistory",
				"offset": 0,
				"slot": "3",
				"type": "t_mapping(t_bytes32,t_array(t_uint256)dyn_storage)"
			}
		],
		"types": {
			"t_address": {
				"encoding": "inplace",
				"label": "address",
				"numberOfBytes": "20"
			},
			"t_array(t_enum(Status)476)dyn_storage": {
				"base": "t_enum(Status)476",
				"encoding": "dynamic_array",
				"label": "enum MilkTrace.Status[]",
				"numberOfBytes": "32"
			},
			"t_array(t_uint256)dyn_storage": {
				"base": "t_uint256",
				"encoding": "dynamic_array",
				"label": "uint256[]",
				"numberOfBytes": "32"
			},
			"t_bool": {
				"encoding": "inplace",
				"label": "bool",
				"numberOfBytes": "1"
			},
			"t_bytes32": {
				"encoding": "inplace",
				"label": "bytes32",
				"numberOfBytes": "32"
			},
			"t_enum(Status)476": {
				"encoding": "inplace",
				"label": "enum MilkTrace.Status",
				"numberOfBytes": "1"
			},
			"t_mapping(t_address,t_bool)": {
				"encoding": "mapping",
				"key": "t_address",
				"label": "mapping(address => bool)",
				"numberOfBytes": "32",
				"value": "t_bool"
			},
			"t_mapping(t_bytes32,t_array(t_enum(Status)476)dyn_storage)": {
				"encoding": "mapping",
				"key": "t_bytes32",
				"label": "mapping(bytes32 => enum MilkTrace.Status[])",
				"numberOfBytes": "32",
				"value": "t_array(t_enum(Status)476)dyn_storage"
			},
			"t_mapping(t_bytes32,t_array(t_uint256)dyn_storage)": {
				"encoding": "mapping",
				"key": "t_bytes32",
				"label": "mapping(bytes32 => uint256[])",
				"numberOfBytes": "32",
				"value": "t_array(t_uint256)dyn_storage"
			},
			"t_mapping(t_bytes32,t_struct(Product)488_storage)": {
				"encoding": "mapping",
				"key": "t_bytes32",
				"label": "mapping(bytes32 => struct MilkTrace.Product)",
				"numberOfBytes": "32",
				"value": "t_struct(Product)488_storage"
			},
			"t_mapping(t_bytes32,t_struct(RoleData)22_storage)": {
				"encoding": "mapping",
				"key": "t_bytes32",
				"label": "mapping(bytes32 => struct AccessControl.RoleData)",
				"numberOfBytes": "32",
				"value": "t_struct(RoleData)22_storage"
			},
			"t_string_storage": {
				"encoding": "bytes",
				"label": "string",
				"numberOfBytes": "32"
			},
			"t_struct(Product)488_storage": {
				"encoding": "inplace",
				"label": "struct MilkTrace.Product",
				"members": [
					{
						"astId": 478,
						"contract": "MilkTrace.sol:MilkTrace",
						"label": "name",
						"offset": 0,
						"slot": "0",
						"type": "t_string_storage"
					},
					{
						"astId": 480,
						"contract": "MilkTrace.sol:MilkTrace",
						"label": "batch",
						"offset": 0,
						"slot": "1",
						"type": "t_string_storage"
					},
					{
						"astId": 482,
						"contract": "MilkTrace.sol:MilkTrace",
						"label": "mfgDate",
						"offset": 0,
						"slot": "2",
						"type": "t_uint64"
					},
					{
						"astId": 485,
						"contract": "MilkTrace.sol:MilkTrace",
						"label": "status",
						"offset": 8,
						"slot": "2",
						"type": "t_enum(Status)476"
					},
					{
						"astId": 487,
						"contract": "MilkTrace.sol:MilkTrace",
						"label": "exists",
						"offset": 9,
						"slot": "2",
						"type": "t_bool"
					}
				],
				"numberOfBytes": "96"
			},
			"t_struct(RoleData)22_storage": {
				"encoding": "inplace",
				"label": "struct AccessControl.RoleData",
				"members": [
					{
						"astId": 19,
						"contract": "MilkTrace.sol:MilkTrace",
						"label": "hasRole",
						"offset": 0,
						"slot": "0",
						"type": "t_mapping(t_address,t_bool)"
					},
					{
						"astId": 21,
						"contract": "MilkTrace.sol:MilkTrace",
						"label": "adminRole",
						"offset": 0,
						"slot": "1",
						"type": "t_bytes32"
					}
				],
				"numberOfBytes": "64"
			},
			"t_uint256": {
				"encoding": "inplace",
				"label": "uint256",
				"numberOfBytes": "32"
			},
			"t_uint64": {
				"encoding": "inplace",
				"label": "uint64",
				"numberOfBytes": "8"
			}
		}
	},
	"web3Deploy": "var admin = /* var of type address here */ ;\nvar milktraceContract = new web3.eth.Contract([{\"inputs\":[{\"internalType\":\"address\",\"name\":\"admin\",\"type\":\"address\"}],\"stateMutability\":\"nonpayable\",\"type\":\"constructor\"},{\"inputs\":[],\"name\":\"AccessControlBadConfirmation\",\"type\":\"error\"},{\"inputs\":[{\"internalType\":\"address\",\"name\":\"account\",\"type\":\"address\"},{\"internalType\":\"bytes32\",\"name\":\"neededRole\",\"type\":\"bytes32\"}],\"name\":\"AccessControlUnauthorizedAccount\",\"type\":\"error\"},{\"anonymous\":false,\"inputs\":[{\"indexed\":true,\"internalType\":\"bytes32\",\"name\":\"productId\",\"type\":\"bytes32\"},{\"indexed\":false,\"internalType\":\"string\",\"name\":\"name\",\"type\":\"string\"},{\"indexed\":false,\"internalType\":\"string\",\"name\":\"batch\",\"type\":\"string\"},{\"indexed\":false,\"internalType\":\"uint64\",\"name\":\"mfgDate\",\"type\":\"uint64\"}],\"name\":\"ProductRegistered\",\"type\":\"event\"},{\"anonymous\":false,\"inputs\":[{\"indexed\":true,\"internalType\":\"bytes32\",\"name\":\"role\",\"type\":\"bytes32\"},{\"indexed\":true,\"internalType\":\"bytes32\",\"name\":\"previousAdminRole\",\"type\":\"bytes32\"},{\"indexed\":true,\"internalType\":\"bytes32\",\"name\":\"newAdminRole\",\"type\":\"bytes32\"}],\"name\":\"RoleAdminChanged\",\"type\":\"event\"},{\"anonymous\":false,\"inputs\":[{\"indexed\":true,\"internalType\":\"bytes32\",\"name\":\"role\",\"type\":\"bytes32\"},{\"indexed\":true,\"internalType\":\"address\",\"name\":\"account\",\"type\":\"address\"},{\"indexed\":true,\"internalType\":\"address\",\"name\":\"sender\",\"type\":\"address\"}],\"name\":\"RoleGranted\",\"type\":\"event\"},{\"anonymous\":false,\"inputs\":[{\"indexed\":true,\"internalType\":\"bytes32\",\"name\":\"role\",\"type\":\"bytes32\"},{\"indexed\":true,\"internalType\":\"address\",\"name\":\"account\",\"type\":\"address\"},{\"indexed\":true,\"internalType\":\"address\",\"name\":\"sender\",\"type\":\"address\"}],\"name\":\"RoleRevoked\",\"type\":\"event\"},{\"anonymous\":false,\"inputs\":[{\"indexed\":true,\"internalType\":\"bytes32\",\"name\":\"productId\",\"type\":\"bytes32\"},{\"indexed\":false,\"internalType\":\"enum MilkTrace.Status\",\"name\":\"newStatus\",\"type\":\"uint8\"},{\"indexed\":false,\"internalType\":\"uint256\",\"name\":\"timestamp\",\"type\":\"uint256\"}],\"name\":\"TraceUpdated\",\"type\":\"event\"},{\"inputs\":[],\"name\":\"COLLECTOR_ROLE\",\"outputs\":[{\"internalType\":\"bytes32\",\"name\":\"\",\"type\":\"bytes32\"}],\"stateMutability\":\"view\",\"type\":\"function\"},{\"inputs\":[],\"name\":\"CUSTOMS_ROLE\",\"outputs\":[{\"internalType\":\"bytes32\",\"name\":\"\",\"type\":\"bytes32\"}],\"stateMutability\":\"view\",\"type\":\"function\"},{\"inputs\":[],\"name\":\"DEFAULT_ADMIN_ROLE\",\"outputs\":[{\"internalType\":\"bytes32\",\"name\":\"\",\"type\":\"bytes32\"}],\"stateMutability\":\"view\",\"type\":\"function\"},{\"inputs\":[],\"name\":\"MANUFACTURER_ROLE\",\"outputs\":[{\"internalType\":\"bytes32\",\"name\":\"\",\"type\":\"bytes32\"}],\"stateMutability\":\"view\",\"type\":\"function\"},{\"inputs\":[],\"name\":\"RETAILER_ROLE\",\"outputs\":[{\"internalType\":\"bytes32\",\"name\":\"\",\"type\":\"bytes32\"}],\"stateMutability\":\"view\",\"type\":\"function\"},{\"inputs\":[{\"internalType\":\"bytes32\",\"name\":\"productId\",\"type\":\"bytes32\"}],\"name\":\"getHistory\",\"outputs\":[{\"internalType\":\"enum MilkTrace.Status[]\",\"name\":\"\",\"type\":\"uint8[]\"},{\"internalType\":\"uint256[]\",\"name\":\"\",\"type\":\"uint256[]\"}],\"stateMutability\":\"view\",\"type\":\"function\"},{\"inputs\":[{\"internalType\":\"bytes32\",\"name\":\"productId\",\"type\":\"bytes32\"}],\"name\":\"getProduct\",\"outputs\":[{\"components\":[{\"internalType\":\"string\",\"name\":\"name\",\"type\":\"string\"},{\"internalType\":\"string\",\"name\":\"batch\",\"type\":\"string\"},{\"internalType\":\"uint64\",\"name\":\"mfgDate\",\"type\":\"uint64\"},{\"internalType\":\"enum MilkTrace.Status\",\"name\":\"status\",\"type\":\"uint8\"},{\"internalType\":\"bool\",\"name\":\"exists\",\"type\":\"bool\"}],\"internalType\":\"struct MilkTrace.Product\",\"name\":\"\",\"type\":\"tuple\"}],\"stateMutability\":\"view\",\"type\":\"function\"},{\"inputs\":[{\"internalType\":\"bytes32\",\"name\":\"role\",\"type\":\"bytes32\"}],\"name\":\"getRoleAdmin\",\"outputs\":[{\"internalType\":\"bytes32\",\"name\":\"\",\"type\":\"bytes32\"}],\"stateMutability\":\"view\",\"type\":\"function\"},{\"inputs\":[{\"internalType\":\"bytes32\",\"name\":\"role\",\"type\":\"bytes32\"},{\"internalType\":\"address[]\",\"name\":\"addrs\",\"type\":\"address[]\"}],\"name\":\"grantMany\",\"outputs\":[],\"stateMutability\":\"nonpayable\",\"type\":\"function\"},{\"inputs\":[{\"internalType\":\"bytes32\",\"name\":\"role\",\"type\":\"bytes32\"},{\"internalType\":\"address\",\"name\":\"account\",\"type\":\"address\"}],\"name\":\"grantRole\",\"outputs\":[],\"stateMutability\":\"nonpayable\",\"type\":\"function\"},{\"inputs\":[{\"internalType\":\"bytes32\",\"name\":\"role\",\"type\":\"bytes32\"},{\"internalType\":\"address\",\"name\":\"account\",\"type\":\"address\"}],\"name\":\"hasRole\",\"outputs\":[{\"internalType\":\"bool\",\"name\":\"\",\"type\":\"bool\"}],\"stateMutability\":\"view\",\"type\":\"function\"},{\"inputs\":[{\"internalType\":\"bytes32\",\"name\":\"productId\",\"type\":\"bytes32\"},{\"internalType\":\"string\",\"name\":\"name\",\"type\":\"string\"},{\"internalType\":\"string\",\"name\":\"batch\",\"type\":\"string\"},{\"internalType\":\"uint64\",\"name\":\"mfgDate\",\"type\":\"uint64\"}],\"name\":\"registerProduct\",\"outputs\":[],\"stateMutability\":\"nonpayable\",\"type\":\"function\"},{\"inputs\":[{\"internalType\":\"bytes32\",\"name\":\"role\",\"type\":\"bytes32\"},{\"internalType\":\"address\",\"name\":\"callerConfirmation\",\"type\":\"address\"}],\"name\":\"renounceRole\",\"outputs\":[],\"stateMutability\":\"nonpayable\",\"type\":\"function\"},{\"inputs\":[{\"internalType\":\"bytes32\",\"name\":\"role\",\"type\":\"bytes32\"},{\"internalType\":\"address\",\"name\":\"account\",\"type\":\"address\"}],\"name\":\"revokeRole\",\"outputs\":[],\"stateMutability\":\"nonpayable\",\"type\":\"function\"},{\"inputs\":[{\"internalType\":\"bytes32\",\"name\":\"productId\",\"type\":\"bytes32\"}],\"name\":\"setCleared\",\"outputs\":[],\"stateMutability\":\"nonpayable\",\"type\":\"function\"},{\"inputs\":[{\"internalType\":\"bytes32\",\"name\":\"productId\",\"type\":\"bytes32\"}],\"name\":\"setCollected\",\"outputs\":[],\"stateMutability\":\"nonpayable\",\"type\":\"function\"},{\"inputs\":[{\"internalType\":\"bytes32\",\"name\":\"productId\",\"type\":\"bytes32\"}],\"name\":\"setRetail\",\"outputs\":[],\"stateMutability\":\"nonpayable\",\"type\":\"function\"},{\"inputs\":[{\"internalType\":\"bytes4\",\"name\":\"interfaceId\",\"type\":\"bytes4\"}],\"name\":\"supportsInterface\",\"outputs\":[{\"internalType\":\"bool\",\"name\":\"\",\"type\":\"bool\"}],\"stateMutability\":\"view\",\"type\":\"function\"}]);\nvar milktrace = milktraceContract.deploy({\n     data: '0x608060405234801561000f575f80fd5b5060405161148938038061148983398101604081905261002e916100e8565b6100385f8261003f565b5050610115565b5f828152602081815260408083206001600160a01b038516845290915281205460ff166100df575f838152602081815260408083206001600160a01b03861684529091529020805460ff191660011790556100973390565b6001600160a01b0316826001600160a01b0316847f2f8788117e7eff1d82e926ec794901d17c78024a50270940304540a733656f0d60405160405180910390a45060016100e2565b505f5b92915050565b5f602082840312156100f8575f80fd5b81516001600160a01b038116811461010e575f80fd5b9392505050565b611367806101225f395ff3fe608060405234801561000f575f80fd5b5060043610610111575f3560e01c80637c66ac851161009e578063a217fddf1161006e578063a217fddf14610297578063b2dcb90c1461029e578063d547741f146102b1578063dc04d247146102c4578063ef9c6271146102eb575f80fd5b80637c66ac851461022357806391d1485414610236578063965288b0146102495780639ca39ae914610270575f80fd5b8063248a9ca3116100e4578063248a9ca3146101a85780632f2ff15d146101ca57806336568abe146101dd5780633a20e9df146101f057806353e6a52214610210575f80fd5b806301ffc9a714610115578063115d620d1461013d578063173a25b21461015e5780632115e7bf14610173575b5f80fd5b610128610123366004610dc9565b6102fe565b60405190151581526020015b60405180910390f35b61015061014b366004610df7565b610334565b604051610134929190610e42565b61017161016c366004610f07565b610463565b005b61019a7f2a5f906c256a5d799494fcd066e1f6c077689de1cdb65052a1624de4bace99bf81565b604051908152602001610134565b61019a6101b6366004610df7565b5f9081526020819052604090206001015490565b6101716101d8366004610fad565b61070f565b6101716101eb366004610fad565b610739565b6102036101fe366004610df7565b610771565b604051610134919061101a565b61017161021e366004611092565b61094e565b610171610231366004610df7565b6109b2565b610128610244366004610fad565b6109ed565b61019a7feefb95e842a3287179d933b4460be539a1d5af11aa8b325bb45c5c8dc92de4ed81565b61019a7f14cf45180c3fcf249a5a305e9657ea05c14fd4f4e1800ee0216a8213091711d281565b61019a5f81565b6101716102ac366004610df7565b610a15565b6101716102bf366004610fad565b610a4c565b61019a7f545cd3008e8205610ec65c7ca17f448815c2ab7eaad3609fe9d3a0aed335653681565b6101716102f9366004610df7565b610a70565b5f6001600160e01b03198216637965db0b60e01b148061032e57506301ffc9a760e01b6001600160e01b03198316145b92915050565b5f818152600160205260409020600201546060908190600160481b900460ff166103795760405162461bcd60e51b81526004016103709061110a565b60405180910390fd5b5f83815260026020908152604080832060038352928190208354825181850281018501909352808352909284919083018282801561040357602002820191905f5260205f20905f905b82829054906101000a900460ff1660048111156103e1576103e1610e0e565b8152602060019283018181049485019490930390920291018084116103c25790505b505050505091508080548060200260200160405190810160405280929190818152602001828054801561045357602002820191905f5260205f20905b81548152602001906001019080831161043f575b5050505050905091509150915091565b7feefb95e842a3287179d933b4460be539a1d5af11aa8b325bb45c5c8dc92de4ed61048d81610aa7565b5f87815260016020526040902060020154600160481b900460ff16156104e65760405162461bcd60e51b815260206004820152600e60248201526d416c72656164792065786973747360901b6044820152606401610370565b6040518060a0016040528087878080601f0160208091040260200160405190810160405280939291908181526020018383808284375f92019190915250505090825250604080516020601f8801819004810282018101909252868152918101919087908790819084018382808284375f9201919091525050509082525067ffffffffffffffff8416602082015260400160018152600160209182018190525f8a81529152604090208151819061059c90826111be565b50602082015160018201906105b190826111be565b50604082015160028201805467ffffffffffffffff90921667ffffffffffffffff1983168117825560608501519268ffffffffffffffffff191617600160401b83600481111561060357610603610e0e565b0217905550608091909101516002918201805469ff0000000000000000001916600160481b921515929092029190911790555f8881526020918252604080822080546001818101835591845284842085820401805460ff601f9093166101000a928302191690911790558a83526003845281832080549182018155835292909120429201919091555187907fed037748ee9548d24f616fe577e1ac2e4aaffee46e8a16c4280b3a820cbfeb54906106c390899089908990899089906112a6565b60405180910390a2867fca73b838fb308ed0de2f1d63ee69e1af3c7d64a31b00067689cbbe94d50c86d46001426040516106fe9291906112e9565b60405180910390a250505050505050565b5f8281526020819052604090206001015461072981610aa7565b6107338383610ab4565b50505050565b6001600160a01b03811633146107625760405163334bd91960e11b815260040160405180910390fd5b61076c8282610b43565b505050565b610779610d82565b5f82815260016020526040902060020154600160481b900460ff166107b05760405162461bcd60e51b81526004016103709061110a565b5f8281526001602052604090819020815160a081019092528054829082906107d790611142565b80601f016020809104026020016040519081016040528092919081815260200182805461080390611142565b801561084e5780601f106108255761010080835404028352916020019161084e565b820191905f5260205f20905b81548152906001019060200180831161083157829003601f168201915b5050505050815260200160018201805461086790611142565b80601f016020809104026020016040519081016040528092919081815260200182805461089390611142565b80156108de5780601f106108b5576101008083540402835291602001916108de565b820191905f5260205f20905b8154815290600101906020018083116108c157829003601f168201915b5050509183525050600282015467ffffffffffffffff81166020830152604090910190600160401b900460ff16600481111561091c5761091c610e0e565b600481111561092d5761092d610e0e565b815260029190910154600160481b900460ff16151560209091015292915050565b5f8381526020819052604090206001015461096881610aa7565b5f5b828110156109ab576109a28585858481811061098857610988611304565b905060200201602081019061099d9190611318565b610ab4565b5060010161096a565b5050505050565b7f2a5f906c256a5d799494fcd066e1f6c077689de1cdb65052a1624de4bace99bf6109dc81610aa7565b6109e98260046003610bac565b5050565b5f918252602082815260408084206001600160a01b0393909316845291905290205460ff1690565b7f14cf45180c3fcf249a5a305e9657ea05c14fd4f4e1800ee0216a8213091711d2610a3f81610aa7565b6109e98260026001610bac565b5f82815260208190526040902060010154610a6681610aa7565b6107338383610b43565b7f545cd3008e8205610ec65c7ca17f448815c2ab7eaad3609fe9d3a0aed3356536610a9a81610aa7565b6109e98260036002610bac565b610ab18133610d49565b50565b5f610abf83836109ed565b610b3c575f838152602081815260408083206001600160a01b03861684529091529020805460ff19166001179055610af43390565b6001600160a01b0316826001600160a01b0316847f2f8788117e7eff1d82e926ec794901d17c78024a50270940304540a733656f0d60405160405180910390a450600161032e565b505f61032e565b5f610b4e83836109ed565b15610b3c575f838152602081815260408083206001600160a01b0386168085529252808320805460ff1916905551339286917ff6391f5c32d9c69d2a47ea670b442974b53935d1edc7fd64eb21e047a839171b9190a450600161032e565b5f83815260016020526040902060020154600160481b900460ff16610be35760405162461bcd60e51b81526004016103709061110a565b806004811115610bf557610bf5610e0e565b5f84815260016020526040902060020154600160401b900460ff166004811115610c2157610c21610e0e565b14610c5c5760405162461bcd60e51b815260206004820152600b60248201526a2bb937b7339037b93232b960a91b6044820152606401610370565b5f838152600160205260409020600201805483919068ff00000000000000001916600160401b836004811115610c9457610c94610e0e565b02179055505f83815260026020908152604082208054600181018255908352918190209082040180548492601f166101000a60ff81021990911690836004811115610ce157610ce1610e0e565b02179055505f838152600360209081526040808320805460018101825590845291909220429101819055905184917fca73b838fb308ed0de2f1d63ee69e1af3c7d64a31b00067689cbbe94d50c86d491610d3c9186916112e9565b60405180910390a2505050565b610d5382826109ed565b6109e95760405163e2517d3f60e01b81526001600160a01b038216600482015260248101839052604401610370565b6040518060a0016040528060608152602001606081526020015f67ffffffffffffffff1681526020015f6004811115610dbd57610dbd610e0e565b81525f60209091015290565b5f60208284031215610dd9575f80fd5b81356001600160e01b031981168114610df0575f80fd5b9392505050565b5f60208284031215610e07575f80fd5b5035919050565b634e487b7160e01b5f52602160045260245ffd5b60058110610e3e57634e487b7160e01b5f52602160045260245ffd5b9052565b604080825283519082018190525f906020906060840190828701845b82811015610e8157610e71848351610e22565b9284019290840190600101610e5e565b505050838103828501528451808252858301918301905f5b81811015610eb557835183529284019291840191600101610e99565b5090979650505050505050565b5f8083601f840112610ed2575f80fd5b50813567ffffffffffffffff811115610ee9575f80fd5b602083019150836020828501011115610f00575f80fd5b9250929050565b5f805f805f8060808789031215610f1c575f80fd5b86359550602087013567ffffffffffffffff80821115610f3a575f80fd5b610f468a838b01610ec2565b90975095506040890135915080821115610f5e575f80fd5b610f6a8a838b01610ec2565b9095509350606089013591508082168214610f83575f80fd5b50809150509295509295509295565b80356001600160a01b0381168114610fa8575f80fd5b919050565b5f8060408385031215610fbe575f80fd5b82359150610fce60208401610f92565b90509250929050565b5f81518084525f5b81811015610ffb57602081850181015186830182015201610fdf565b505f602082860101526020601f19601f83011685010191505092915050565b602081525f825160a0602084015261103560c0840182610fd7565b90506020840151601f198483030160408501526110528282610fd7565b91505067ffffffffffffffff6040850151166060840152606084015161107b6080850182610e22565b506080840151151560a08401528091505092915050565b5f805f604084860312156110a4575f80fd5b83359250602084013567ffffffffffffffff808211156110c2575f80fd5b818601915086601f8301126110d5575f80fd5b8135818111156110e3575f80fd5b8760208260051b85010111156110f7575f80fd5b6020830194508093505050509250925092565b6020808252600a9082015269139bc81c1c9bd91d58dd60b21b604082015260600190565b634e487b7160e01b5f52604160045260245ffd5b600181811c9082168061115657607f821691505b60208210810361117457634e487b7160e01b5f52602260045260245ffd5b50919050565b601f82111561076c57805f5260205f20601f840160051c8101602085101561119f5750805b601f840160051c820191505b818110156109ab575f81556001016111ab565b815167ffffffffffffffff8111156111d8576111d861112e565b6111ec816111e68454611142565b8461117a565b602080601f83116001811461121f575f84156112085750858301515b5f19600386901b1c1916600185901b178555611276565b5f85815260208120601f198616915b8281101561124d5788860151825594840194600190910190840161122e565b508582101561126a57878501515f19600388901b60f8161c191681555b505060018460011b0185555b505050505050565b81835281816020850137505f828201602090810191909152601f909101601f19169091010190565b606081525f6112b960608301878961127e565b82810360208401526112cc81868861127e565b91505067ffffffffffffffff831660408301529695505050505050565b604081016112f78285610e22565b8260208301529392505050565b634e487b7160e01b5f52603260045260245ffd5b5f60208284031215611328575f80fd5b610df082610f9256fea26469706673582212204d3759aa58304a0421666e3b120b442d86cd67222c0be01b4ea00914f9cdadcd64736f6c63430008180033', \n     arguments: [\n          admin,\n     ]\n}).send({\n     from: web3.eth.accounts[0], \n     gas: '4700000'\n   }, function (e, contract){\n    console.log(e, contract);\n    if (typeof contract.address !== 'undefined') {\n         console.log('Contract mined! address: ' + contract.address + ' transactionHash: ' + contract.transactionHash);\n    }\n })",
	"functionHashes": {
		"9ca39ae9": "COLLECTOR_ROLE()",
		"dc04d247": "CUSTOMS_ROLE()",
		"a217fddf": "DEFAULT_ADMIN_ROLE()",
		"965288b0": "MANUFACTURER_ROLE()",
		"2115e7bf": "RETAILER_ROLE()",
		"115d620d": "getHistory(bytes32)",
		"3a20e9df": "getProduct(bytes32)",
		"248a9ca3": "getRoleAdmin(bytes32)",
		"53e6a522": "grantMany(bytes32,address[])",
		"2f2ff15d": "grantRole(bytes32,address)",
		"91d14854": "hasRole(bytes32,address)",
		"173a25b2": "registerProduct(bytes32,string,string,uint64)",
		"36568abe": "renounceRole(bytes32,address)",
		"d547741f": "revokeRole(bytes32,address)",
		"ef9c6271": "setCleared(bytes32)",
		"b2dcb90c": "setCollected(bytes32)",
		"7c66ac85": "setRetail(bytes32)",
		"01ffc9a7": "supportsInterface(bytes4)"
	},
	"gasEstimates": {
		"Creation": {
			"codeDepositCost": "993400",
			"executionCost": "infinite",
			"totalCost": "infinite"
		},
		"External": {
			"COLLECTOR_ROLE()": "283",
			"CUSTOMS_ROLE()": "282",
			"DEFAULT_ADMIN_ROLE()": "215",
			"MANUFACTURER_ROLE()": "261",
			"RETAILER_ROLE()": "284",
			"getHistory(bytes32)": "infinite",
			"getProduct(bytes32)": "infinite",
			"getRoleAdmin(bytes32)": "2467",
			"grantMany(bytes32,address[])": "infinite",
			"grantRole(bytes32,address)": "infinite",
			"hasRole(bytes32,address)": "2693",
			"registerProduct(bytes32,string,string,uint64)": "infinite",
			"renounceRole(bytes32,address)": "29085",
			"revokeRole(bytes32,address)": "infinite",
			"setCleared(bytes32)": "infinite",
			"setCollected(bytes32)": "infinite",
			"setRetail(bytes32)": "infinite",
			"supportsInterface(bytes4)": "447"
		},
		"Internal": {
			"_advance(bytes32,enum MilkTrace.Status,enum MilkTrace.Status)": "infinite"
		}
	},
	"devdoc": {
		"errors": {
			"AccessControlBadConfirmation()": [
				{
					"details": "The caller of a function is not the expected one. NOTE: Don't confuse with {AccessControlUnauthorizedAccount}."
				}
			],
			"AccessControlUnauthorizedAccount(address,bytes32)": [
				{
					"details": "The `account` is missing a role."
				}
			]
		},
		"events": {
			"RoleAdminChanged(bytes32,bytes32,bytes32)": {
				"details": "Emitted when `newAdminRole` is set as ``role``'s admin role, replacing `previousAdminRole` `DEFAULT_ADMIN_ROLE` is the starting admin for all roles, despite {RoleAdminChanged} not being emitted to signal this."
			},
			"RoleGranted(bytes32,address,address)": {
				"details": "Emitted when `account` is granted `role`. `sender` is the account that originated the contract call. This account bears the admin role (for the granted role). Expected in cases where the role was granted using the internal {AccessControl-_grantRole}."
			},
			"RoleRevoked(bytes32,address,address)": {
				"details": "Emitted when `account` is revoked `role`. `sender` is the account that originated the contract call:   - if using `revokeRole`, it is the admin role bearer   - if using `renounceRole`, it is the role bearer (i.e. `account`)"
			}
		},
		"kind": "dev",
		"methods": {
			"getRoleAdmin(bytes32)": {
				"details": "Returns the admin role that controls `role`. See {grantRole} and {revokeRole}. To change a role's admin, use {_setRoleAdmin}."
			},
			"grantRole(bytes32,address)": {
				"details": "Grants `role` to `account`. If `account` had not been already granted `role`, emits a {RoleGranted} event. Requirements: - the caller must have ``role``'s admin role. May emit a {RoleGranted} event."
			},
			"hasRole(bytes32,address)": {
				"details": "Returns `true` if `account` has been granted `role`."
			},
			"renounceRole(bytes32,address)": {
				"details": "Revokes `role` from the calling account. Roles are often managed via {grantRole} and {revokeRole}: this function's purpose is to provide a mechanism for accounts to lose their privileges if they are compromised (such as when a trusted device is misplaced). If the calling account had been revoked `role`, emits a {RoleRevoked} event. Requirements: - the caller must be `callerConfirmation`. May emit a {RoleRevoked} event."
			},
			"revokeRole(bytes32,address)": {
				"details": "Revokes `role` from `account`. If `account` had been granted `role`, emits a {RoleRevoked} event. Requirements: - the caller must have ``role``'s admin role. May emit a {RoleRevoked} event."
			},
			"supportsInterface(bytes4)": {
				"details": "Returns true if this contract implements the interface defined by `interfaceId`. See the corresponding https://eips.ethereum.org/EIPS/eip-165#how-interfaces-are-identified[ERC section] to learn more about how these ids are created. This function call must use less than 30 000 gas."
			}
		},
		"version": 1
	},
	"userdoc": {
		"kind": "user",
		"methods": {},
		"version": 1
	},
	"Runtime Bytecode": {
		"immutableReferences": {},
		"linkReferences": {},
		"object": "608060405234801561000f575f80fd5b5060043610610111575f3560e01c80637c66ac851161009e578063a217fddf1161006e578063a217fddf14610297578063b2dcb90c1461029e578063d547741f146102b1578063dc04d247146102c4578063ef9c6271146102eb575f80fd5b80637c66ac851461022357806391d1485414610236578063965288b0146102495780639ca39ae914610270575f80fd5b8063248a9ca3116100e4578063248a9ca3146101a85780632f2ff15d146101ca57806336568abe146101dd5780633a20e9df146101f057806353e6a52214610210575f80fd5b806301ffc9a714610115578063115d620d1461013d578063173a25b21461015e5780632115e7bf14610173575b5f80fd5b610128610123366004610dc9565b6102fe565b60405190151581526020015b60405180910390f35b61015061014b366004610df7565b610334565b604051610134929190610e42565b61017161016c366004610f07565b610463565b005b61019a7f2a5f906c256a5d799494fcd066e1f6c077689de1cdb65052a1624de4bace99bf81565b604051908152602001610134565b61019a6101b6366004610df7565b5f9081526020819052604090206001015490565b6101716101d8366004610fad565b61070f565b6101716101eb366004610fad565b610739565b6102036101fe366004610df7565b610771565b604051610134919061101a565b61017161021e366004611092565b61094e565b610171610231366004610df7565b6109b2565b610128610244366004610fad565b6109ed565b61019a7feefb95e842a3287179d933b4460be539a1d5af11aa8b325bb45c5c8dc92de4ed81565b61019a7f14cf45180c3fcf249a5a305e9657ea05c14fd4f4e1800ee0216a8213091711d281565b61019a5f81565b6101716102ac366004610df7565b610a15565b6101716102bf366004610fad565b610a4c565b61019a7f545cd3008e8205610ec65c7ca17f448815c2ab7eaad3609fe9d3a0aed335653681565b6101716102f9366004610df7565b610a70565b5f6001600160e01b03198216637965db0b60e01b148061032e57506301ffc9a760e01b6001600160e01b03198316145b92915050565b5f818152600160205260409020600201546060908190600160481b900460ff166103795760405162461bcd60e51b81526004016103709061110a565b60405180910390fd5b5f83815260026020908152604080832060038352928190208354825181850281018501909352808352909284919083018282801561040357602002820191905f5260205f20905f905b82829054906101000a900460ff1660048111156103e1576103e1610e0e565b8152602060019283018181049485019490930390920291018084116103c25790505b505050505091508080548060200260200160405190810160405280929190818152602001828054801561045357602002820191905f5260205f20905b81548152602001906001019080831161043f575b5050505050905091509150915091565b7feefb95e842a3287179d933b4460be539a1d5af11aa8b325bb45c5c8dc92de4ed61048d81610aa7565b5f87815260016020526040902060020154600160481b900460ff16156104e65760405162461bcd60e51b815260206004820152600e60248201526d416c72656164792065786973747360901b6044820152606401610370565b6040518060a0016040528087878080601f0160208091040260200160405190810160405280939291908181526020018383808284375f92019190915250505090825250604080516020601f8801819004810282018101909252868152918101919087908790819084018382808284375f9201919091525050509082525067ffffffffffffffff8416602082015260400160018152600160209182018190525f8a81529152604090208151819061059c90826111be565b50602082015160018201906105b190826111be565b50604082015160028201805467ffffffffffffffff90921667ffffffffffffffff1983168117825560608501519268ffffffffffffffffff191617600160401b83600481111561060357610603610e0e565b0217905550608091909101516002918201805469ff0000000000000000001916600160481b921515929092029190911790555f8881526020918252604080822080546001818101835591845284842085820401805460ff601f9093166101000a928302191690911790558a83526003845281832080549182018155835292909120429201919091555187907fed037748ee9548d24f616fe577e1ac2e4aaffee46e8a16c4280b3a820cbfeb54906106c390899089908990899089906112a6565b60405180910390a2867fca73b838fb308ed0de2f1d63ee69e1af3c7d64a31b00067689cbbe94d50c86d46001426040516106fe9291906112e9565b60405180910390a250505050505050565b5f8281526020819052604090206001015461072981610aa7565b6107338383610ab4565b50505050565b6001600160a01b03811633146107625760405163334bd91960e11b815260040160405180910390fd5b61076c8282610b43565b505050565b610779610d82565b5f82815260016020526040902060020154600160481b900460ff166107b05760405162461bcd60e51b81526004016103709061110a565b5f8281526001602052604090819020815160a081019092528054829082906107d790611142565b80601f016020809104026020016040519081016040528092919081815260200182805461080390611142565b801561084e5780601f106108255761010080835404028352916020019161084e565b820191905f5260205f20905b81548152906001019060200180831161083157829003601f168201915b5050505050815260200160018201805461086790611142565b80601f016020809104026020016040519081016040528092919081815260200182805461089390611142565b80156108de5780601f106108b5576101008083540402835291602001916108de565b820191905f5260205f20905b8154815290600101906020018083116108c157829003601f168201915b5050509183525050600282015467ffffffffffffffff81166020830152604090910190600160401b900460ff16600481111561091c5761091c610e0e565b600481111561092d5761092d610e0e565b815260029190910154600160481b900460ff16151560209091015292915050565b5f8381526020819052604090206001015461096881610aa7565b5f5b828110156109ab576109a28585858481811061098857610988611304565b905060200201602081019061099d9190611318565b610ab4565b5060010161096a565b5050505050565b7f2a5f906c256a5d799494fcd066e1f6c077689de1cdb65052a1624de4bace99bf6109dc81610aa7565b6109e98260046003610bac565b5050565b5f918252602082815260408084206001600160a01b0393909316845291905290205460ff1690565b7f14cf45180c3fcf249a5a305e9657ea05c14fd4f4e1800ee0216a8213091711d2610a3f81610aa7565b6109e98260026001610bac565b5f82815260208190526040902060010154610a6681610aa7565b6107338383610b43565b7f545cd3008e8205610ec65c7ca17f448815c2ab7eaad3609fe9d3a0aed3356536610a9a81610aa7565b6109e98260036002610bac565b610ab18133610d49565b50565b5f610abf83836109ed565b610b3c575f838152602081815260408083206001600160a01b03861684529091529020805460ff19166001179055610af43390565b6001600160a01b0316826001600160a01b0316847f2f8788117e7eff1d82e926ec794901d17c78024a50270940304540a733656f0d60405160405180910390a450600161032e565b505f61032e565b5f610b4e83836109ed565b15610b3c575f838152602081815260408083206001600160a01b0386168085529252808320805460ff1916905551339286917ff6391f5c32d9c69d2a47ea670b442974b53935d1edc7fd64eb21e047a839171b9190a450600161032e565b5f83815260016020526040902060020154600160481b900460ff16610be35760405162461bcd60e51b81526004016103709061110a565b806004811115610bf557610bf5610e0e565b5f84815260016020526040902060020154600160401b900460ff166004811115610c2157610c21610e0e565b14610c5c5760405162461bcd60e51b815260206004820152600b60248201526a2bb937b7339037b93232b960a91b6044820152606401610370565b5f838152600160205260409020600201805483919068ff00000000000000001916600160401b836004811115610c9457610c94610e0e565b02179055505f83815260026020908152604082208054600181018255908352918190209082040180548492601f166101000a60ff81021990911690836004811115610ce157610ce1610e0e565b02179055505f838152600360209081526040808320805460018101825590845291909220429101819055905184917fca73b838fb308ed0de2f1d63ee69e1af3c7d64a31b00067689cbbe94d50c86d491610d3c9186916112e9565b60405180910390a2505050565b610d5382826109ed565b6109e95760405163e2517d3f60e01b81526001600160a01b038216600482015260248101839052604401610370565b6040518060a0016040528060608152602001606081526020015f67ffffffffffffffff1681526020015f6004811115610dbd57610dbd610e0e565b81525f60209091015290565b5f60208284031215610dd9575f80fd5b81356001600160e01b031981168114610df0575f80fd5b9392505050565b5f60208284031215610e07575f80fd5b5035919050565b634e487b7160e01b5f52602160045260245ffd5b60058110610e3e57634e487b7160e01b5f52602160045260245ffd5b9052565b604080825283519082018190525f906020906060840190828701845b82811015610e8157610e71848351610e22565b9284019290840190600101610e5e565b505050838103828501528451808252858301918301905f5b81811015610eb557835183529284019291840191600101610e99565b5090979650505050505050565b5f8083601f840112610ed2575f80fd5b50813567ffffffffffffffff811115610ee9575f80fd5b602083019150836020828501011115610f00575f80fd5b9250929050565b5f805f805f8060808789031215610f1c575f80fd5b86359550602087013567ffffffffffffffff80821115610f3a575f80fd5b610f468a838b01610ec2565b90975095506040890135915080821115610f5e575f80fd5b610f6a8a838b01610ec2565b9095509350606089013591508082168214610f83575f80fd5b50809150509295509295509295565b80356001600160a01b0381168114610fa8575f80fd5b919050565b5f8060408385031215610fbe575f80fd5b82359150610fce60208401610f92565b90509250929050565b5f81518084525f5b81811015610ffb57602081850181015186830182015201610fdf565b505f602082860101526020601f19601f83011685010191505092915050565b602081525f825160a0602084015261103560c0840182610fd7565b90506020840151601f198483030160408501526110528282610fd7565b91505067ffffffffffffffff6040850151166060840152606084015161107b6080850182610e22565b506080840151151560a08401528091505092915050565b5f805f604084860312156110a4575f80fd5b83359250602084013567ffffffffffffffff808211156110c2575f80fd5b818601915086601f8301126110d5575f80fd5b8135818111156110e3575f80fd5b8760208260051b85010111156110f7575f80fd5b6020830194508093505050509250925092565b6020808252600a9082015269139bc81c1c9bd91d58dd60b21b604082015260600190565b634e487b7160e01b5f52604160045260245ffd5b600181811c9082168061115657607f821691505b60208210810361117457634e487b7160e01b5f52602260045260245ffd5b50919050565b601f82111561076c57805f5260205f20601f840160051c8101602085101561119f5750805b601f840160051c820191505b818110156109ab575f81556001016111ab565b815167ffffffffffffffff8111156111d8576111d861112e565b6111ec816111e68454611142565b8461117a565b602080601f83116001811461121f575f84156112085750858301515b5f19600386901b1c1916600185901b178555611276565b5f85815260208120601f198616915b8281101561124d5788860151825594840194600190910190840161122e565b508582101561126a57878501515f19600388901b60f8161c191681555b505060018460011b0185555b505050505050565b81835281816020850137505f828201602090810191909152601f909101601f19169091010190565b606081525f6112b960608301878961127e565b82810360208401526112cc81868861127e565b91505067ffffffffffffffff831660408301529695505050505050565b604081016112f78285610e22565b8260208301529392505050565b634e487b7160e01b5f52603260045260245ffd5b5f60208284031215611328575f80fd5b610df082610f9256fea26469706673582212204d3759aa58304a0421666e3b120b442d86cd67222c0be01b4ea00914f9cdadcd64736f6c63430008180033",
		"opcodes": "PUSH1 0x80 PUSH1 0x40 MSTORE CALLVALUE DUP1 ISZERO PUSH2 0xF JUMPI PUSH0 DUP1 REVERT JUMPDEST POP PUSH1 0x4 CALLDATASIZE LT PUSH2 0x111 JUMPI PUSH0 CALLDATALOAD PUSH1 0xE0 SHR DUP1 PUSH4 0x7C66AC85 GT PUSH2 0x9E JUMPI DUP1 PUSH4 0xA217FDDF GT PUSH2 0x6E JUMPI DUP1 PUSH4 0xA217FDDF EQ PUSH2 0x297 JUMPI DUP1 PUSH4 0xB2DCB90C EQ PUSH2 0x29E JUMPI DUP1 PUSH4 0xD547741F EQ PUSH2 0x2B1 JUMPI DUP1 PUSH4 0xDC04D247 EQ PUSH2 0x2C4 JUMPI DUP1 PUSH4 0xEF9C6271 EQ PUSH2 0x2EB JUMPI PUSH0 DUP1 REVERT JUMPDEST DUP1 PUSH4 0x7C66AC85 EQ PUSH2 0x223 JUMPI DUP1 PUSH4 0x91D14854 EQ PUSH2 0x236 JUMPI DUP1 PUSH4 0x965288B0 EQ PUSH2 0x249 JUMPI DUP1 PUSH4 0x9CA39AE9 EQ PUSH2 0x270 JUMPI PUSH0 DUP1 REVERT JUMPDEST DUP1 PUSH4 0x248A9CA3 GT PUSH2 0xE4 JUMPI DUP1 PUSH4 0x248A9CA3 EQ PUSH2 0x1A8 JUMPI DUP1 PUSH4 0x2F2FF15D EQ PUSH2 0x1CA JUMPI DUP1 PUSH4 0x36568ABE EQ PUSH2 0x1DD JUMPI DUP1 PUSH4 0x3A20E9DF EQ PUSH2 0x1F0 JUMPI DUP1 PUSH4 0x53E6A522 EQ PUSH2 0x210 JUMPI PUSH0 DUP1 REVERT JUMPDEST DUP1 PUSH4 0x1FFC9A7 EQ PUSH2 0x115 JUMPI DUP1 PUSH4 0x115D620D EQ PUSH2 0x13D JUMPI DUP1 PUSH4 0x173A25B2 EQ PUSH2 0x15E JUMPI DUP1 PUSH4 0x2115E7BF EQ PUSH2 0x173 JUMPI JUMPDEST PUSH0 DUP1 REVERT JUMPDEST PUSH2 0x128 PUSH2 0x123 CALLDATASIZE PUSH1 0x4 PUSH2 0xDC9 JUMP JUMPDEST PUSH2 0x2FE JUMP JUMPDEST PUSH1 0x40 MLOAD SWAP1 ISZERO ISZERO DUP2 MSTORE PUSH1 0x20 ADD JUMPDEST PUSH1 0x40 MLOAD DUP1 SWAP2 SUB SWAP1 RETURN JUMPDEST PUSH2 0x150 PUSH2 0x14B CALLDATASIZE PUSH1 0x4 PUSH2 0xDF7 JUMP JUMPDEST PUSH2 0x334 JUMP JUMPDEST PUSH1 0x40 MLOAD PUSH2 0x134 SWAP3 SWAP2 SWAP1 PUSH2 0xE42 JUMP JUMPDEST PUSH2 0x171 PUSH2 0x16C CALLDATASIZE PUSH1 0x4 PUSH2 0xF07 JUMP JUMPDEST PUSH2 0x463 JUMP JUMPDEST STOP JUMPDEST PUSH2 0x19A PUSH32 0x2A5F906C256A5D799494FCD066E1F6C077689DE1CDB65052A1624DE4BACE99BF DUP2 JUMP JUMPDEST PUSH1 0x40 MLOAD SWAP1 DUP2 MSTORE PUSH1 0x20 ADD PUSH2 0x134 JUMP JUMPDEST PUSH2 0x19A PUSH2 0x1B6 CALLDATASIZE PUSH1 0x4 PUSH2 0xDF7 JUMP JUMPDEST PUSH0 SWAP1 DUP2 MSTORE PUSH1 0x20 DUP2 SWAP1 MSTORE PUSH1 0x40 SWAP1 KECCAK256 PUSH1 0x1 ADD SLOAD SWAP1 JUMP JUMPDEST PUSH2 0x171 PUSH2 0x1D8 CALLDATASIZE PUSH1 0x4 PUSH2 0xFAD JUMP JUMPDEST PUSH2 0x70F JUMP JUMPDEST PUSH2 0x171 PUSH2 0x1EB CALLDATASIZE PUSH1 0x4 PUSH2 0xFAD JUMP JUMPDEST PUSH2 0x739 JUMP JUMPDEST PUSH2 0x203 PUSH2 0x1FE CALLDATASIZE PUSH1 0x4 PUSH2 0xDF7 JUMP JUMPDEST PUSH2 0x771 JUMP JUMPDEST PUSH1 0x40 MLOAD PUSH2 0x134 SWAP2 SWAP1 PUSH2 0x101A JUMP JUMPDEST PUSH2 0x171 PUSH2 0x21E CALLDATASIZE PUSH1 0x4 PUSH2 0x1092 JUMP JUMPDEST PUSH2 0x94E JUMP JUMPDEST PUSH2 0x171 PUSH2 0x231 CALLDATASIZE PUSH1 0x4 PUSH2 0xDF7 JUMP JUMPDEST PUSH2 0x9B2 JUMP JUMPDEST PUSH2 0x128 PUSH2 0x244 CALLDATASIZE PUSH1 0x4 PUSH2 0xFAD JUMP JUMPDEST PUSH2 0x9ED JUMP JUMPDEST PUSH2 0x19A PUSH32 0xEEFB95E842A3287179D933B4460BE539A1D5AF11AA8B325BB45C5C8DC92DE4ED DUP2 JUMP JUMPDEST PUSH2 0x19A PUSH32 0x14CF45180C3FCF249A5A305E9657EA05C14FD4F4E1800EE0216A8213091711D2 DUP2 JUMP JUMPDEST PUSH2 0x19A PUSH0 DUP2 JUMP JUMPDEST PUSH2 0x171 PUSH2 0x2AC CALLDATASIZE PUSH1 0x4 PUSH2 0xDF7 JUMP JUMPDEST PUSH2 0xA15 JUMP JUMPDEST PUSH2 0x171 PUSH2 0x2BF CALLDATASIZE PUSH1 0x4 PUSH2 0xFAD JUMP JUMPDEST PUSH2 0xA4C JUMP JUMPDEST PUSH2 0x19A PUSH32 0x545CD3008E8205610EC65C7CA17F448815C2AB7EAAD3609FE9D3A0AED3356536 DUP2 JUMP JUMPDEST PUSH2 0x171 PUSH2 0x2F9 CALLDATASIZE PUSH1 0x4 PUSH2 0xDF7 JUMP JUMPDEST PUSH2 0xA70 JUMP JUMPDEST PUSH0 PUSH1 0x1 PUSH1 0x1 PUSH1 0xE0 SHL SUB NOT DUP3 AND PUSH4 0x7965DB0B PUSH1 0xE0 SHL EQ DUP1 PUSH2 0x32E JUMPI POP PUSH4 0x1FFC9A7 PUSH1 0xE0 SHL PUSH1 0x1 PUSH1 0x1 PUSH1 0xE0 SHL SUB NOT DUP4 AND EQ JUMPDEST SWAP3 SWAP2 POP POP JUMP JUMPDEST PUSH0 DUP2 DUP2 MSTORE PUSH1 0x1 PUSH1 0x20 MSTORE PUSH1 0x40 SWAP1 KECCAK256 PUSH1 0x2 ADD SLOAD PUSH1 0x60 SWAP1 DUP2 SWAP1 PUSH1 0x1 PUSH1 0x48 SHL SWAP1 DIV PUSH1 0xFF AND PUSH2 0x379 JUMPI PUSH1 0x40 MLOAD PUSH3 0x461BCD PUSH1 0xE5 SHL DUP2 MSTORE PUSH1 0x4 ADD PUSH2 0x370 SWAP1 PUSH2 0x110A JUMP JUMPDEST PUSH1 0x40 MLOAD DUP1 SWAP2 SUB SWAP1 REVERT JUMPDEST PUSH0 DUP4 DUP2 MSTORE PUSH1 0x2 PUSH1 0x20 SWAP1 DUP2 MSTORE PUSH1 0x40 DUP1 DUP4 KECCAK256 PUSH1 0x3 DUP4 MSTORE SWAP3 DUP2 SWAP1 KECCAK256 DUP4 SLOAD DUP3 MLOAD DUP2 DUP6 MUL DUP2 ADD DUP6 ADD SWAP1 SWAP4 MSTORE DUP1 DUP4 MSTORE SWAP1 SWAP3 DUP5 SWAP2 SWAP1 DUP4 ADD DUP3 DUP3 DUP1 ISZERO PUSH2 0x403 JUMPI PUSH1 0x20 MUL DUP3 ADD SWAP2 SWAP1 PUSH0 MSTORE PUSH1 0x20 PUSH0 KECCAK256 SWAP1 PUSH0 SWAP1 JUMPDEST DUP3 DUP3 SWAP1 SLOAD SWAP1 PUSH2 0x100 EXP SWAP1 DIV PUSH1 0xFF AND PUSH1 0x4 DUP2 GT ISZERO PUSH2 0x3E1 JUMPI PUSH2 0x3E1 PUSH2 0xE0E JUMP JUMPDEST DUP2 MSTORE PUSH1 0x20 PUSH1 0x1 SWAP3 DUP4 ADD DUP2 DUP2 DIV SWAP5 DUP6 ADD SWAP5 SWAP1 SWAP4 SUB SWAP1 SWAP3 MUL SWAP2 ADD DUP1 DUP5 GT PUSH2 0x3C2 JUMPI SWAP1 POP JUMPDEST POP POP POP POP POP SWAP2 POP DUP1 DUP1 SLOAD DUP1 PUSH1 0x20 MUL PUSH1 0x20 ADD PUSH1 0x40 MLOAD SWAP1 DUP2 ADD PUSH1 0x40 MSTORE DUP1 SWAP3 SWAP2 SWAP1 DUP2 DUP2 MSTORE PUSH1 0x20 ADD DUP3 DUP1 SLOAD DUP1 ISZERO PUSH2 0x453 JUMPI PUSH1 0x20 MUL DUP3 ADD SWAP2 SWAP1 PUSH0 MSTORE PUSH1 0x20 PUSH0 KECCAK256 SWAP1 JUMPDEST DUP2 SLOAD DUP2 MSTORE PUSH1 0x20 ADD SWAP1 PUSH1 0x1 ADD SWAP1 DUP1 DUP4 GT PUSH2 0x43F JUMPI JUMPDEST POP POP POP POP POP SWAP1 POP SWAP2 POP SWAP2 POP SWAP2 POP SWAP2 JUMP JUMPDEST PUSH32 0xEEFB95E842A3287179D933B4460BE539A1D5AF11AA8B325BB45C5C8DC92DE4ED PUSH2 0x48D DUP2 PUSH2 0xAA7 JUMP JUMPDEST PUSH0 DUP8 DUP2 MSTORE PUSH1 0x1 PUSH1 0x20 MSTORE PUSH1 0x40 SWAP1 KECCAK256 PUSH1 0x2 ADD SLOAD PUSH1 0x1 PUSH1 0x48 SHL SWAP1 DIV PUSH1 0xFF AND ISZERO PUSH2 0x4E6 JUMPI PUSH1 0x40 MLOAD PUSH3 0x461BCD PUSH1 0xE5 SHL DUP2 MSTORE PUSH1 0x20 PUSH1 0x4 DUP3 ADD MSTORE PUSH1 0xE PUSH1 0x24 DUP3 ADD MSTORE PUSH14 0x416C726561647920657869737473 PUSH1 0x90 SHL PUSH1 0x44 DUP3 ADD MSTORE PUSH1 0x64 ADD PUSH2 0x370 JUMP JUMPDEST PUSH1 0x40 MLOAD DUP1 PUSH1 0xA0 ADD PUSH1 0x40 MSTORE DUP1 DUP8 DUP8 DUP1 DUP1 PUSH1 0x1F ADD PUSH1 0x20 DUP1 SWAP2 DIV MUL PUSH1 0x20 ADD PUSH1 0x40 MLOAD SWAP1 DUP2 ADD PUSH1 0x40 MSTORE DUP1 SWAP4 SWAP3 SWAP2 SWAP1 DUP2 DUP2 MSTORE PUSH1 0x20 ADD DUP4 DUP4 DUP1 DUP3 DUP5 CALLDATACOPY PUSH0 SWAP3 ADD SWAP2 SWAP1 SWAP2 MSTORE POP POP POP SWAP1 DUP3 MSTORE POP PUSH1 0x40 DUP1 MLOAD PUSH1 0x20 PUSH1 0x1F DUP9 ADD DUP2 SWAP1 DIV DUP2 MUL DUP3 ADD DUP2 ADD SWAP1 SWAP3 MSTORE DUP7 DUP2 MSTORE SWAP2 DUP2 ADD SWAP2 SWAP1 DUP8 SWAP1 DUP8 SWAP1 DUP2 SWAP1 DUP5 ADD DUP4 DUP3 DUP1 DUP3 DUP5 CALLDATACOPY PUSH0 SWAP3 ADD SWAP2 SWAP1 SWAP2 MSTORE POP POP POP SWAP1 DUP3 MSTORE POP PUSH8 0xFFFFFFFFFFFFFFFF DUP5 AND PUSH1 0x20 DUP3 ADD MSTORE PUSH1 0x40 ADD PUSH1 0x1 DUP2 MSTORE PUSH1 0x1 PUSH1 0x20 SWAP2 DUP3 ADD DUP2 SWAP1 MSTORE PUSH0 DUP11 DUP2 MSTORE SWAP2 MSTORE PUSH1 0x40 SWAP1 KECCAK256 DUP2 MLOAD DUP2 SWAP1 PUSH2 0x59C SWAP1 DUP3 PUSH2 0x11BE JUMP JUMPDEST POP PUSH1 0x20 DUP3 ADD MLOAD PUSH1 0x1 DUP3 ADD SWAP1 PUSH2 0x5B1 SWAP1 DUP3 PUSH2 0x11BE JUMP JUMPDEST POP PUSH1 0x40 DUP3 ADD MLOAD PUSH1 0x2 DUP3 ADD DUP1 SLOAD PUSH8 0xFFFFFFFFFFFFFFFF SWAP1 SWAP3 AND PUSH8 0xFFFFFFFFFFFFFFFF NOT DUP4 AND DUP2 OR DUP3 SSTORE PUSH1 0x60 DUP6 ADD MLOAD SWAP3 PUSH9 0xFFFFFFFFFFFFFFFFFF NOT AND OR PUSH1 0x1 PUSH1 0x40 SHL DUP4 PUSH1 0x4 DUP2 GT ISZERO PUSH2 0x603 JUMPI PUSH2 0x603 PUSH2 0xE0E JUMP JUMPDEST MUL OR SWAP1 SSTORE POP PUSH1 0x80 SWAP2 SWAP1 SWAP2 ADD MLOAD PUSH1 0x2 SWAP2 DUP3 ADD DUP1 SLOAD PUSH10 0xFF000000000000000000 NOT AND PUSH1 0x1 PUSH1 0x48 SHL SWAP3 ISZERO ISZERO SWAP3 SWAP1 SWAP3 MUL SWAP2 SWAP1 SWAP2 OR SWAP1 SSTORE PUSH0 DUP9 DUP2 MSTORE PUSH1 0x20 SWAP2 DUP3 MSTORE PUSH1 0x40 DUP1 DUP3 KECCAK256 DUP1 SLOAD PUSH1 0x1 DUP2 DUP2 ADD DUP4 SSTORE SWAP2 DUP5 MSTORE DUP5 DUP5 KECCAK256 DUP6 DUP3 DIV ADD DUP1 SLOAD PUSH1 0xFF PUSH1 0x1F SWAP1 SWAP4 AND PUSH2 0x100 EXP SWAP3 DUP4 MUL NOT AND SWAP1 SWAP2 OR SWAP1 SSTORE DUP11 DUP4 MSTORE PUSH1 0x3 DUP5 MSTORE DUP2 DUP4 KECCAK256 DUP1 SLOAD SWAP2 DUP3 ADD DUP2 SSTORE DUP4 MSTORE SWAP3 SWAP1 SWAP2 KECCAK256 TIMESTAMP SWAP3 ADD SWAP2 SWAP1 SWAP2 SSTORE MLOAD DUP8 SWAP1 PUSH32 0xED037748EE9548D24F616FE577E1AC2E4AAFFEE46E8A16C4280B3A820CBFEB54 SWAP1 PUSH2 0x6C3 SWAP1 DUP10 SWAP1 DUP10 SWAP1 DUP10 SWAP1 DUP10 SWAP1 DUP10 SWAP1 PUSH2 0x12A6 JUMP JUMPDEST PUSH1 0x40 MLOAD DUP1 SWAP2 SUB SWAP1 LOG2 DUP7 PUSH32 0xCA73B838FB308ED0DE2F1D63EE69E1AF3C7D64A31B00067689CBBE94D50C86D4 PUSH1 0x1 TIMESTAMP PUSH1 0x40 MLOAD PUSH2 0x6FE SWAP3 SWAP2 SWAP1 PUSH2 0x12E9 JUMP JUMPDEST PUSH1 0x40 MLOAD DUP1 SWAP2 SUB SWAP1 LOG2 POP POP POP POP POP POP POP JUMP JUMPDEST PUSH0 DUP3 DUP2 MSTORE PUSH1 0x20 DUP2 SWAP1 MSTORE PUSH1 0x40 SWAP1 KECCAK256 PUSH1 0x1 ADD SLOAD PUSH2 0x729 DUP2 PUSH2 0xAA7 JUMP JUMPDEST PUSH2 0x733 DUP4 DUP4 PUSH2 0xAB4 JUMP JUMPDEST POP POP POP POP JUMP JUMPDEST PUSH1 0x1 PUSH1 0x1 PUSH1 0xA0 SHL SUB DUP2 AND CALLER EQ PUSH2 0x762 JUMPI PUSH1 0x40 MLOAD PUSH4 0x334BD919 PUSH1 0xE1 SHL DUP2 MSTORE PUSH1 0x4 ADD PUSH1 0x40 MLOAD DUP1 SWAP2 SUB SWAP1 REVERT JUMPDEST PUSH2 0x76C DUP3 DUP3 PUSH2 0xB43 JUMP JUMPDEST POP POP POP JUMP JUMPDEST PUSH2 0x779 PUSH2 0xD82 JUMP JUMPDEST PUSH0 DUP3 DUP2 MSTORE PUSH1 0x1 PUSH1 0x20 MSTORE PUSH1 0x40 SWAP1 KECCAK256 PUSH1 0x2 ADD SLOAD PUSH1 0x1 PUSH1 0x48 SHL SWAP1 DIV PUSH1 0xFF AND PUSH2 0x7B0 JUMPI PUSH1 0x40 MLOAD PUSH3 0x461BCD PUSH1 0xE5 SHL DUP2 MSTORE PUSH1 0x4 ADD PUSH2 0x370 SWAP1 PUSH2 0x110A JUMP JUMPDEST PUSH0 DUP3 DUP2 MSTORE PUSH1 0x1 PUSH1 0x20 MSTORE PUSH1 0x40 SWAP1 DUP2 SWAP1 KECCAK256 DUP2 MLOAD PUSH1 0xA0 DUP2 ADD SWAP1 SWAP3 MSTORE DUP1 SLOAD DUP3 SWAP1 DUP3 SWAP1 PUSH2 0x7D7 SWAP1 PUSH2 0x1142 JUMP JUMPDEST DUP1 PUSH1 0x1F ADD PUSH1 0x20 DUP1 SWAP2 DIV MUL PUSH1 0x20 ADD PUSH1 0x40 MLOAD SWAP1 DUP2 ADD PUSH1 0x40 MSTORE DUP1 SWAP3 SWAP2 SWAP1 DUP2 DUP2 MSTORE PUSH1 0x20 ADD DUP3 DUP1 SLOAD PUSH2 0x803 SWAP1 PUSH2 0x1142 JUMP JUMPDEST DUP1 ISZERO PUSH2 0x84E JUMPI DUP1 PUSH1 0x1F LT PUSH2 0x825 JUMPI PUSH2 0x100 DUP1 DUP4 SLOAD DIV MUL DUP4 MSTORE SWAP2 PUSH1 0x20 ADD SWAP2 PUSH2 0x84E JUMP JUMPDEST DUP3 ADD SWAP2 SWAP1 PUSH0 MSTORE PUSH1 0x20 PUSH0 KECCAK256 SWAP1 JUMPDEST DUP2 SLOAD DUP2 MSTORE SWAP1 PUSH1 0x1 ADD SWAP1 PUSH1 0x20 ADD DUP1 DUP4 GT PUSH2 0x831 JUMPI DUP3 SWAP1 SUB PUSH1 0x1F AND DUP3 ADD SWAP2 JUMPDEST POP POP POP POP POP DUP2 MSTORE PUSH1 0x20 ADD PUSH1 0x1 DUP3 ADD DUP1 SLOAD PUSH2 0x867 SWAP1 PUSH2 0x1142 JUMP JUMPDEST DUP1 PUSH1 0x1F ADD PUSH1 0x20 DUP1 SWAP2 DIV MUL PUSH1 0x20 ADD PUSH1 0x40 MLOAD SWAP1 DUP2 ADD PUSH1 0x40 MSTORE DUP1 SWAP3 SWAP2 SWAP1 DUP2 DUP2 MSTORE PUSH1 0x20 ADD DUP3 DUP1 SLOAD PUSH2 0x893 SWAP1 PUSH2 0x1142 JUMP JUMPDEST DUP1 ISZERO PUSH2 0x8DE JUMPI DUP1 PUSH1 0x1F LT PUSH2 0x8B5 JUMPI PUSH2 0x100 DUP1 DUP4 SLOAD DIV MUL DUP4 MSTORE SWAP2 PUSH1 0x20 ADD SWAP2 PUSH2 0x8DE JUMP JUMPDEST DUP3 ADD SWAP2 SWAP1 PUSH0 MSTORE PUSH1 0x20 PUSH0 KECCAK256 SWAP1 JUMPDEST DUP2 SLOAD DUP2 MSTORE SWAP1 PUSH1 0x1 ADD SWAP1 PUSH1 0x20 ADD DUP1 DUP4 GT PUSH2 0x8C1 JUMPI DUP3 SWAP1 SUB PUSH1 0x1F AND DUP3 ADD SWAP2 JUMPDEST POP POP POP SWAP2 DUP4 MSTORE POP POP PUSH1 0x2 DUP3 ADD SLOAD PUSH8 0xFFFFFFFFFFFFFFFF DUP2 AND PUSH1 0x20 DUP4 ADD MSTORE PUSH1 0x40 SWAP1 SWAP2 ADD SWAP1 PUSH1 0x1 PUSH1 0x40 SHL SWAP1 DIV PUSH1 0xFF AND PUSH1 0x4 DUP2 GT ISZERO PUSH2 0x91C JUMPI PUSH2 0x91C PUSH2 0xE0E JUMP JUMPDEST PUSH1 0x4 DUP2 GT ISZERO PUSH2 0x92D JUMPI PUSH2 0x92D PUSH2 0xE0E JUMP JUMPDEST DUP2 MSTORE PUSH1 0x2 SWAP2 SWAP1 SWAP2 ADD SLOAD PUSH1 0x1 PUSH1 0x48 SHL SWAP1 DIV PUSH1 0xFF AND ISZERO ISZERO PUSH1 0x20 SWAP1 SWAP2 ADD MSTORE SWAP3 SWAP2 POP POP JUMP JUMPDEST PUSH0 DUP4 DUP2 MSTORE PUSH1 0x20 DUP2 SWAP1 MSTORE PUSH1 0x40 SWAP1 KECCAK256 PUSH1 0x1 ADD SLOAD PUSH2 0x968 DUP2 PUSH2 0xAA7 JUMP JUMPDEST PUSH0 JUMPDEST DUP3 DUP2 LT ISZERO PUSH2 0x9AB JUMPI PUSH2 0x9A2 DUP6 DUP6 DUP6 DUP5 DUP2 DUP2 LT PUSH2 0x988 JUMPI PUSH2 0x988 PUSH2 0x1304 JUMP JUMPDEST SWAP1 POP PUSH1 0x20 MUL ADD PUSH1 0x20 DUP2 ADD SWAP1 PUSH2 0x99D SWAP2 SWAP1 PUSH2 0x1318 JUMP JUMPDEST PUSH2 0xAB4 JUMP JUMPDEST POP PUSH1 0x1 ADD PUSH2 0x96A JUMP JUMPDEST POP POP POP POP POP JUMP JUMPDEST PUSH32 0x2A5F906C256A5D799494FCD066E1F6C077689DE1CDB65052A1624DE4BACE99BF PUSH2 0x9DC DUP2 PUSH2 0xAA7 JUMP JUMPDEST PUSH2 0x9E9 DUP3 PUSH1 0x4 PUSH1 0x3 PUSH2 0xBAC JUMP JUMPDEST POP POP JUMP JUMPDEST PUSH0 SWAP2 DUP3 MSTORE PUSH1 0x20 DUP3 DUP2 MSTORE PUSH1 0x40 DUP1 DUP5 KECCAK256 PUSH1 0x1 PUSH1 0x1 PUSH1 0xA0 SHL SUB SWAP4 SWAP1 SWAP4 AND DUP5 MSTORE SWAP2 SWAP1 MSTORE SWAP1 KECCAK256 SLOAD PUSH1 0xFF AND SWAP1 JUMP JUMPDEST PUSH32 0x14CF45180C3FCF249A5A305E9657EA05C14FD4F4E1800EE0216A8213091711D2 PUSH2 0xA3F DUP2 PUSH2 0xAA7 JUMP JUMPDEST PUSH2 0x9E9 DUP3 PUSH1 0x2 PUSH1 0x1 PUSH2 0xBAC JUMP JUMPDEST PUSH0 DUP3 DUP2 MSTORE PUSH1 0x20 DUP2 SWAP1 MSTORE PUSH1 0x40 SWAP1 KECCAK256 PUSH1 0x1 ADD SLOAD PUSH2 0xA66 DUP2 PUSH2 0xAA7 JUMP JUMPDEST PUSH2 0x733 DUP4 DUP4 PUSH2 0xB43 JUMP JUMPDEST PUSH32 0x545CD3008E8205610EC65C7CA17F448815C2AB7EAAD3609FE9D3A0AED3356536 PUSH2 0xA9A DUP2 PUSH2 0xAA7 JUMP JUMPDEST PUSH2 0x9E9 DUP3 PUSH1 0x3 PUSH1 0x2 PUSH2 0xBAC JUMP JUMPDEST PUSH2 0xAB1 DUP2 CALLER PUSH2 0xD49 JUMP JUMPDEST POP JUMP JUMPDEST PUSH0 PUSH2 0xABF DUP4 DUP4 PUSH2 0x9ED JUMP JUMPDEST PUSH2 0xB3C JUMPI PUSH0 DUP4 DUP2 MSTORE PUSH1 0x20 DUP2 DUP2 MSTORE PUSH1 0x40 DUP1 DUP4 KECCAK256 PUSH1 0x1 PUSH1 0x1 PUSH1 0xA0 SHL SUB DUP7 AND DUP5 MSTORE SWAP1 SWAP2 MSTORE SWAP1 KECCAK256 DUP1 SLOAD PUSH1 0xFF NOT AND PUSH1 0x1 OR SWAP1 SSTORE PUSH2 0xAF4 CALLER SWAP1 JUMP JUMPDEST PUSH1 0x1 PUSH1 0x1 PUSH1 0xA0 SHL SUB AND DUP3 PUSH1 0x1 PUSH1 0x1 PUSH1 0xA0 SHL SUB AND DUP5 PUSH32 0x2F8788117E7EFF1D82E926EC794901D17C78024A50270940304540A733656F0D PUSH1 0x40 MLOAD PUSH1 0x40 MLOAD DUP1 SWAP2 SUB SWAP1 LOG4 POP PUSH1 0x1 PUSH2 0x32E JUMP JUMPDEST POP PUSH0 PUSH2 0x32E JUMP JUMPDEST PUSH0 PUSH2 0xB4E DUP4 DUP4 PUSH2 0x9ED JUMP JUMPDEST ISZERO PUSH2 0xB3C JUMPI PUSH0 DUP4 DUP2 MSTORE PUSH1 0x20 DUP2 DUP2 MSTORE PUSH1 0x40 DUP1 DUP4 KECCAK256 PUSH1 0x1 PUSH1 0x1 PUSH1 0xA0 SHL SUB DUP7 AND DUP1 DUP6 MSTORE SWAP3 MSTORE DUP1 DUP4 KECCAK256 DUP1 SLOAD PUSH1 0xFF NOT AND SWAP1 SSTORE MLOAD CALLER SWAP3 DUP7 SWAP2 PUSH32 0xF6391F5C32D9C69D2A47EA670B442974B53935D1EDC7FD64EB21E047A839171B SWAP2 SWAP1 LOG4 POP PUSH1 0x1 PUSH2 0x32E JUMP JUMPDEST PUSH0 DUP4 DUP2 MSTORE PUSH1 0x1 PUSH1 0x20 MSTORE PUSH1 0x40 SWAP1 KECCAK256 PUSH1 0x2 ADD SLOAD PUSH1 0x1 PUSH1 0x48 SHL SWAP1 DIV PUSH1 0xFF AND PUSH2 0xBE3 JUMPI PUSH1 0x40 MLOAD PUSH3 0x461BCD PUSH1 0xE5 SHL DUP2 MSTORE PUSH1 0x4 ADD PUSH2 0x370 SWAP1 PUSH2 0x110A JUMP JUMPDEST DUP1 PUSH1 0x4 DUP2 GT ISZERO PUSH2 0xBF5 JUMPI PUSH2 0xBF5 PUSH2 0xE0E JUMP JUMPDEST PUSH0 DUP5 DUP2 MSTORE PUSH1 0x1 PUSH1 0x20 MSTORE PUSH1 0x40 SWAP1 KECCAK256 PUSH1 0x2 ADD SLOAD PUSH1 0x1 PUSH1 0x40 SHL SWAP1 DIV PUSH1 0xFF AND PUSH1 0x4 DUP2 GT ISZERO PUSH2 0xC21 JUMPI PUSH2 0xC21 PUSH2 0xE0E JUMP JUMPDEST EQ PUSH2 0xC5C JUMPI PUSH1 0x40 MLOAD PUSH3 0x461BCD PUSH1 0xE5 SHL DUP2 MSTORE PUSH1 0x20 PUSH1 0x4 DUP3 ADD MSTORE PUSH1 0xB PUSH1 0x24 DUP3 ADD MSTORE PUSH11 0x2BB937B7339037B93232B9 PUSH1 0xA9 SHL PUSH1 0x44 DUP3 ADD MSTORE PUSH1 0x64 ADD PUSH2 0x370 JUMP JUMPDEST PUSH0 DUP4 DUP2 MSTORE PUSH1 0x1 PUSH1 0x20 MSTORE PUSH1 0x40 SWAP1 KECCAK256 PUSH1 0x2 ADD DUP1 SLOAD DUP4 SWAP2 SWAP1 PUSH9 0xFF0000000000000000 NOT AND PUSH1 0x1 PUSH1 0x40 SHL DUP4 PUSH1 0x4 DUP2 GT ISZERO PUSH2 0xC94 JUMPI PUSH2 0xC94 PUSH2 0xE0E JUMP JUMPDEST MUL OR SWAP1 SSTORE POP PUSH0 DUP4 DUP2 MSTORE PUSH1 0x2 PUSH1 0x20 SWAP1 DUP2 MSTORE PUSH1 0x40 DUP3 KECCAK256 DUP1 SLOAD PUSH1 0x1 DUP2 ADD DUP3 SSTORE SWAP1 DUP4 MSTORE SWAP2 DUP2 SWAP1 KECCAK256 SWAP1 DUP3 DIV ADD DUP1 SLOAD DUP5 SWAP3 PUSH1 0x1F AND PUSH2 0x100 EXP PUSH1 0xFF DUP2 MUL NOT SWAP1 SWAP2 AND SWAP1 DUP4 PUSH1 0x4 DUP2 GT ISZERO PUSH2 0xCE1 JUMPI PUSH2 0xCE1 PUSH2 0xE0E JUMP JUMPDEST MUL OR SWAP1 SSTORE POP PUSH0 DUP4 DUP2 MSTORE PUSH1 0x3 PUSH1 0x20 SWAP1 DUP2 MSTORE PUSH1 0x40 DUP1 DUP4 KECCAK256 DUP1 SLOAD PUSH1 0x1 DUP2 ADD DUP3 SSTORE SWAP1 DUP5 MSTORE SWAP2 SWAP1 SWAP3 KECCAK256 TIMESTAMP SWAP2 ADD DUP2 SWAP1 SSTORE SWAP1 MLOAD DUP5 SWAP2 PUSH32 0xCA73B838FB308ED0DE2F1D63EE69E1AF3C7D64A31B00067689CBBE94D50C86D4 SWAP2 PUSH2 0xD3C SWAP2 DUP7 SWAP2 PUSH2 0x12E9 JUMP JUMPDEST PUSH1 0x40 MLOAD DUP1 SWAP2 SUB SWAP1 LOG2 POP POP POP JUMP JUMPDEST PUSH2 0xD53 DUP3 DUP3 PUSH2 0x9ED JUMP JUMPDEST PUSH2 0x9E9 JUMPI PUSH1 0x40 MLOAD PUSH4 0xE2517D3F PUSH1 0xE0 SHL DUP2 MSTORE PUSH1 0x1 PUSH1 0x1 PUSH1 0xA0 SHL SUB DUP3 AND PUSH1 0x4 DUP3 ADD MSTORE PUSH1 0x24 DUP2 ADD DUP4 SWAP1 MSTORE PUSH1 0x44 ADD PUSH2 0x370 JUMP JUMPDEST PUSH1 0x40 MLOAD DUP1 PUSH1 0xA0 ADD PUSH1 0x40 MSTORE DUP1 PUSH1 0x60 DUP2 MSTORE PUSH1 0x20 ADD PUSH1 0x60 DUP2 MSTORE PUSH1 0x20 ADD PUSH0 PUSH8 0xFFFFFFFFFFFFFFFF AND DUP2 MSTORE PUSH1 0x20 ADD PUSH0 PUSH1 0x4 DUP2 GT ISZERO PUSH2 0xDBD JUMPI PUSH2 0xDBD PUSH2 0xE0E JUMP JUMPDEST DUP2 MSTORE PUSH0 PUSH1 0x20 SWAP1 SWAP2 ADD MSTORE SWAP1 JUMP JUMPDEST PUSH0 PUSH1 0x20 DUP3 DUP5 SUB SLT ISZERO PUSH2 0xDD9 JUMPI PUSH0 DUP1 REVERT JUMPDEST DUP2 CALLDATALOAD PUSH1 0x1 PUSH1 0x1 PUSH1 0xE0 SHL SUB NOT DUP2 AND DUP2 EQ PUSH2 0xDF0 JUMPI PUSH0 DUP1 REVERT JUMPDEST SWAP4 SWAP3 POP POP POP JUMP JUMPDEST PUSH0 PUSH1 0x20 DUP3 DUP5 SUB SLT ISZERO PUSH2 0xE07 JUMPI PUSH0 DUP1 REVERT JUMPDEST POP CALLDATALOAD SWAP2 SWAP1 POP JUMP JUMPDEST PUSH4 0x4E487B71 PUSH1 0xE0 SHL PUSH0 MSTORE PUSH1 0x21 PUSH1 0x4 MSTORE PUSH1 0x24 PUSH0 REVERT JUMPDEST PUSH1 0x5 DUP2 LT PUSH2 0xE3E JUMPI PUSH4 0x4E487B71 PUSH1 0xE0 SHL PUSH0 MSTORE PUSH1 0x21 PUSH1 0x4 MSTORE PUSH1 0x24 PUSH0 REVERT JUMPDEST SWAP1 MSTORE JUMP JUMPDEST PUSH1 0x40 DUP1 DUP3 MSTORE DUP4 MLOAD SWAP1 DUP3 ADD DUP2 SWAP1 MSTORE PUSH0 SWAP1 PUSH1 0x20 SWAP1 PUSH1 0x60 DUP5 ADD SWAP1 DUP3 DUP8 ADD DUP5 JUMPDEST DUP3 DUP2 LT ISZERO PUSH2 0xE81 JUMPI PUSH2 0xE71 DUP5 DUP4 MLOAD PUSH2 0xE22 JUMP JUMPDEST SWAP3 DUP5 ADD SWAP3 SWAP1 DUP5 ADD SWAP1 PUSH1 0x1 ADD PUSH2 0xE5E JUMP JUMPDEST POP POP POP DUP4 DUP2 SUB DUP3 DUP6 ADD MSTORE DUP5 MLOAD DUP1 DUP3 MSTORE DUP6 DUP4 ADD SWAP2 DUP4 ADD SWAP1 PUSH0 JUMPDEST DUP2 DUP2 LT ISZERO PUSH2 0xEB5 JUMPI DUP4 MLOAD DUP4 MSTORE SWAP3 DUP5 ADD SWAP3 SWAP2 DUP5 ADD SWAP2 PUSH1 0x1 ADD PUSH2 0xE99 JUMP JUMPDEST POP SWAP1 SWAP8 SWAP7 POP POP POP POP POP POP POP JUMP JUMPDEST PUSH0 DUP1 DUP4 PUSH1 0x1F DUP5 ADD SLT PUSH2 0xED2 JUMPI PUSH0 DUP1 REVERT JUMPDEST POP DUP2 CALLDATALOAD PUSH8 0xFFFFFFFFFFFFFFFF DUP2 GT ISZERO PUSH2 0xEE9 JUMPI PUSH0 DUP1 REVERT JUMPDEST PUSH1 0x20 DUP4 ADD SWAP2 POP DUP4 PUSH1 0x20 DUP3 DUP6 ADD ADD GT ISZERO PUSH2 0xF00 JUMPI PUSH0 DUP1 REVERT JUMPDEST SWAP3 POP SWAP3 SWAP1 POP JUMP JUMPDEST PUSH0 DUP1 PUSH0 DUP1 PUSH0 DUP1 PUSH1 0x80 DUP8 DUP10 SUB SLT ISZERO PUSH2 0xF1C JUMPI PUSH0 DUP1 REVERT JUMPDEST DUP7 CALLDATALOAD SWAP6 POP PUSH1 0x20 DUP8 ADD CALLDATALOAD PUSH8 0xFFFFFFFFFFFFFFFF DUP1 DUP3 GT ISZERO PUSH2 0xF3A JUMPI PUSH0 DUP1 REVERT JUMPDEST PUSH2 0xF46 DUP11 DUP4 DUP12 ADD PUSH2 0xEC2 JUMP JUMPDEST SWAP1 SWAP8 POP SWAP6 POP PUSH1 0x40 DUP10 ADD CALLDATALOAD SWAP2 POP DUP1 DUP3 GT ISZERO PUSH2 0xF5E JUMPI PUSH0 DUP1 REVERT JUMPDEST PUSH2 0xF6A DUP11 DUP4 DUP12 ADD PUSH2 0xEC2 JUMP JUMPDEST SWAP1 SWAP6 POP SWAP4 POP PUSH1 0x60 DUP10 ADD CALLDATALOAD SWAP2 POP DUP1 DUP3 AND DUP3 EQ PUSH2 0xF83 JUMPI PUSH0 DUP1 REVERT JUMPDEST POP DUP1 SWAP2 POP POP SWAP3 SWAP6 POP SWAP3 SWAP6 POP SWAP3 SWAP6 JUMP JUMPDEST DUP1 CALLDATALOAD PUSH1 0x1 PUSH1 0x1 PUSH1 0xA0 SHL SUB DUP2 AND DUP2 EQ PUSH2 0xFA8 JUMPI PUSH0 DUP1 REVERT JUMPDEST SWAP2 SWAP1 POP JUMP JUMPDEST PUSH0 DUP1 PUSH1 0x40 DUP4 DUP6 SUB SLT ISZERO PUSH2 0xFBE JUMPI PUSH0 DUP1 REVERT JUMPDEST DUP3 CALLDATALOAD SWAP2 POP PUSH2 0xFCE PUSH1 0x20 DUP5 ADD PUSH2 0xF92 JUMP JUMPDEST SWAP1 POP SWAP3 POP SWAP3 SWAP1 POP JUMP JUMPDEST PUSH0 DUP2 MLOAD DUP1 DUP5 MSTORE PUSH0 JUMPDEST DUP2 DUP2 LT ISZERO PUSH2 0xFFB JUMPI PUSH1 0x20 DUP2 DUP6 ADD DUP2 ADD MLOAD DUP7 DUP4 ADD DUP3 ADD MSTORE ADD PUSH2 0xFDF JUMP JUMPDEST POP PUSH0 PUSH1 0x20 DUP3 DUP7 ADD ADD MSTORE PUSH1 0x20 PUSH1 0x1F NOT PUSH1 0x1F DUP4 ADD AND DUP6 ADD ADD SWAP2 POP POP SWAP3 SWAP2 POP POP JUMP JUMPDEST PUSH1 0x20 DUP2 MSTORE PUSH0 DUP3 MLOAD PUSH1 0xA0 PUSH1 0x20 DUP5 ADD MSTORE PUSH2 0x1035 PUSH1 0xC0 DUP5 ADD DUP3 PUSH2 0xFD7 JUMP JUMPDEST SWAP1 POP PUSH1 0x20 DUP5 ADD MLOAD PUSH1 0x1F NOT DUP5 DUP4 SUB ADD PUSH1 0x40 DUP6 ADD MSTORE PUSH2 0x1052 DUP3 DUP3 PUSH2 0xFD7 JUMP JUMPDEST SWAP2 POP POP PUSH8 0xFFFFFFFFFFFFFFFF PUSH1 0x40 DUP6 ADD MLOAD AND PUSH1 0x60 DUP5 ADD MSTORE PUSH1 0x60 DUP5 ADD MLOAD PUSH2 0x107B PUSH1 0x80 DUP6 ADD DUP3 PUSH2 0xE22 JUMP JUMPDEST POP PUSH1 0x80 DUP5 ADD MLOAD ISZERO ISZERO PUSH1 0xA0 DUP5 ADD MSTORE DUP1 SWAP2 POP POP SWAP3 SWAP2 POP POP JUMP JUMPDEST PUSH0 DUP1 PUSH0 PUSH1 0x40 DUP5 DUP7 SUB SLT ISZERO PUSH2 0x10A4 JUMPI PUSH0 DUP1 REVERT JUMPDEST DUP4 CALLDATALOAD SWAP3 POP PUSH1 0x20 DUP5 ADD CALLDATALOAD PUSH8 0xFFFFFFFFFFFFFFFF DUP1 DUP3 GT ISZERO PUSH2 0x10C2 JUMPI PUSH0 DUP1 REVERT JUMPDEST DUP2 DUP7 ADD SWAP2 POP DUP7 PUSH1 0x1F DUP4 ADD SLT PUSH2 0x10D5 JUMPI PUSH0 DUP1 REVERT JUMPDEST DUP2 CALLDATALOAD DUP2 DUP2 GT ISZERO PUSH2 0x10E3 JUMPI PUSH0 DUP1 REVERT JUMPDEST DUP8 PUSH1 0x20 DUP3 PUSH1 0x5 SHL DUP6 ADD ADD GT ISZERO PUSH2 0x10F7 JUMPI PUSH0 DUP1 REVERT JUMPDEST PUSH1 0x20 DUP4 ADD SWAP5 POP DUP1 SWAP4 POP POP POP POP SWAP3 POP SWAP3 POP SWAP3 JUMP JUMPDEST PUSH1 0x20 DUP1 DUP3 MSTORE PUSH1 0xA SWAP1 DUP3 ADD MSTORE PUSH10 0x139BC81C1C9BD91D58DD PUSH1 0xB2 SHL PUSH1 0x40 DUP3 ADD MSTORE PUSH1 0x60 ADD SWAP1 JUMP JUMPDEST PUSH4 0x4E487B71 PUSH1 0xE0 SHL PUSH0 MSTORE PUSH1 0x41 PUSH1 0x4 MSTORE PUSH1 0x24 PUSH0 REVERT JUMPDEST PUSH1 0x1 DUP2 DUP2 SHR SWAP1 DUP3 AND DUP1 PUSH2 0x1156 JUMPI PUSH1 0x7F DUP3 AND SWAP2 POP JUMPDEST PUSH1 0x20 DUP3 LT DUP2 SUB PUSH2 0x1174 JUMPI PUSH4 0x4E487B71 PUSH1 0xE0 SHL PUSH0 MSTORE PUSH1 0x22 PUSH1 0x4 MSTORE PUSH1 0x24 PUSH0 REVERT JUMPDEST POP SWAP2 SWAP1 POP JUMP JUMPDEST PUSH1 0x1F DUP3 GT ISZERO PUSH2 0x76C JUMPI DUP1 PUSH0 MSTORE PUSH1 0x20 PUSH0 KECCAK256 PUSH1 0x1F DUP5 ADD PUSH1 0x5 SHR DUP2 ADD PUSH1 0x20 DUP6 LT ISZERO PUSH2 0x119F JUMPI POP DUP1 JUMPDEST PUSH1 0x1F DUP5 ADD PUSH1 0x5 SHR DUP3 ADD SWAP2 POP JUMPDEST DUP2 DUP2 LT ISZERO PUSH2 0x9AB JUMPI PUSH0 DUP2 SSTORE PUSH1 0x1 ADD PUSH2 0x11AB JUMP JUMPDEST DUP2 MLOAD PUSH8 0xFFFFFFFFFFFFFFFF DUP2 GT ISZERO PUSH2 0x11D8 JUMPI PUSH2 0x11D8 PUSH2 0x112E JUMP JUMPDEST PUSH2 0x11EC DUP2 PUSH2 0x11E6 DUP5 SLOAD PUSH2 0x1142 JUMP JUMPDEST DUP5 PUSH2 0x117A JUMP JUMPDEST PUSH1 0x20 DUP1 PUSH1 0x1F DUP4 GT PUSH1 0x1 DUP2 EQ PUSH2 0x121F JUMPI PUSH0 DUP5 ISZERO PUSH2 0x1208 JUMPI POP DUP6 DUP4 ADD MLOAD JUMPDEST PUSH0 NOT PUSH1 0x3 DUP7 SWAP1 SHL SHR NOT AND PUSH1 0x1 DUP6 SWAP1 SHL OR DUP6 SSTORE PUSH2 0x1276 JUMP JUMPDEST PUSH0 DUP6 DUP2 MSTORE PUSH1 0x20 DUP2 KECCAK256 PUSH1 0x1F NOT DUP7 AND SWAP2 JUMPDEST DUP3 DUP2 LT ISZERO PUSH2 0x124D JUMPI DUP9 DUP7 ADD MLOAD DUP3 SSTORE SWAP5 DUP5 ADD SWAP5 PUSH1 0x1 SWAP1 SWAP2 ADD SWAP1 DUP5 ADD PUSH2 0x122E JUMP JUMPDEST POP DUP6 DUP3 LT ISZERO PUSH2 0x126A JUMPI DUP8 DUP6 ADD MLOAD PUSH0 NOT PUSH1 0x3 DUP9 SWAP1 SHL PUSH1 0xF8 AND SHR NOT AND DUP2 SSTORE JUMPDEST POP POP PUSH1 0x1 DUP5 PUSH1 0x1 SHL ADD DUP6 SSTORE JUMPDEST POP POP POP POP POP POP JUMP JUMPDEST DUP2 DUP4 MSTORE DUP2 DUP2 PUSH1 0x20 DUP6 ADD CALLDATACOPY POP PUSH0 DUP3 DUP3 ADD PUSH1 0x20 SWAP1 DUP2 ADD SWAP2 SWAP1 SWAP2 MSTORE PUSH1 0x1F SWAP1 SWAP2 ADD PUSH1 0x1F NOT AND SWAP1 SWAP2 ADD ADD SWAP1 JUMP JUMPDEST PUSH1 0x60 DUP2 MSTORE PUSH0 PUSH2 0x12B9 PUSH1 0x60 DUP4 ADD DUP8 DUP10 PUSH2 0x127E JUMP JUMPDEST DUP3 DUP2 SUB PUSH1 0x20 DUP5 ADD MSTORE PUSH2 0x12CC DUP2 DUP7 DUP9 PUSH2 0x127E JUMP JUMPDEST SWAP2 POP POP PUSH8 0xFFFFFFFFFFFFFFFF DUP4 AND PUSH1 0x40 DUP4 ADD MSTORE SWAP7 SWAP6 POP POP POP POP POP POP JUMP JUMPDEST PUSH1 0x40 DUP2 ADD PUSH2 0x12F7 DUP3 DUP6 PUSH2 0xE22 JUMP JUMPDEST DUP3 PUSH1 0x20 DUP4 ADD MSTORE SWAP4 SWAP3 POP POP POP JUMP JUMPDEST PUSH4 0x4E487B71 PUSH1 0xE0 SHL PUSH0 MSTORE PUSH1 0x32 PUSH1 0x4 MSTORE PUSH1 0x24 PUSH0 REVERT JUMPDEST PUSH0 PUSH1 0x20 DUP3 DUP5 SUB SLT ISZERO PUSH2 0x1328 JUMPI PUSH0 DUP1 REVERT JUMPDEST PUSH2 0xDF0 DUP3 PUSH2 0xF92 JUMP INVALID LOG2 PUSH5 0x6970667358 0x22 SLT KECCAK256 0x4D CALLDATACOPY MSIZE 0xAA PC ADDRESS BLOBBASEFEE DIV 0x21 PUSH7 0x6E3B120B442D86 0xCD PUSH8 0x222C0BE01B4EA009 EQ 0xF9 0xCD 0xAD 0xCD PUSH5 0x736F6C6343 STOP ADDMOD XOR STOP CALLER "
	},
	"Assembly": ".code\n  PUSH 80\t\t\tcontract MilkTrace is AccessCo...\n  PUSH 40\t\t\tcontract MilkTrace is AccessCo...\n  MSTORE \t\t\tcontract MilkTrace is AccessCo...\n  CALLVALUE \t\t\tconstructor(address admin) {\\n...\n  DUP1 \t\t\tconstructor(address admin) {\\n...\n  ISZERO \t\t\tconstructor(address admin) {\\n...\n  PUSH [tag] 1\t\t\tconstructor(address admin) {\\n...\n  JUMPI \t\t\tconstructor(address admin) {\\n...\n  PUSH 0\t\t\tconstructor(address admin) {\\n...\n  DUP1 \t\t\tconstructor(address admin) {\\n...\n  REVERT \t\t\tconstructor(address admin) {\\n...\ntag 1\t\t\tconstructor(address admin) {\\n...\n  JUMPDEST \t\t\tconstructor(address admin) {\\n...\n  POP \t\t\tconstructor(address admin) {\\n...\n  PUSH 40\t\t\tconstructor(address admin) {\\n...\n  MLOAD \t\t\tconstructor(address admin) {\\n...\n  PUSHSIZE \t\t\tconstructor(address admin) {\\n...\n  CODESIZE \t\t\tconstructor(address admin) {\\n...\n  SUB \t\t\tconstructor(address admin) {\\n...\n  DUP1 \t\t\tconstructor(address admin) {\\n...\n  PUSHSIZE \t\t\tconstructor(address admin) {\\n...\n  DUP4 \t\t\tconstructor(address admin) {\\n...\n  CODECOPY \t\t\tconstructor(address admin) {\\n...\n  DUP2 \t\t\tconstructor(address admin) {\\n...\n  ADD \t\t\tconstructor(address admin) {\\n...\n  PUSH 40\t\t\tconstructor(address admin) {\\n...\n  DUP2 \t\t\tconstructor(address admin) {\\n...\n  SWAP1 \t\t\tconstructor(address admin) {\\n...\n  MSTORE \t\t\tconstructor(address admin) {\\n...\n  PUSH [tag] 2\t\t\tconstructor(address admin) {\\n...\n  SWAP2 \t\t\tconstructor(address admin) {\\n...\n  PUSH [tag] 3\t\t\tconstructor(address admin) {\\n...\n  JUMP \t\t\tconstructor(address admin) {\\n...\ntag 2\t\t\tconstructor(address admin) {\\n...\n  JUMPDEST \t\t\tconstructor(address admin) {\\n...\n  PUSH [tag] 6\t\t\t_grantRole(DEFAULT_ADMIN_ROLE,...\n  PUSH 0\t\t\tal {\n  DUP3 \t\t\tadmin\n  PUSH [tag] 7\t\t\t_grantRole\n  JUMP \t\t\t_grantRole(DEFAULT_ADMIN_ROLE,...\ntag 6\t\t\t_grantRole(DEFAULT_ADMIN_ROLE,...\n  JUMPDEST \t\t\t_grantRole(DEFAULT_ADMIN_ROLE,...\n  POP \t\t\t_grantRole(DEFAULT_ADMIN_ROLE,...\n  POP \t\t\tconstructor(address admin) {\\n...\n  PUSH [tag] 18\t\t\tcontract MilkTrace is AccessCo...\n  JUMP \t\t\tcontract MilkTrace is AccessCo...\ntag 7\t\t\t\n  JUMPDEST \t\t\t\n  PUSH 0\t\t\t\n  DUP3 \t\t\t\"No product\"\n  DUP2 \t\t\t\"No product\"\n  MSTORE \t\t\t\"No product\"\n  PUSH 20\t\t\t\"No product\"\n  DUP2 \t\t\t\"No product\"\n  DUP2 \t\t\t\"No product\"\n  MSTORE \t\t\t\"No product\"\n  PUSH 40\t\t\t\"No product\"\n  DUP1 \t\t\t\"No product\"\n  DUP4 \t\t\t\"No product\"\n  KECCAK256 \t\t\t\"No product\"\n  PUSH 1\t\t\t\n  PUSH 1\t\t\t\n  PUSH A0\t\t\t\n  SHL \t\t\t\n  SUB \t\t\t\n  DUP6 \t\t\t\"No product\");\\n        return\n  AND \t\t\t\"No product\");\\n        return\n  DUP5 \t\t\t\"No product\");\\n        return\n  MSTORE \t\t\t\"No product\");\\n        return\n  SWAP1 \t\t\t\"No product\");\\n        return\n  SWAP2 \t\t\t\"No product\");\\n        return\n  MSTORE \t\t\t\"No product\");\\n        return\n  DUP2 \t\t\t\"No product\");\\n        return\n  KECCAK256 \t\t\t\"No product\");\\n        return\n  SLOAD \t\t\t\"No product\");\\n        return\n  PUSH FF\t\t\t\"No product\");\\n        return\n  AND \t\t\t\"No product\");\\n        return\n  PUSH [tag] 12\t\t\t\n  JUMPI \t\t\t\n  PUSH 0\t\t\t\n  DUP4 \t\t\t\n  DUP2 \t\t\t\n  MSTORE \t\t\t\n  PUSH 20\t\t\t\n  DUP2 \t\t\t\n  DUP2 \t\t\t\n  MSTORE \t\t\t\n  PUSH 40\t\t\t\n  DUP1 \t\t\t\n  DUP4 \t\t\t\n  KECCAK256 \t\t\t\n  PUSH 1\t\t\t\n  PUSH 1\t\t\t\n  PUSH A0\t\t\t\n  SHL \t\t\t\n  SUB \t\t\t\n  DUP7 \t\t\t\n  AND \t\t\t\n  DUP5 \t\t\t\n  MSTORE \t\t\t\n  SWAP1 \t\t\t\n  SWAP2 \t\t\t\n  MSTORE \t\t\t\n  SWAP1 \t\t\t\n  KECCAK256 \t\t\t\n  DUP1 \t\t\t\n  SLOAD \t\t\t\n  PUSH FF\t\t\t\n  NOT \t\t\t\n  AND \t\t\t\n  PUSH 1\t\t\t\n  OR \t\t\t\n  SWAP1 \t\t\t\n  SSTORE \t\t\t\n  PUSH [tag] 13\t\t\t\n  CALLER \t\t\t32 => Stat\n  SWAP1 \t\t\t32 => Stat\n  JUMP \t\t\tsts;\\n    }\\n\\n    mapping(byt...\ntag 13\t\t\t\n  JUMPDEST \t\t\t\n  PUSH 1\t\t\t\n  PUSH 1\t\t\t\n  PUSH A0\t\t\t\n  SHL \t\t\t\n  SUB \t\t\t\n  AND \t\t\t\n  DUP3 \t\t\t\n  PUSH 1\t\t\t\n  PUSH 1\t\t\t\n  PUSH A0\t\t\t\n  SHL \t\t\t\n  SUB \t\t\t\n  AND \t\t\t\n  DUP5 \t\t\t\n  PUSH 2F8788117E7EFF1D82E926EC794901D17C78024A50270940304540A733656F0D\t\t\t\n  PUSH 40\t\t\t\n  MLOAD \t\t\t\n  PUSH 40\t\t\t\n  MLOAD \t\t\t\n  DUP1 \t\t\t\n  SWAP2 \t\t\t\n  SUB \t\t\t\n  SWAP1 \t\t\t\n  LOG4 \t\t\t\n  POP \t\t\t\n  PUSH 1\t\t\t\n  PUSH [tag] 15\t\t\t\n  JUMP \t\t\t\ntag 12\t\t\t\n  JUMPDEST \t\t\t\n  POP \t\t\t\n  PUSH 0\t\t\t\ntag 15\t\t\t\n  JUMPDEST \t\t\t\n  SWAP3 \t\t\t\n  SWAP2 \t\t\t\n  POP \t\t\t\n  POP \t\t\t\n  JUMP \t\t\t\ntag 3\t\t\te-Identifier: MIT\\npragma soli...\n  JUMPDEST \t\t\te-Identifier: MIT\\npragma soli...\n  PUSH 0\t\t\tracts/\n  PUSH 20\t\t\tis\n  DUP3 \t\t\tt MilkTra\n  DUP5 \t\t\t\\n\\ncontr\n  SUB \t\t\tol\";\\n\\ncontract MilkTrac\n  SLT \t\t\tol.sol\";\\n\\ncontract MilkTrace...\n  ISZERO \t\t\tntrol.sol\";\\n\\ncontract MilkTr...\n  PUSH [tag] 20\t\t\tntrol.sol\";\\n\\ncontract MilkTr...\n  JUMPI \t\t\tntrol.sol\";\\n\\ncontract MilkTr...\n  PUSH 0\t\t\t \n  DUP1 \t\t\tr\n  REVERT \t\t\tessControl {\ntag 20\t\t\tntrol.sol\";\\n\\ncontract MilkTr...\n  JUMPDEST \t\t\tntrol.sol\";\\n\\ncontract MilkTr...\n  DUP2 \t\t\ttant MANUFACTURE\n  MLOAD \t\t\ttant MANUFACTURE\n  PUSH 1\t\t\t\n  PUSH 1\t\t\t\n  PUSH A0\t\t\t\n  SHL \t\t\t\n  SUB \t\t\t\n  DUP2 \t\t\tRER_ROLE\");\\n    bytes32 publi...\n  AND \t\t\tRER_ROLE\");\\n    bytes32 publi...\n  DUP2 \t\t\t\"MANUFACTURER_ROLE\");\\n    byt...\n  EQ \t\t\t\"MANUFACTURER_ROLE\");\\n    byt...\n  PUSH [tag] 21\t\t\tkeccak256(\"MANUFACTURER_ROLE\")...\n  JUMPI \t\t\tkeccak256(\"MANUFACTURER_ROLE\")...\n  PUSH 0\t\t\tT\n  DUP1 \t\t\tL\n  REVERT \t\t\tant COLLECTO\ntag 21\t\t\tkeccak256(\"MANUFACTURER_ROLE\")...\n  JUMPDEST \t\t\tkeccak256(\"MANUFACTURER_ROLE\")...\n  SWAP4 \t\t\t(\"COL\n  SWAP3 \t\t\te-Identifier: MIT\\npragma soli...\n  POP \t\t\t\n  POP \t\t\t\n  POP \t\t\t\n  JUMP \t\t\te-Identifier: MIT\\npragma soli...\ntag 18\t\t\te-Identifier: MIT\\npragma soli...\n  JUMPDEST \t\t\te-Identifier: MIT\\npragma soli...\n  PUSH #[$] 0000000000000000000000000000000000000000000000000000000000000000\t\t\tcontract MilkTrace is AccessCo...\n  DUP1 \t\t\tcontract MilkTrace is AccessCo...\n  PUSH [$] 0000000000000000000000000000000000000000000000000000000000000000\t\t\tcontract MilkTrace is AccessCo...\n  PUSH 0\t\t\tcontract MilkTrace is AccessCo...\n  CODECOPY \t\t\tcontract MilkTrace is AccessCo...\n  PUSH 0\t\t\tcontract MilkTrace is AccessCo...\n  RETURN \t\t\tcontract MilkTrace is AccessCo...\n.data\n  0:\n    .code\n      PUSH 80\t\t\tcontract MilkTrace is AccessCo...\n      PUSH 40\t\t\tcontract MilkTrace is AccessCo...\n      MSTORE \t\t\tcontract MilkTrace is AccessCo...\n      CALLVALUE \t\t\tcontract MilkTrace is AccessCo...\n      DUP1 \t\t\tcontract MilkTrace is AccessCo...\n      ISZERO \t\t\tcontract MilkTrace is AccessCo...\n      PUSH [tag] 1\t\t\tcontract MilkTrace is AccessCo...\n      JUMPI \t\t\tcontract MilkTrace is AccessCo...\n      PUSH 0\t\t\tcontract MilkTrace is AccessCo...\n      DUP1 \t\t\tcontract MilkTrace is AccessCo...\n      REVERT \t\t\tcontract MilkTrace is AccessCo...\n    tag 1\t\t\tcontract MilkTrace is AccessCo...\n      JUMPDEST \t\t\tcontract MilkTrace is AccessCo...\n      POP \t\t\tcontract MilkTrace is AccessCo...\n      PUSH 4\t\t\tcontract MilkTrace is AccessCo...\n      CALLDATASIZE \t\t\tcontract MilkTrace is AccessCo...\n      LT \t\t\tcontract MilkTrace is AccessCo...\n      PUSH [tag] 2\t\t\tcontract MilkTrace is AccessCo...\n      JUMPI \t\t\tcontract MilkTrace is AccessCo...\n      PUSH 0\t\t\tcontract MilkTrace is AccessCo...\n      CALLDATALOAD \t\t\tcontract MilkTrace is AccessCo...\n      PUSH E0\t\t\tcontract MilkTrace is AccessCo...\n      SHR \t\t\tcontract MilkTrace is AccessCo...\n      DUP1 \t\t\tcontract MilkTrace is AccessCo...\n      PUSH 7C66AC85\t\t\tcontract MilkTrace is AccessCo...\n      GT \t\t\tcontract MilkTrace is AccessCo...\n      PUSH [tag] 21\t\t\tcontract MilkTrace is AccessCo...\n      JUMPI \t\t\tcontract MilkTrace is AccessCo...\n      DUP1 \t\t\tcontract MilkTrace is AccessCo...\n      PUSH A217FDDF\t\t\tcontract MilkTrace is AccessCo...\n      GT \t\t\tcontract MilkTrace is AccessCo...\n      PUSH [tag] 22\t\t\tcontract MilkTrace is AccessCo...\n      JUMPI \t\t\tcontract MilkTrace is AccessCo...\n      DUP1 \t\t\tcontract MilkTrace is AccessCo...\n      PUSH A217FDDF\t\t\tcontract MilkTrace is AccessCo...\n      EQ \t\t\tcontract MilkTrace is AccessCo...\n      PUSH [tag] 16\t\t\tcontract MilkTrace is AccessCo...\n      JUMPI \t\t\tcontract MilkTrace is AccessCo...\n      DUP1 \t\t\tcontract MilkTrace is AccessCo...\n      PUSH B2DCB90C\t\t\tcontract MilkTrace is AccessCo...\n      EQ \t\t\tcontract MilkTrace is AccessCo...\n      PUSH [tag] 17\t\t\tcontract MilkTrace is AccessCo...\n      JUMPI \t\t\tcontract MilkTrace is AccessCo...\n      DUP1 \t\t\tcontract MilkTrace is AccessCo...\n      PUSH D547741F\t\t\tcontract MilkTrace is AccessCo...\n      EQ \t\t\tcontract MilkTrace is AccessCo...\n      PUSH [tag] 18\t\t\tcontract MilkTrace is AccessCo...\n      JUMPI \t\t\tcontract MilkTrace is AccessCo...\n      DUP1 \t\t\tcontract MilkTrace is AccessCo...\n      PUSH DC04D247\t\t\tcontract MilkTrace is AccessCo...\n      EQ \t\t\tcontract MilkTrace is AccessCo...\n      PUSH [tag] 19\t\t\tcontract MilkTrace is AccessCo...\n      JUMPI \t\t\tcontract MilkTrace is AccessCo...\n      DUP1 \t\t\tcontract MilkTrace is AccessCo...\n      PUSH EF9C6271\t\t\tcontract MilkTrace is AccessCo...\n      EQ \t\t\tcontract MilkTrace is AccessCo...\n      PUSH [tag] 20\t\t\tcontract MilkTrace is AccessCo...\n      JUMPI \t\t\tcontract MilkTrace is AccessCo...\n      PUSH 0\t\t\tcontract MilkTrace is AccessCo...\n      DUP1 \t\t\tcontract MilkTrace is AccessCo...\n      REVERT \t\t\tcontract MilkTrace is AccessCo...\n    tag 22\t\t\tcontract MilkTrace is AccessCo...\n      JUMPDEST \t\t\tcontract MilkTrace is AccessCo...\n      DUP1 \t\t\tcontract MilkTrace is AccessCo...\n      PUSH 7C66AC85\t\t\tcontract MilkTrace is AccessCo...\n      EQ \t\t\tcontract MilkTrace is AccessCo...\n      PUSH [tag] 12\t\t\tcontract MilkTrace is AccessCo...\n      JUMPI \t\t\tcontract MilkTrace is AccessCo...\n      DUP1 \t\t\tcontract MilkTrace is AccessCo...\n      PUSH 91D14854\t\t\tcontract MilkTrace is AccessCo...\n      EQ \t\t\tcontract MilkTrace is AccessCo...\n      PUSH [tag] 13\t\t\tcontract MilkTrace is AccessCo...\n      JUMPI \t\t\tcontract MilkTrace is AccessCo...\n      DUP1 \t\t\tcontract MilkTrace is AccessCo...\n      PUSH 965288B0\t\t\tcontract MilkTrace is AccessCo...\n      EQ \t\t\tcontract MilkTrace is AccessCo...\n      PUSH [tag] 14\t\t\tcontract MilkTrace is AccessCo...\n      JUMPI \t\t\tcontract MilkTrace is AccessCo...\n      DUP1 \t\t\tcontract MilkTrace is AccessCo...\n      PUSH 9CA39AE9\t\t\tcontract MilkTrace is AccessCo...\n      EQ \t\t\tcontract MilkTrace is AccessCo...\n      PUSH [tag] 15\t\t\tcontract MilkTrace is AccessCo...\n      JUMPI \t\t\tcontract MilkTrace is AccessCo...\n      PUSH 0\t\t\tcontract MilkTrace is AccessCo...\n      DUP1 \t\t\tcontract MilkTrace is AccessCo...\n      REVERT \t\t\tcontract MilkTrace is AccessCo...\n    tag 21\t\t\tcontract MilkTrace is AccessCo...\n      JUMPDEST \t\t\tcontract MilkTrace is AccessCo...\n      DUP1 \t\t\tcontract MilkTrace is AccessCo...\n      PUSH 248A9CA3\t\t\tcontract MilkTrace is AccessCo...\n      GT \t\t\tcontract MilkTrace is AccessCo...\n      PUSH [tag] 23\t\t\tcontract MilkTrace is AccessCo...\n      JUMPI \t\t\tcontract MilkTrace is AccessCo...\n      DUP1 \t\t\tcontract MilkTrace is AccessCo...\n      PUSH 248A9CA3\t\t\tcontract MilkTrace is AccessCo...\n      EQ \t\t\tcontract MilkTrace is AccessCo...\n      PUSH [tag] 7\t\t\tcontract MilkTrace is AccessCo...\n      JUMPI \t\t\tcontract MilkTrace is AccessCo...\n      DUP1 \t\t\tcontract MilkTrace is AccessCo...\n      PUSH 2F2FF15D\t\t\tcontract MilkTrace is AccessCo...\n      EQ \t\t\tcontract MilkTrace is AccessCo...\n      PUSH [tag] 8\t\t\tcontract MilkTrace is AccessCo...\n      JUMPI \t\t\tcontract MilkTrace is AccessCo...\n      DUP1 \t\t\tcontract MilkTrace is AccessCo...\n      PUSH 36568ABE\t\t\tcontract MilkTrace is AccessCo...\n      EQ \t\t\tcontract MilkTrace is AccessCo...\n      PUSH [tag] 9\t\t\tcontract MilkTrace is AccessCo...\n      JUMPI \t\t\tcontract MilkTrace is AccessCo...\n      DUP1 \t\t\tcontract MilkTrace is AccessCo...\n      PUSH 3A20E9DF\t\t\tcontract MilkTrace is AccessCo...\n      EQ \t\t\tcontract MilkTrace is AccessCo...\n      PUSH [tag] 10\t\t\tcontract MilkTrace is AccessCo...\n      JUMPI \t\t\tcontract MilkTrace is AccessCo...\n      DUP1 \t\t\tcontract MilkTrace is AccessCo...\n      PUSH 53E6A522\t\t\tcontract MilkTrace is AccessCo...\n      EQ \t\t\tcontract MilkTrace is AccessCo...\n      PUSH [tag] 11\t\t\tcontract MilkTrace is AccessCo...\n      JUMPI \t\t\tcontract MilkTrace is AccessCo...\n      PUSH 0\t\t\tcontract MilkTrace is AccessCo...\n      DUP1 \t\t\tcontract MilkTrace is AccessCo...\n      REVERT \t\t\tcontract MilkTrace is AccessCo...\n    tag 23\t\t\tcontract MilkTrace is AccessCo...\n      JUMPDEST \t\t\tcontract MilkTrace is AccessCo...\n      DUP1 \t\t\tcontract MilkTrace is AccessCo...\n      PUSH 1FFC9A7\t\t\tcontract MilkTrace is AccessCo...\n      EQ \t\t\tcontract MilkTrace is AccessCo...\n      PUSH [tag] 3\t\t\tcontract MilkTrace is AccessCo...\n      JUMPI \t\t\tcontract MilkTrace is AccessCo...\n      DUP1 \t\t\tcontract MilkTrace is AccessCo...\n      PUSH 115D620D\t\t\tcontract MilkTrace is AccessCo...\n      EQ \t\t\tcontract MilkTrace is AccessCo...\n      PUSH [tag] 4\t\t\tcontract MilkTrace is AccessCo...\n      JUMPI \t\t\tcontract MilkTrace is AccessCo...\n      DUP1 \t\t\tcontract MilkTrace is AccessCo...\n      PUSH 173A25B2\t\t\tcontract MilkTrace is AccessCo...\n      EQ \t\t\tcontract MilkTrace is AccessCo...\n      PUSH [tag] 5\t\t\tcontract MilkTrace is AccessCo...\n      JUMPI \t\t\tcontract MilkTrace is AccessCo...\n      DUP1 \t\t\tcontract MilkTrace is AccessCo...\n      PUSH 2115E7BF\t\t\tcontract MilkTrace is AccessCo...\n      EQ \t\t\tcontract MilkTrace is AccessCo...\n      PUSH [tag] 6\t\t\tcontract MilkTrace is AccessCo...\n      JUMPI \t\t\tcontract MilkTrace is AccessCo...\n    tag 2\t\t\tcontract MilkTrace is AccessCo...\n      JUMPDEST \t\t\tcontract MilkTrace is AccessCo...\n      PUSH 0\t\t\tcontract MilkTrace is AccessCo...\n      DUP1 \t\t\tcontract MilkTrace is AccessCo...\n      REVERT \t\t\tcontract MilkTrace is AccessCo...\n    tag 3\t\t\traceUpdated(productId, target,...\n      JUMPDEST \t\t\traceUpdated(productId, target,...\n      PUSH [tag] 24\t\t\traceUpdated(productId, target,...\n      PUSH [tag] 25\t\t\traceUpdated(productId, target,...\n      CALLDATASIZE \t\t\traceUpdated(productId, target,...\n      PUSH 4\t\t\traceUpdated(productId, target,...\n      PUSH [tag] 26\t\t\traceUpdated(productId, target,...\n      JUMP \t\t\traceUpdated(productId, target,...\n    tag 25\t\t\traceUpdated(productId, target,...\n      JUMPDEST \t\t\traceUpdated(productId, target,...\n      PUSH [tag] 27\t\t\traceUpdated(productId, target,...\n      JUMP \t\t\traceUpdated(productId, target,...\n    tag 24\t\t\traceUpdated(productId, target,...\n      JUMPDEST \t\t\traceUpdated(productId, target,...\n      PUSH 40\t\t\traceUpdated(productId, target,...\n      MLOAD \t\t\traceUpdated(productId, target,...\n      SWAP1 \t\t\tnum Status { I\n      ISZERO \t\t\tnum Status { I\n      ISZERO \t\t\t\\n\\n    enum Status { In\n      DUP2 \t\t\t(\"RETAILER_ROLE\");\\n\\n    enum...\n      MSTORE \t\t\t(\"RETAILER_ROLE\");\\n\\n    enum...\n      PUSH 20\t\t\t =\n      ADD \t\t\tTAILER_ROLE     = \n    tag 28\t\t\traceUpdated(productId, target,...\n      JUMPDEST \t\t\traceUpdated(productId, target,...\n      PUSH 40\t\t\traceUpdated(productId, target,...\n      MLOAD \t\t\traceUpdated(productId, target,...\n      DUP1 \t\t\traceUpdated(productId, target,...\n      SWAP2 \t\t\traceUpdated(productId, target,...\n      SUB \t\t\traceUpdated(productId, target,...\n      SWAP1 \t\t\traceUpdated(productId, target,...\n      RETURN \t\t\traceUpdated(productId, target,...\n    tag 4\t\t\tfunction getHistory(bytes32 pr...\n      JUMPDEST \t\t\tfunction getHistory(bytes32 pr...\n      PUSH [tag] 30\t\t\tfunction getHistory(bytes32 pr...\n      PUSH [tag] 31\t\t\tfunction getHistory(bytes32 pr...\n      CALLDATASIZE \t\t\tfunction getHistory(bytes32 pr...\n      PUSH 4\t\t\tfunction getHistory(bytes32 pr...\n      PUSH [tag] 32\t\t\tfunction getHistory(bytes32 pr...\n      JUMP \t\t\tfunction getHistory(bytes32 pr...\n    tag 31\t\t\tfunction getHistory(bytes32 pr...\n      JUMPDEST \t\t\tfunction getHistory(bytes32 pr...\n      PUSH [tag] 33\t\t\tfunction getHistory(bytes32 pr...\n      JUMP \t\t\tfunction getHistory(bytes32 pr...\n    tag 30\t\t\tfunction getHistory(bytes32 pr...\n      JUMPDEST \t\t\tfunction getHistory(bytes32 pr...\n      PUSH 40\t\t\tfunction getHistory(bytes32 pr...\n      MLOAD \t\t\tfunction getHistory(bytes32 pr...\n      PUSH [tag] 28\t\t\tfunction getHistory(bytes32 pr...\n      SWAP3 \t\t\tfunction getHistory(bytes32 pr...\n      SWAP2 \t\t\tfunction getHistory(bytes32 pr...\n      SWAP1 \t\t\tfunction getHistory(bytes32 pr...\n      PUSH [tag] 35\t\t\tfunction getHistory(bytes32 pr...\n      JUMP \t\t\tfunction getHistory(bytes32 pr...\n    tag 5\t\t\tfunction registerProduct(bytes...\n      JUMPDEST \t\t\tfunction registerProduct(bytes...\n      PUSH [tag] 36\t\t\tfunction registerProduct(bytes...\n      PUSH [tag] 37\t\t\tfunction registerProduct(bytes...\n      CALLDATASIZE \t\t\tfunction registerProduct(bytes...\n      PUSH 4\t\t\tfunction registerProduct(bytes...\n      PUSH [tag] 38\t\t\tfunction registerProduct(bytes...\n      JUMP \t\t\tfunction registerProduct(bytes...\n    tag 37\t\t\tfunction registerProduct(bytes...\n      JUMPDEST \t\t\tfunction registerProduct(bytes...\n      PUSH [tag] 39\t\t\tfunction registerProduct(bytes...\n      JUMP \t\t\tfunction registerProduct(bytes...\n    tag 36\t\t\tfunction registerProduct(bytes...\n      JUMPDEST \t\t\tfunction registerProduct(bytes...\n      STOP \t\t\tfunction registerProduct(bytes...\n    tag 6\t\t\tbytes32 public constant RETAIL...\n      JUMPDEST \t\t\tbytes32 public constant RETAIL...\n      PUSH [tag] 40\t\t\tbytes32 public constant RETAIL...\n      PUSH 2A5F906C256A5D799494FCD066E1F6C077689DE1CDB65052A1624DE4BACE99BF\t\t\tkeccak256(\"RETAILER_ROLE\")\n      DUP2 \t\t\tbytes32 public constant RETAIL...\n      JUMP \t\t\tbytes32 public constant RETAIL...\n    tag 40\t\t\tbytes32 public constant RETAIL...\n      JUMPDEST \t\t\tbytes32 public constant RETAIL...\n      PUSH 40\t\t\tbytes32 public constant RETAIL...\n      MLOAD \t\t\tbytes32 public constant RETAIL...\n      SWAP1 \t\t\t\n      DUP2 \t\t\t\n      MSTORE \t\t\t\n      PUSH 20\t\t\t\n      ADD \t\t\t\n      PUSH [tag] 28\t\t\tbytes32 public constant RETAIL...\n      JUMP \t\t\t\n    tag 7\t\t\t\n      JUMPDEST \t\t\t\n      PUSH [tag] 40\t\t\t\n      PUSH [tag] 45\t\t\t\n      CALLDATASIZE \t\t\t\n      PUSH 4\t\t\t\n      PUSH [tag] 32\t\t\t\n      JUMP \t\t\t\n    tag 45\t\t\t\n      JUMPDEST \t\t\t\n      PUSH 0\t\t\t\n      SWAP1 \t\t\t\n      DUP2 \t\t\t\n      MSTORE \t\t\t\n      PUSH 20\t\t\t\n      DUP2 \t\t\t\n      SWAP1 \t\t\t\n      MSTORE \t\t\t\n      PUSH 40\t\t\t\n      SWAP1 \t\t\t\n      KECCAK256 \t\t\t\n      PUSH 1\t\t\t\n      ADD \t\t\t\n      SLOAD \t\t\t\n      SWAP1 \t\t\t\n      JUMP \t\t\t\n    tag 8\t\t\t\n      JUMPDEST \t\t\t\n      PUSH [tag] 36\t\t\t\n      PUSH [tag] 49\t\t\t\n      CALLDATASIZE \t\t\t\n      PUSH 4\t\t\t\n      PUSH [tag] 50\t\t\t\n      JUMP \t\t\t\n    tag 49\t\t\t\n      JUMPDEST \t\t\t\n      PUSH [tag] 51\t\t\t\n      JUMP \t\t\t\n    tag 9\t\t\t\n      JUMPDEST \t\t\t\n      PUSH [tag] 36\t\t\t\n      PUSH [tag] 53\t\t\t\n      CALLDATASIZE \t\t\t\n      PUSH 4\t\t\t\n      PUSH [tag] 50\t\t\t\n      JUMP \t\t\t\n    tag 53\t\t\t\n      JUMPDEST \t\t\t\n      PUSH [tag] 54\t\t\t\n      JUMP \t\t\t\n    tag 10\t\t\tfunction getProduct(bytes32 pr...\n      JUMPDEST \t\t\tfunction getProduct(bytes32 pr...\n      PUSH [tag] 55\t\t\tfunction getProduct(bytes32 pr...\n      PUSH [tag] 56\t\t\tfunction getProduct(bytes32 pr...\n      CALLDATASIZE \t\t\tfunction getProduct(bytes32 pr...\n      PUSH 4\t\t\tfunction getProduct(bytes32 pr...\n      PUSH [tag] 32\t\t\tfunction getProduct(bytes32 pr...\n      JUMP \t\t\tfunction getProduct(bytes32 pr...\n    tag 56\t\t\tfunction getProduct(bytes32 pr...\n      JUMPDEST \t\t\tfunction getProduct(bytes32 pr...\n      PUSH [tag] 57\t\t\tfunction getProduct(bytes32 pr...\n      JUMP \t\t\tfunction getProduct(bytes32 pr...\n    tag 55\t\t\tfunction getProduct(bytes32 pr...\n      JUMPDEST \t\t\tfunction getProduct(bytes32 pr...\n      PUSH 40\t\t\tfunction getProduct(bytes32 pr...\n      MLOAD \t\t\tfunction getProduct(bytes32 pr...\n      PUSH [tag] 28\t\t\tfunction getProduct(bytes32 pr...\n      SWAP2 \t\t\tfunction getProduct(bytes32 pr...\n      SWAP1 \t\t\tfunction getProduct(bytes32 pr...\n      PUSH [tag] 59\t\t\tfunction getProduct(bytes32 pr...\n      JUMP \t\t\tfunction getProduct(bytes32 pr...\n    tag 11\t\t\tfunction grantMany(bytes32 rol...\n      JUMPDEST \t\t\tfunction grantMany(bytes32 rol...\n      PUSH [tag] 36\t\t\tfunction grantMany(bytes32 rol...\n      PUSH [tag] 61\t\t\tfunction grantMany(bytes32 rol...\n      CALLDATASIZE \t\t\tfunction grantMany(bytes32 rol...\n      PUSH 4\t\t\tfunction grantMany(bytes32 rol...\n      PUSH [tag] 62\t\t\tfunction grantMany(bytes32 rol...\n      JUMP \t\t\tfunction grantMany(bytes32 rol...\n    tag 61\t\t\tfunction grantMany(bytes32 rol...\n      JUMPDEST \t\t\tfunction grantMany(bytes32 rol...\n      PUSH [tag] 63\t\t\tfunction grantMany(bytes32 rol...\n      JUMP \t\t\tfunction grantMany(bytes32 rol...\n    tag 12\t\t\tfunction setRetail(bytes32 pro...\n      JUMPDEST \t\t\tfunction setRetail(bytes32 pro...\n      PUSH [tag] 36\t\t\tfunction setRetail(bytes32 pro...\n      PUSH [tag] 65\t\t\tfunction setRetail(bytes32 pro...\n      CALLDATASIZE \t\t\tfunction setRetail(bytes32 pro...\n      PUSH 4\t\t\tfunction setRetail(bytes32 pro...\n      PUSH [tag] 32\t\t\tfunction setRetail(bytes32 pro...\n      JUMP \t\t\tfunction setRetail(bytes32 pro...\n    tag 65\t\t\tfunction setRetail(bytes32 pro...\n      JUMPDEST \t\t\tfunction setRetail(bytes32 pro...\n      PUSH [tag] 66\t\t\tfunction setRetail(bytes32 pro...\n      JUMP \t\t\tfunction setRetail(bytes32 pro...\n    tag 13\t\t\trnal view returns (Status[] me...\n      JUMPDEST \t\t\trnal view returns (Status[] me...\n      PUSH [tag] 24\t\t\trnal view returns (Status[] me...\n      PUSH [tag] 68\t\t\trnal view returns (Status[] me...\n      CALLDATASIZE \t\t\trnal view returns (Status[] me...\n      PUSH 4\t\t\trnal view returns (Status[] me...\n      PUSH [tag] 50\t\t\trnal view returns (Status[] me...\n      JUMP \t\t\trnal view returns (Status[] me...\n    tag 68\t\t\trnal view returns (Status[] me...\n      JUMPDEST \t\t\trnal view returns (Status[] me...\n      PUSH [tag] 69\t\t\trnal view returns (Status[] me...\n      JUMP \t\t\trnal view returns (Status[] me...\n    tag 14\t\t\tbytes32 public constant MANUFA...\n      JUMPDEST \t\t\tbytes32 public constant MANUFA...\n      PUSH [tag] 40\t\t\tbytes32 public constant MANUFA...\n      PUSH EEFB95E842A3287179D933B4460BE539A1D5AF11AA8B325BB45C5C8DC92DE4ED\t\t\tkeccak256(\"MANUFACTURER_ROLE\")\n      DUP2 \t\t\tbytes32 public constant MANUFA...\n      JUMP \t\t\tbytes32 public constant MANUFA...\n    tag 15\t\t\tbytes32 public constant COLLEC...\n      JUMPDEST \t\t\tbytes32 public constant COLLEC...\n      PUSH [tag] 40\t\t\tbytes32 public constant COLLEC...\n      PUSH 14CF45180C3FCF249A5A305E9657EA05C14FD4F4E1800EE0216A8213091711D2\t\t\tkeccak256(\"COLLECTOR_ROLE\")\n      DUP2 \t\t\tbytes32 public constant COLLEC...\n      JUMP \t\t\tbytes32 public constant COLLEC...\n    tag 16\t\t\td, Status target, Status requi...\n      JUMPDEST \t\t\td, Status target, Status requi...\n      PUSH [tag] 40\t\t\td, Status target, Status requi...\n      PUSH 0\t\t\tal {\n      DUP2 \t\t\td, Status target, Status requi...\n      JUMP \t\t\td, Status target, Status requi...\n    tag 17\t\t\tfunction setCollected(bytes32 ...\n      JUMPDEST \t\t\tfunction setCollected(bytes32 ...\n      PUSH [tag] 36\t\t\tfunction setCollected(bytes32 ...\n      PUSH [tag] 81\t\t\tfunction setCollected(bytes32 ...\n      CALLDATASIZE \t\t\tfunction setCollected(bytes32 ...\n      PUSH 4\t\t\tfunction setCollected(bytes32 ...\n      PUSH [tag] 32\t\t\tfunction setCollected(bytes32 ...\n      JUMP \t\t\tfunction setCollected(bytes32 ...\n    tag 81\t\t\tfunction setCollected(bytes32 ...\n      JUMPDEST \t\t\tfunction setCollected(bytes32 ...\n      PUSH [tag] 82\t\t\tfunction setCollected(bytes32 ...\n      JUMP \t\t\tfunction setCollected(bytes32 ...\n    tag 18\t\t\t\n      JUMPDEST \t\t\t\n      PUSH [tag] 36\t\t\t\n      PUSH [tag] 84\t\t\t\n      CALLDATASIZE \t\t\t\n      PUSH 4\t\t\t\n      PUSH [tag] 50\t\t\t\n      JUMP \t\t\t\n    tag 84\t\t\t\n      JUMPDEST \t\t\t\n      PUSH [tag] 85\t\t\t\n      JUMP \t\t\t\n    tag 19\t\t\tbytes32 public constant CUSTOM...\n      JUMPDEST \t\t\tbytes32 public constant CUSTOM...\n      PUSH [tag] 40\t\t\tbytes32 public constant CUSTOM...\n      PUSH 545CD3008E8205610EC65C7CA17F448815C2AB7EAAD3609FE9D3A0AED3356536\t\t\tkeccak256(\"CUSTOMS_ROLE\")\n      DUP2 \t\t\tbytes32 public constant CUSTOM...\n      JUMP \t\t\tbytes32 public constant CUSTOM...\n    tag 20\t\t\tfunction setCleared(bytes32 pr...\n      JUMPDEST \t\t\tfunction setCleared(bytes32 pr...\n      PUSH [tag] 36\t\t\tfunction setCleared(bytes32 pr...\n      PUSH [tag] 90\t\t\tfunction setCleared(bytes32 pr...\n      CALLDATASIZE \t\t\tfunction setCleared(bytes32 pr...\n      PUSH 4\t\t\tfunction setCleared(bytes32 pr...\n      PUSH [tag] 32\t\t\tfunction setCleared(bytes32 pr...\n      JUMP \t\t\tfunction setCleared(bytes32 pr...\n    tag 90\t\t\tfunction setCleared(bytes32 pr...\n      JUMPDEST \t\t\tfunction setCleared(bytes32 pr...\n      PUSH [tag] 91\t\t\tfunction setCleared(bytes32 pr...\n      JUMP \t\t\tfunction setCleared(bytes32 pr...\n    tag 27\t\t\traceUpdated(productId, target,...\n      JUMPDEST \t\t\traceUpdated(productId, target,...\n      PUSH 0\t\t\t32 p\n      PUSH 1\t\t\t\n      PUSH 1\t\t\t\n      PUSH E0\t\t\t\n      SHL \t\t\t\n      SUB \t\t\t\n      NOT \t\t\t\n      DUP3 \t\t\tview returns (Product memory) ...\n      AND \t\t\tview returns (Product memory) ...\n      PUSH 7965DB0B\t\t\t\n      PUSH E0\t\t\t\n      SHL \t\t\t\n      EQ \t\t\tview returns (Product memory) ...\n      DUP1 \t\t\tview returns (Product memory) ...\n      PUSH [tag] 94\t\t\tview returns (Product memory) ...\n      JUMPI \t\t\tview returns (Product memory) ...\n      POP \t\t\t\n      PUSH 1FFC9A7\t\t\t\n      PUSH E0\t\t\t\n      SHL \t\t\t\n      PUSH 1\t\t\t\n      PUSH 1\t\t\t\n      PUSH E0\t\t\t\n      SHL \t\t\t\n      SUB \t\t\t\n      NOT \t\t\t\n      DUP4 \t\t\t\\n    event ProductRegistered(...\n      AND \t\t\t\\n    event ProductRegistered(...\n      EQ \t\t\t\\n    event ProductRegistered(...\n    tag 94\t\t\tducts[productId].exists, \"No p...\n      JUMPDEST \t\t\tducts[productId].exists, \"No p...\n      SWAP3 \t\t\tternal view returns (Product m...\n      SWAP2 \t\t\traceUpdated(productId, target,...\n      POP \t\t\t\n      POP \t\t\t\n      JUMP \t\t\traceUpdated(productId, target,...\n    tag 33\t\t\tfunction getHistory(bytes32 pr...\n      JUMPDEST \t\t\tfunction getHistory(bytes32 pr...\n      PUSH 0\t\t\tproducts[productId]\n      DUP2 \t\t\tproducts[productId]\n      DUP2 \t\t\tproducts[productId]\n      MSTORE \t\t\tproducts[productId]\n      PUSH 1\t\t\tproducts\n      PUSH 20\t\t\tproducts[productId]\n      MSTORE \t\t\tproducts[productId]\n      PUSH 40\t\t\tproducts[productId]\n      SWAP1 \t\t\tproducts[productId]\n      KECCAK256 \t\t\tproducts[productId]\n      PUSH 2\t\t\tproducts[productId].exists\n      ADD \t\t\tproducts[productId].exists\n      SLOAD \t\t\tproducts[productId].exists\n      PUSH 60\t\t\tStatus[] memory\n      SWAP1 \t\t\tStatus[] memory\n      DUP2 \t\t\tStatus[] memory\n      SWAP1 \t\t\tStatus[] memory\n      PUSH 1\t\t\t\n      PUSH 48\t\t\t\n      SHL \t\t\t\n      SWAP1 \t\t\tproducts[productId].exists\n      DIV \t\t\tproducts[productId].exists\n      PUSH FF\t\t\tproducts[productId].exists\n      AND \t\t\tproducts[productId].exists\n      PUSH [tag] 97\t\t\trequire(products[productId].ex...\n      JUMPI \t\t\trequire(products[productId].ex...\n      PUSH 40\t\t\trequire(products[productId].ex...\n      MLOAD \t\t\trequire(products[productId].ex...\n      PUSH 461BCD\t\t\t\n      PUSH E5\t\t\t\n      SHL \t\t\t\n      DUP2 \t\t\trequire(products[productId].ex...\n      MSTORE \t\t\trequire(products[productId].ex...\n      PUSH 4\t\t\trequire(products[productId].ex...\n      ADD \t\t\trequire(products[productId].ex...\n      PUSH [tag] 98\t\t\trequire(products[productId].ex...\n      SWAP1 \t\t\trequire(products[productId].ex...\n      PUSH [tag] 99\t\t\trequire(products[productId].ex...\n      JUMP \t\t\trequire(products[productId].ex...\n    tag 98\t\t\trequire(products[productId].ex...\n      JUMPDEST \t\t\trequire(products[productId].ex...\n      PUSH 40\t\t\trequire(products[productId].ex...\n      MLOAD \t\t\trequire(products[productId].ex...\n      DUP1 \t\t\trequire(products[productId].ex...\n      SWAP2 \t\t\trequire(products[productId].ex...\n      SUB \t\t\trequire(products[productId].ex...\n      SWAP1 \t\t\trequire(products[productId].ex...\n      REVERT \t\t\trequire(products[productId].ex...\n    tag 97\t\t\trequire(products[productId].ex...\n      JUMPDEST \t\t\trequire(products[productId].ex...\n      PUSH 0\t\t\tstatusHistory[productId]\n      DUP4 \t\t\tstatusHistory[productId]\n      DUP2 \t\t\tstatusHistory[productId]\n      MSTORE \t\t\tstatusHistory[productId]\n      PUSH 2\t\t\tstatusHistory\n      PUSH 20\t\t\tstatusHistory[productId]\n      SWAP1 \t\t\tstatusHistory[productId]\n      DUP2 \t\t\tstatusHistory[productId]\n      MSTORE \t\t\tstatusHistory[productId]\n      PUSH 40\t\t\tstatusHistory[productId]\n      DUP1 \t\t\tstatusHistory[productId]\n      DUP4 \t\t\tstatusHistory[productId]\n      KECCAK256 \t\t\tstatusHistory[productId]\n      PUSH 3\t\t\ttimeHistory\n      DUP4 \t\t\ttimeHistory[productId]\n      MSTORE \t\t\ttimeHistory[productId]\n      SWAP3 \t\t\ttimeHistory[productId]\n      DUP2 \t\t\ttimeHistory[productId]\n      SWAP1 \t\t\ttimeHistory[productId]\n      KECCAK256 \t\t\ttimeHistory[productId]\n      DUP4 \t\t\treturn (statusHistory[productI...\n      SLOAD \t\t\treturn (statusHistory[productI...\n      DUP3 \t\t\treturn (statusHistory[productI...\n      MLOAD \t\t\treturn (statusHistory[productI...\n      DUP2 \t\t\treturn (statusHistory[productI...\n      DUP6 \t\t\treturn (statusHistory[productI...\n      MUL \t\t\treturn (statusHistory[productI...\n      DUP2 \t\t\treturn (statusHistory[productI...\n      ADD \t\t\treturn (statusHistory[productI...\n      DUP6 \t\t\treturn (statusHistory[productI...\n      ADD \t\t\treturn (statusHistory[productI...\n      SWAP1 \t\t\treturn (statusHistory[productI...\n      SWAP4 \t\t\treturn (statusHistory[productI...\n      MSTORE \t\t\treturn (statusHistory[productI...\n      DUP1 \t\t\treturn (statusHistory[productI...\n      DUP4 \t\t\treturn (statusHistory[productI...\n      MSTORE \t\t\treturn (statusHistory[productI...\n      SWAP1 \t\t\ttimeHistory[productId]\n      SWAP3 \t\t\ttimeHistory[productId]\n      DUP5 \t\t\tstatusHistory[productId]\n      SWAP2 \t\t\tstatusHistory[productId]\n      SWAP1 \t\t\treturn (statusHistory[productI...\n      DUP4 \t\t\treturn (statusHistory[productI...\n      ADD \t\t\treturn (statusHistory[productI...\n      DUP3 \t\t\tstatusHistory[productId]\n      DUP3 \t\t\treturn (statusHistory[productI...\n      DUP1 \t\t\treturn (statusHistory[productI...\n      ISZERO \t\t\treturn (statusHistory[productI...\n      PUSH [tag] 100\t\t\treturn (statusHistory[productI...\n      JUMPI \t\t\treturn (statusHistory[productI...\n      PUSH 20\t\t\treturn (statusHistory[productI...\n      MUL \t\t\treturn (statusHistory[productI...\n      DUP3 \t\t\treturn (statusHistory[productI...\n      ADD \t\t\treturn (statusHistory[productI...\n      SWAP2 \t\t\treturn (statusHistory[productI...\n      SWAP1 \t\t\treturn (statusHistory[productI...\n      PUSH 0\t\t\treturn (statusHistory[productI...\n      MSTORE \t\t\treturn (statusHistory[productI...\n      PUSH 20\t\t\treturn (statusHistory[productI...\n      PUSH 0\t\t\treturn (statusHistory[productI...\n      KECCAK256 \t\t\treturn (statusHistory[productI...\n      SWAP1 \t\t\treturn (statusHistory[productI...\n      PUSH 0\t\t\treturn (statusHistory[productI...\n      SWAP1 \t\t\treturn (statusHistory[productI...\n    tag 101\t\t\treturn (statusHistory[productI...\n      JUMPDEST \t\t\treturn (statusHistory[productI...\n      DUP3 \t\t\treturn (statusHistory[productI...\n      DUP3 \t\t\treturn (statusHistory[productI...\n      SWAP1 \t\t\treturn (statusHistory[productI...\n      SLOAD \t\t\treturn (statusHistory[productI...\n      SWAP1 \t\t\treturn (statusHistory[productI...\n      PUSH 100\t\t\treturn (statusHistory[productI...\n      EXP \t\t\treturn (statusHistory[productI...\n      SWAP1 \t\t\treturn (statusHistory[productI...\n      DIV \t\t\treturn (statusHistory[productI...\n      PUSH FF\t\t\treturn (statusHistory[productI...\n      AND \t\t\treturn (statusHistory[productI...\n      PUSH 4\t\t\treturn (statusHistory[productI...\n      DUP2 \t\t\treturn (statusHistory[productI...\n      GT \t\t\treturn (statusHistory[productI...\n      ISZERO \t\t\treturn (statusHistory[productI...\n      PUSH [tag] 103\t\t\treturn (statusHistory[productI...\n      JUMPI \t\t\treturn (statusHistory[productI...\n      PUSH [tag] 103\t\t\treturn (statusHistory[productI...\n      PUSH [tag] 104\t\t\treturn (statusHistory[productI...\n      JUMP \t\t\treturn (statusHistory[productI...\n    tag 103\t\t\treturn (statusHistory[productI...\n      JUMPDEST \t\t\treturn (statusHistory[productI...\n      DUP2 \t\t\treturn (statusHistory[productI...\n      MSTORE \t\t\treturn (statusHistory[productI...\n      PUSH 20\t\t\treturn (statusHistory[productI...\n      PUSH 1\t\t\treturn (statusHistory[productI...\n      SWAP3 \t\t\treturn (statusHistory[productI...\n      DUP4 \t\t\treturn (statusHistory[productI...\n      ADD \t\t\treturn (statusHistory[productI...\n      DUP2 \t\t\treturn (statusHistory[productI...\n      DUP2 \t\t\treturn (statusHistory[productI...\n      DIV \t\t\treturn (statusHistory[productI...\n      SWAP5 \t\t\treturn (statusHistory[productI...\n      DUP6 \t\t\treturn (statusHistory[productI...\n      ADD \t\t\treturn (statusHistory[productI...\n      SWAP5 \t\t\treturn (statusHistory[productI...\n      SWAP1 \t\t\treturn (statusHistory[productI...\n      SWAP4 \t\t\treturn (statusHistory[productI...\n      SUB \t\t\treturn (statusHistory[productI...\n      SWAP1 \t\t\treturn (statusHistory[productI...\n      SWAP3 \t\t\treturn (statusHistory[productI...\n      MUL \t\t\treturn (statusHistory[productI...\n      SWAP2 \t\t\treturn (statusHistory[productI...\n      ADD \t\t\treturn (statusHistory[productI...\n      DUP1 \t\t\treturn (statusHistory[productI...\n      DUP5 \t\t\treturn (statusHistory[productI...\n      GT \t\t\treturn (statusHistory[productI...\n      PUSH [tag] 101\t\t\treturn (statusHistory[productI...\n      JUMPI \t\t\treturn (statusHistory[productI...\n      SWAP1 \t\t\treturn (statusHistory[productI...\n      POP \t\t\treturn (statusHistory[productI...\n    tag 100\t\t\treturn (statusHistory[productI...\n      JUMPDEST \t\t\treturn (statusHistory[productI...\n      POP \t\t\treturn (statusHistory[productI...\n      POP \t\t\treturn (statusHistory[productI...\n      POP \t\t\treturn (statusHistory[productI...\n      POP \t\t\treturn (statusHistory[productI...\n      POP \t\t\treturn (statusHistory[productI...\n      SWAP2 \t\t\treturn (statusHistory[productI...\n      POP \t\t\treturn (statusHistory[productI...\n      DUP1 \t\t\treturn (statusHistory[productI...\n      DUP1 \t\t\treturn (statusHistory[productI...\n      SLOAD \t\t\treturn (statusHistory[productI...\n      DUP1 \t\t\treturn (statusHistory[productI...\n      PUSH 20\t\t\treturn (statusHistory[productI...\n      MUL \t\t\treturn (statusHistory[productI...\n      PUSH 20\t\t\treturn (statusHistory[productI...\n      ADD \t\t\treturn (statusHistory[productI...\n      PUSH 40\t\t\treturn (statusHistory[productI...\n      MLOAD \t\t\treturn (statusHistory[productI...\n      SWAP1 \t\t\treturn (statusHistory[productI...\n      DUP2 \t\t\treturn (statusHistory[productI...\n      ADD \t\t\treturn (statusHistory[productI...\n      PUSH 40\t\t\treturn (statusHistory[productI...\n      MSTORE \t\t\treturn (statusHistory[productI...\n      DUP1 \t\t\treturn (statusHistory[productI...\n      SWAP3 \t\t\treturn (statusHistory[productI...\n      SWAP2 \t\t\treturn (statusHistory[productI...\n      SWAP1 \t\t\treturn (statusHistory[productI...\n      DUP2 \t\t\treturn (statusHistory[productI...\n      DUP2 \t\t\treturn (statusHistory[productI...\n      MSTORE \t\t\treturn (statusHistory[productI...\n      PUSH 20\t\t\treturn (statusHistory[productI...\n      ADD \t\t\treturn (statusHistory[productI...\n      DUP3 \t\t\treturn (statusHistory[productI...\n      DUP1 \t\t\treturn (statusHistory[productI...\n      SLOAD \t\t\treturn (statusHistory[productI...\n      DUP1 \t\t\treturn (statusHistory[productI...\n      ISZERO \t\t\treturn (statusHistory[productI...\n      PUSH [tag] 105\t\t\treturn (statusHistory[productI...\n      JUMPI \t\t\treturn (statusHistory[productI...\n      PUSH 20\t\t\treturn (statusHistory[productI...\n      MUL \t\t\treturn (statusHistory[productI...\n      DUP3 \t\t\treturn (statusHistory[productI...\n      ADD \t\t\treturn (statusHistory[productI...\n      SWAP2 \t\t\treturn (statusHistory[productI...\n      SWAP1 \t\t\treturn (statusHistory[productI...\n      PUSH 0\t\t\treturn (statusHistory[productI...\n      MSTORE \t\t\treturn (statusHistory[productI...\n      PUSH 20\t\t\treturn (statusHistory[productI...\n      PUSH 0\t\t\treturn (statusHistory[productI...\n      KECCAK256 \t\t\treturn (statusHistory[productI...\n      SWAP1 \t\t\treturn (statusHistory[productI...\n    tag 106\t\t\treturn (statusHistory[productI...\n      JUMPDEST \t\t\treturn (statusHistory[productI...\n      DUP2 \t\t\treturn (statusHistory[productI...\n      SLOAD \t\t\treturn (statusHistory[productI...\n      DUP2 \t\t\treturn (statusHistory[productI...\n      MSTORE \t\t\treturn (statusHistory[productI...\n      PUSH 20\t\t\treturn (statusHistory[productI...\n      ADD \t\t\treturn (statusHistory[productI...\n      SWAP1 \t\t\treturn (statusHistory[productI...\n      PUSH 1\t\t\treturn (statusHistory[productI...\n      ADD \t\t\treturn (statusHistory[productI...\n      SWAP1 \t\t\treturn (statusHistory[productI...\n      DUP1 \t\t\treturn (statusHistory[productI...\n      DUP4 \t\t\treturn (statusHistory[productI...\n      GT \t\t\treturn (statusHistory[productI...\n      PUSH [tag] 106\t\t\treturn (statusHistory[productI...\n      JUMPI \t\t\treturn (statusHistory[productI...\n    tag 105\t\t\treturn (statusHistory[productI...\n      JUMPDEST \t\t\treturn (statusHistory[productI...\n      POP \t\t\treturn (statusHistory[productI...\n      POP \t\t\treturn (statusHistory[productI...\n      POP \t\t\treturn (statusHistory[productI...\n      POP \t\t\treturn (statusHistory[productI...\n      POP \t\t\treturn (statusHistory[productI...\n      SWAP1 \t\t\treturn (statusHistory[productI...\n      POP \t\t\treturn (statusHistory[productI...\n      SWAP2 \t\t\treturn (statusHistory[productI...\n      POP \t\t\treturn (statusHistory[productI...\n      SWAP2 \t\t\treturn (statusHistory[productI...\n      POP \t\t\treturn (statusHistory[productI...\n      SWAP2 \t\t\tfunction getHistory(bytes32 pr...\n      POP \t\t\tfunction getHistory(bytes32 pr...\n      SWAP2 \t\t\tfunction getHistory(bytes32 pr...\n      JUMP \t\t\tfunction getHistory(bytes32 pr...\n    tag 39\t\t\tfunction registerProduct(bytes...\n      JUMPDEST \t\t\tfunction registerProduct(bytes...\n      PUSH EEFB95E842A3287179D933B4460BE539A1D5AF11AA8B325BB45C5C8DC92DE4ED\t\t\tkeccak256(\"MANUFACTURER_ROLE\")\n      PUSH [tag] 108\t\t\t        timeHist\n      DUP2 \t\t\teHis\n      PUSH [tag] 109\t\t\t        ti\n      JUMP \t\t\t        timeHist\n    tag 108\t\t\t        timeHist\n      JUMPDEST \t\t\t        timeHist\n      PUSH 0\t\t\tproducts[productId]\n      DUP8 \t\t\tproducts[productId]\n      DUP2 \t\t\tproducts[productId]\n      MSTORE \t\t\tproducts[productId]\n      PUSH 1\t\t\tproducts\n      PUSH 20\t\t\tproducts[productId]\n      MSTORE \t\t\tproducts[productId]\n      PUSH 40\t\t\tproducts[productId]\n      SWAP1 \t\t\tproducts[productId]\n      KECCAK256 \t\t\tproducts[productId]\n      PUSH 2\t\t\tproducts[productId].exists\n      ADD \t\t\tproducts[productId].exists\n      SLOAD \t\t\tproducts[productId].exists\n      PUSH 1\t\t\t\n      PUSH 48\t\t\t\n      SHL \t\t\t\n      SWAP1 \t\t\tproducts[productId].exists\n      DIV \t\t\tproducts[productId].exists\n      PUSH FF\t\t\tproducts[productId].exists\n      AND \t\t\tproducts[productId].exists\n      ISZERO \t\t\t!products[productId].exists\n      PUSH [tag] 111\t\t\trequire(!products[productId].e...\n      JUMPI \t\t\trequire(!products[productId].e...\n      PUSH 40\t\t\trequire(!products[productId].e...\n      MLOAD \t\t\trequire(!products[productId].e...\n      PUSH 461BCD\t\t\t\n      PUSH E5\t\t\t\n      SHL \t\t\t\n      DUP2 \t\t\trequire(!products[productId].e...\n      MSTORE \t\t\trequire(!products[productId].e...\n      PUSH 20\t\t\t\n      PUSH 4\t\t\trequire(!products[productId].e...\n      DUP3 \t\t\trequire(!products[productId].e...\n      ADD \t\t\trequire(!products[productId].e...\n      MSTORE \t\t\t\n      PUSH E\t\t\t\n      PUSH 24\t\t\t\n      DUP3 \t\t\t\n      ADD \t\t\t\n      MSTORE \t\t\t\n      PUSH 416C726561647920657869737473\t\t\t\n      PUSH 90\t\t\t\n      SHL \t\t\t\n      PUSH 44\t\t\t\n      DUP3 \t\t\t\n      ADD \t\t\t\n      MSTORE \t\t\t\n      PUSH 64\t\t\t\n      ADD \t\t\t\n      PUSH [tag] 98\t\t\trequire(!products[productId].e...\n      JUMP \t\t\t\n    tag 111\t\t\trequire(!products[productId].e...\n      JUMPDEST \t\t\trequire(!products[productId].e...\n      PUSH 40\t\t\tProduct({name: name, batch: ba...\n      MLOAD \t\t\tProduct({name: name, batch: ba...\n      DUP1 \t\t\tProduct({name: name, batch: ba...\n      PUSH A0\t\t\tProduct({name: name, batch: ba...\n      ADD \t\t\tProduct({name: name, batch: ba...\n      PUSH 40\t\t\tProduct({name: name, batch: ba...\n      MSTORE \t\t\tProduct({name: name, batch: ba...\n      DUP1 \t\t\tProduct({name: name, batch: ba...\n      DUP8 \t\t\tname\n      DUP8 \t\t\tname\n      DUP1 \t\t\tProduct({name: name, batch: ba...\n      DUP1 \t\t\tProduct({name: name, batch: ba...\n      PUSH 1F\t\t\tProduct({name: name, batch: ba...\n      ADD \t\t\tProduct({name: name, batch: ba...\n      PUSH 20\t\t\tProduct({name: name, batch: ba...\n      DUP1 \t\t\tProduct({name: name, batch: ba...\n      SWAP2 \t\t\tProduct({name: name, batch: ba...\n      DIV \t\t\tProduct({name: name, batch: ba...\n      MUL \t\t\tProduct({name: name, batch: ba...\n      PUSH 20\t\t\tProduct({name: name, batch: ba...\n      ADD \t\t\tProduct({name: name, batch: ba...\n      PUSH 40\t\t\tProduct({name: name, batch: ba...\n      MLOAD \t\t\tProduct({name: name, batch: ba...\n      SWAP1 \t\t\tProduct({name: name, batch: ba...\n      DUP2 \t\t\tProduct({name: name, batch: ba...\n      ADD \t\t\tProduct({name: name, batch: ba...\n      PUSH 40\t\t\tProduct({name: name, batch: ba...\n      MSTORE \t\t\tProduct({name: name, batch: ba...\n      DUP1 \t\t\tProduct({name: name, batch: ba...\n      SWAP4 \t\t\tProduct({name: name, batch: ba...\n      SWAP3 \t\t\tProduct({name: name, batch: ba...\n      SWAP2 \t\t\tProduct({name: name, batch: ba...\n      SWAP1 \t\t\tProduct({name: name, batch: ba...\n      DUP2 \t\t\tProduct({name: name, batch: ba...\n      DUP2 \t\t\tProduct({name: name, batch: ba...\n      MSTORE \t\t\tProduct({name: name, batch: ba...\n      PUSH 20\t\t\tProduct({name: name, batch: ba...\n      ADD \t\t\tProduct({name: name, batch: ba...\n      DUP4 \t\t\tProduct({name: name, batch: ba...\n      DUP4 \t\t\tProduct({name: name, batch: ba...\n      DUP1 \t\t\tProduct({name: name, batch: ba...\n      DUP3 \t\t\tProduct({name: name, batch: ba...\n      DUP5 \t\t\tProduct({name: name, batch: ba...\n      CALLDATACOPY \t\t\tProduct({name: name, batch: ba...\n      PUSH 0\t\t\tProduct({name: name, batch: ba...\n      SWAP3 \t\t\tProduct({name: name, batch: ba...\n      ADD \t\t\tProduct({name: name, batch: ba...\n      SWAP2 \t\t\tProduct({name: name, batch: ba...\n      SWAP1 \t\t\tProduct({name: name, batch: ba...\n      SWAP2 \t\t\tProduct({name: name, batch: ba...\n      MSTORE \t\t\tProduct({name: name, batch: ba...\n      POP \t\t\t\n      POP \t\t\t\n      POP \t\t\t\n      SWAP1 \t\t\tProduct({name: name, batch: ba...\n      DUP3 \t\t\tProduct({name: name, batch: ba...\n      MSTORE \t\t\tProduct({name: name, batch: ba...\n      POP \t\t\t\n      PUSH 40\t\t\tProduct({name: name, batch: ba...\n      DUP1 \t\t\tProduct({name: name, batch: ba...\n      MLOAD \t\t\tProduct({name: name, batch: ba...\n      PUSH 20\t\t\tProduct({name: name, batch: ba...\n      PUSH 1F\t\t\tProduct({name: name, batch: ba...\n      DUP9 \t\t\tProduct({name: name, batch: ba...\n      ADD \t\t\tProduct({name: name, batch: ba...\n      DUP2 \t\t\tProduct({name: name, batch: ba...\n      SWAP1 \t\t\tProduct({name: name, batch: ba...\n      DIV \t\t\tProduct({name: name, batch: ba...\n      DUP2 \t\t\tProduct({name: name, batch: ba...\n      MUL \t\t\tProduct({name: name, batch: ba...\n      DUP3 \t\t\tProduct({name: name, batch: ba...\n      ADD \t\t\tProduct({name: name, batch: ba...\n      DUP2 \t\t\tProduct({name: name, batch: ba...\n      ADD \t\t\tProduct({name: name, batch: ba...\n      SWAP1 \t\t\tProduct({name: name, batch: ba...\n      SWAP3 \t\t\tProduct({name: name, batch: ba...\n      MSTORE \t\t\tProduct({name: name, batch: ba...\n      DUP7 \t\t\tProduct({name: name, batch: ba...\n      DUP2 \t\t\tProduct({name: name, batch: ba...\n      MSTORE \t\t\tProduct({name: name, batch: ba...\n      SWAP2 \t\t\tProduct({name: name, batch: ba...\n      DUP2 \t\t\tProduct({name: name, batch: ba...\n      ADD \t\t\tProduct({name: name, batch: ba...\n      SWAP2 \t\t\tProduct({name: name, batch: ba...\n      SWAP1 \t\t\tProduct({name: name, batch: ba...\n      DUP8 \t\t\tbatch\n      SWAP1 \t\t\tbatch\n      DUP8 \t\t\tbatch\n      SWAP1 \t\t\tbatch\n      DUP2 \t\t\tbatch\n      SWAP1 \t\t\tbatch\n      DUP5 \t\t\tProduct({name: name, batch: ba...\n      ADD \t\t\tProduct({name: name, batch: ba...\n      DUP4 \t\t\tbatch\n      DUP3 \t\t\tbatch\n      DUP1 \t\t\tbatch\n      DUP3 \t\t\tbatch\n      DUP5 \t\t\tProduct({name: name, batch: ba...\n      CALLDATACOPY \t\t\tProduct({name: name, batch: ba...\n      PUSH 0\t\t\tProduct({name: name, batch: ba...\n      SWAP3 \t\t\tProduct({name: name, batch: ba...\n      ADD \t\t\tProduct({name: name, batch: ba...\n      SWAP2 \t\t\tProduct({name: name, batch: ba...\n      SWAP1 \t\t\tProduct({name: name, batch: ba...\n      SWAP2 \t\t\tProduct({name: name, batch: ba...\n      MSTORE \t\t\tProduct({name: name, batch: ba...\n      POP \t\t\t\n      POP \t\t\t\n      POP \t\t\t\n      SWAP1 \t\t\tProduct({name: name, batch: ba...\n      DUP3 \t\t\tProduct({name: name, batch: ba...\n      MSTORE \t\t\tProduct({name: name, batch: ba...\n      POP \t\t\t\n      PUSH FFFFFFFFFFFFFFFF\t\t\tProduct({name: name, batch: ba...\n      DUP5 \t\t\tProduct({name: name, batch: ba...\n      AND \t\t\tProduct({name: name, batch: ba...\n      PUSH 20\t\t\tProduct({name: name, batch: ba...\n      DUP3 \t\t\tProduct({name: name, batch: ba...\n      ADD \t\t\tProduct({name: name, batch: ba...\n      MSTORE \t\t\tProduct({name: name, batch: ba...\n      PUSH 40\t\t\tProduct({name: name, batch: ba...\n      ADD \t\t\tProduct({name: name, batch: ba...\n      PUSH 1\t\t\tStatus.Produced\n      DUP2 \t\t\tProduct({name: name, batch: ba...\n      MSTORE \t\t\tProduct({name: name, batch: ba...\n      PUSH 1\t\t\ttrue\n      PUSH 20\t\t\tProduct({name: name, batch: ba...\n      SWAP2 \t\t\tProduct({name: name, batch: ba...\n      DUP3 \t\t\tProduct({name: name, batch: ba...\n      ADD \t\t\tProduct({name: name, batch: ba...\n      DUP2 \t\t\tProduct({name: name, batch: ba...\n      SWAP1 \t\t\tProduct({name: name, batch: ba...\n      MSTORE \t\t\tProduct({name: name, batch: ba...\n      PUSH 0\t\t\tProduct({name: name, batch: ba...\n      DUP11 \t\t\tproducts[productId]\n      DUP2 \t\t\tproducts[productId]\n      MSTORE \t\t\tproducts[productId]\n      SWAP2 \t\t\tproducts[productId]\n      MSTORE \t\t\tproducts[productId]\n      PUSH 40\t\t\tproducts[productId]\n      SWAP1 \t\t\tproducts[productId]\n      KECCAK256 \t\t\tproducts[productId]\n      DUP2 \t\t\tproducts[productId] = Product(...\n      MLOAD \t\t\tproducts[productId] = Product(...\n      DUP2 \t\t\tproducts[productId]\n      SWAP1 \t\t\tproducts[productId]\n      PUSH [tag] 116\t\t\tproducts[productId] = Product(...\n      SWAP1 \t\t\tproducts[productId] = Product(...\n      DUP3 \t\t\tproducts[productId]\n      PUSH [tag] 117\t\t\tproducts[productId] = Product(...\n      JUMP \t\t\tproducts[productId] = Product(...\n    tag 116\t\t\tproducts[productId] = Product(...\n      JUMPDEST \t\t\tproducts[productId] = Product(...\n      POP \t\t\t\n      PUSH 20\t\t\tproducts[productId] = Product(...\n      DUP3 \t\t\tproducts[productId] = Product(...\n      ADD \t\t\tproducts[productId] = Product(...\n      MLOAD \t\t\tproducts[productId] = Product(...\n      PUSH 1\t\t\tproducts[productId] = Product(...\n      DUP3 \t\t\tproducts[productId] = Product(...\n      ADD \t\t\tproducts[productId] = Product(...\n      SWAP1 \t\t\tproducts[productId] = Product(...\n      PUSH [tag] 118\t\t\tproducts[productId] = Product(...\n      SWAP1 \t\t\tproducts[productId] = Product(...\n      DUP3 \t\t\tproducts[productId] = Product(...\n      PUSH [tag] 117\t\t\tproducts[productId] = Product(...\n      JUMP \t\t\tproducts[productId] = Product(...\n    tag 118\t\t\tproducts[productId] = Product(...\n      JUMPDEST \t\t\tproducts[productId] = Product(...\n      POP \t\t\t\n      PUSH 40\t\t\tproducts[productId] = Product(...\n      DUP3 \t\t\tproducts[productId] = Product(...\n      ADD \t\t\tproducts[productId] = Product(...\n      MLOAD \t\t\tproducts[productId] = Product(...\n      PUSH 2\t\t\tproducts[productId] = Product(...\n      DUP3 \t\t\tproducts[productId] = Product(...\n      ADD \t\t\tproducts[productId] = Product(...\n      DUP1 \t\t\tproducts[productId] = Product(...\n      SLOAD \t\t\tproducts[productId] = Product(...\n      PUSH FFFFFFFFFFFFFFFF\t\t\tproducts[productId] = Product(...\n      SWAP1 \t\t\tproducts[productId] = Product(...\n      SWAP3 \t\t\tproducts[productId] = Product(...\n      AND \t\t\tproducts[productId] = Product(...\n      PUSH FFFFFFFFFFFFFFFF\t\t\t\n      NOT \t\t\t\n      DUP4 \t\t\tproducts[productId] = Product(...\n      AND \t\t\tproducts[productId] = Product(...\n      DUP2 \t\t\tproducts[productId] = Product(...\n      OR \t\t\tproducts[productId] = Product(...\n      DUP3 \t\t\tproducts[productId] = Product(...\n      SSTORE \t\t\tproducts[productId] = Product(...\n      PUSH 60\t\t\tproducts[productId] = Product(...\n      DUP6 \t\t\tproducts[productId] = Product(...\n      ADD \t\t\tproducts[productId] = Product(...\n      MLOAD \t\t\tproducts[productId] = Product(...\n      SWAP3 \t\t\tproducts[productId] = Product(...\n      PUSH FFFFFFFFFFFFFFFFFF\t\t\t\n      NOT \t\t\t\n      AND \t\t\tproducts[productId] = Product(...\n      OR \t\t\tproducts[productId] = Product(...\n      PUSH 1\t\t\t\n      PUSH 40\t\t\t\n      SHL \t\t\t\n      DUP4 \t\t\tproducts[productId] = Product(...\n      PUSH 4\t\t\tproducts[productId] = Product(...\n      DUP2 \t\t\tproducts[productId] = Product(...\n      GT \t\t\tproducts[productId] = Product(...\n      ISZERO \t\t\tproducts[productId] = Product(...\n      PUSH [tag] 120\t\t\tproducts[productId] = Product(...\n      JUMPI \t\t\tproducts[productId] = Product(...\n      PUSH [tag] 120\t\t\tproducts[productId] = Product(...\n      PUSH [tag] 104\t\t\tproducts[productId] = Product(...\n      JUMP \t\t\tproducts[productId] = Product(...\n    tag 120\t\t\tproducts[productId] = Product(...\n      JUMPDEST \t\t\tproducts[productId] = Product(...\n      MUL \t\t\tproducts[productId] = Product(...\n      OR \t\t\tproducts[productId] = Product(...\n      SWAP1 \t\t\tproducts[productId] = Product(...\n      SSTORE \t\t\tproducts[productId] = Product(...\n      POP \t\t\t\n      PUSH 80\t\t\tproducts[productId] = Product(...\n      SWAP2 \t\t\tproducts[productId] = Product(...\n      SWAP1 \t\t\tproducts[productId] = Product(...\n      SWAP2 \t\t\tproducts[productId] = Product(...\n      ADD \t\t\tproducts[productId] = Product(...\n      MLOAD \t\t\tproducts[productId] = Product(...\n      PUSH 2\t\t\tproducts[productId] = Product(...\n      SWAP2 \t\t\tproducts[productId] = Product(...\n      DUP3 \t\t\tproducts[productId] = Product(...\n      ADD \t\t\tproducts[productId] = Product(...\n      DUP1 \t\t\tproducts[productId] = Product(...\n      SLOAD \t\t\tproducts[productId] = Product(...\n      PUSH FF000000000000000000\t\t\t\n      NOT \t\t\t\n      AND \t\t\tproducts[productId] = Product(...\n      PUSH 1\t\t\t\n      PUSH 48\t\t\t\n      SHL \t\t\t\n      SWAP3 \t\t\tproducts[productId] = Product(...\n      ISZERO \t\t\tproducts[productId] = Product(...\n      ISZERO \t\t\tproducts[productId] = Product(...\n      SWAP3 \t\t\tproducts[productId] = Product(...\n      SWAP1 \t\t\tproducts[productId] = Product(...\n      SWAP3 \t\t\tproducts[productId] = Product(...\n      MUL \t\t\tproducts[productId] = Product(...\n      SWAP2 \t\t\tproducts[productId] = Product(...\n      SWAP1 \t\t\tproducts[productId] = Product(...\n      SWAP2 \t\t\tproducts[productId] = Product(...\n      OR \t\t\tproducts[productId] = Product(...\n      SWAP1 \t\t\tproducts[productId] = Product(...\n      SSTORE \t\t\tproducts[productId] = Product(...\n      PUSH 0\t\t\t\n      DUP9 \t\t\tstatusHistory[productId]\n      DUP2 \t\t\tstatusHistory[productId]\n      MSTORE \t\t\tstatusHistory[productId]\n      PUSH 20\t\t\tstatusHistory[productId]\n      SWAP2 \t\t\tstatusHistory[productId]\n      DUP3 \t\t\tstatusHistory[productId]\n      MSTORE \t\t\tstatusHistory[productId]\n      PUSH 40\t\t\tstatusHistory[productId]\n      DUP1 \t\t\tstatusHistory[productId]\n      DUP3 \t\t\tstatusHistory[productId]\n      KECCAK256 \t\t\tstatusHistory[productId]\n      DUP1 \t\t\tstatusHistory[productId].push(...\n      SLOAD \t\t\tstatusHistory[productId].push(...\n      PUSH 1\t\t\t\n      DUP2 \t\t\tstatusHistory[productId].push(...\n      DUP2 \t\t\tstatusHistory[productId].push(...\n      ADD \t\t\tstatusHistory[productId].push(...\n      DUP4 \t\t\tstatusHistory[productId].push(...\n      SSTORE \t\t\tstatusHistory[productId].push(...\n      SWAP2 \t\t\tstatusHistory[productId].push(...\n      DUP5 \t\t\tstatusHistory[productId].push(...\n      MSTORE \t\t\tstatusHistory[productId].push(...\n      DUP5 \t\t\tstatusHistory[productId].push(...\n      DUP5 \t\t\tstatusHistory[productId].push(...\n      KECCAK256 \t\t\tstatusHistory[productId].push(...\n      DUP6 \t\t\tstatusHistory[productId].push(...\n      DUP3 \t\t\tstatusHistory[productId].push(...\n      DIV \t\t\tstatusHistory[productId].push(...\n      ADD \t\t\tstatusHistory[productId].push(...\n      DUP1 \t\t\tstatusHistory[productId].push(...\n      SLOAD \t\t\tstatusHistory[productId].push(...\n      PUSH FF\t\t\tproducts[productId] = Product(...\n      PUSH 1F\t\t\tstatusHistory[productId].push(...\n      SWAP1 \t\t\tstatusHistory[productId].push(...\n      SWAP4 \t\t\tstatusHistory[productId].push(...\n      AND \t\t\tstatusHistory[productId].push(...\n      PUSH 100\t\t\tproducts[productId] = Product(...\n      EXP \t\t\tstatusHistory[productId].push(...\n      SWAP3 \t\t\tstatusHistory[productId].push(...\n      DUP4 \t\t\tstatusHistory[productId].push(...\n      MUL \t\t\tstatusHistory[productId].push(...\n      NOT \t\t\tstatusHistory[productId].push(...\n      AND \t\t\tstatusHistory[productId].push(...\n      SWAP1 \t\t\tstatusHistory[productId].push(...\n      SWAP2 \t\t\tstatusHistory[productId].push(...\n      OR \t\t\tstatusHistory[productId].push(...\n      SWAP1 \t\t\tstatusHistory[productId].push(...\n      SSTORE \t\t\tstatusHistory[productId].push(...\n      DUP11 \t\t\ttimeHistory[productId]\n      DUP4 \t\t\ttimeHistory[productId]\n      MSTORE \t\t\ttimeHistory[productId]\n      PUSH 3\t\t\ttimeHistory\n      DUP5 \t\t\ttimeHistory[productId]\n      MSTORE \t\t\ttimeHistory[productId]\n      DUP2 \t\t\ttimeHistory[productId]\n      DUP4 \t\t\ttimeHistory[productId]\n      KECCAK256 \t\t\ttimeHistory[productId]\n      DUP1 \t\t\ttimeHistory[productId].push(bl...\n      SLOAD \t\t\ttimeHistory[productId].push(bl...\n      SWAP2 \t\t\ttimeHistory[productId].push(bl...\n      DUP3 \t\t\ttimeHistory[productId].push(bl...\n      ADD \t\t\ttimeHistory[productId].push(bl...\n      DUP2 \t\t\ttimeHistory[productId].push(bl...\n      SSTORE \t\t\ttimeHistory[productId].push(bl...\n      DUP4 \t\t\ttimeHistory[productId].push(bl...\n      MSTORE \t\t\ttimeHistory[productId].push(bl...\n      SWAP3 \t\t\ttimeHistory[productId].push(bl...\n      SWAP1 \t\t\ttimeHistory[productId].push(bl...\n      SWAP2 \t\t\ttimeHistory[productId].push(bl...\n      KECCAK256 \t\t\ttimeHistory[productId].push(bl...\n      TIMESTAMP \t\t\tblock.timestamp\n      SWAP3 \t\t\ttimeHistory[productId].push(bl...\n      ADD \t\t\ttimeHistory[productId].push(bl...\n      SWAP2 \t\t\ttimeHistory[productId].push(bl...\n      SWAP1 \t\t\ttimeHistory[productId].push(bl...\n      SWAP2 \t\t\ttimeHistory[productId].push(bl...\n      SSTORE \t\t\ttimeHistory[productId].push(bl...\n      MLOAD \t\t\tProductRegistered(productId, n...\n      DUP8 \t\t\tstatusHistory[productId]\n      SWAP1 \t\t\tstatusHistory[productId]\n      PUSH ED037748EE9548D24F616FE577E1AC2E4AAFFEE46E8A16C4280B3A820CBFEB54\t\t\tProductRegistered(productId, n...\n      SWAP1 \t\t\tProductRegistered(productId, n...\n      PUSH [tag] 125\t\t\tProductRegistered(productId, n...\n      SWAP1 \t\t\tProductRegistered(productId, n...\n      DUP10 \t\t\tname\n      SWAP1 \t\t\tname\n      DUP10 \t\t\tname\n      SWAP1 \t\t\tname\n      DUP10 \t\t\tbatch\n      SWAP1 \t\t\tbatch\n      DUP10 \t\t\tbatch\n      SWAP1 \t\t\tbatch\n      DUP10 \t\t\tmfgDate\n      SWAP1 \t\t\tmfgDate\n      PUSH [tag] 126\t\t\tProductRegistered(productId, n...\n      JUMP \t\t\tProductRegistered(productId, n...\n    tag 125\t\t\tProductRegistered(productId, n...\n      JUMPDEST \t\t\tProductRegistered(productId, n...\n      PUSH 40\t\t\tProductRegistered(productId, n...\n      MLOAD \t\t\tProductRegistered(productId, n...\n      DUP1 \t\t\tProductRegistered(productId, n...\n      SWAP2 \t\t\tProductRegistered(productId, n...\n      SUB \t\t\tProductRegistered(productId, n...\n      SWAP1 \t\t\tProductRegistered(productId, n...\n      LOG2 \t\t\tProductRegistered(productId, n...\n      DUP7 \t\t\tproductId\n      PUSH CA73B838FB308ED0DE2F1D63EE69E1AF3C7D64A31B00067689CBBE94D50C86D4\t\t\tTraceUpdated(productId, Status...\n      PUSH 1\t\t\tStatus.Produced\n      TIMESTAMP \t\t\tblock.timestamp\n      PUSH 40\t\t\tTraceUpdated(productId, Status...\n      MLOAD \t\t\tTraceUpdated(productId, Status...\n      PUSH [tag] 127\t\t\tTraceUpdated(productId, Status...\n      SWAP3 \t\t\tTraceUpdated(productId, Status...\n      SWAP2 \t\t\tTraceUpdated(productId, Status...\n      SWAP1 \t\t\tTraceUpdated(productId, Status...\n      PUSH [tag] 128\t\t\tTraceUpdated(productId, Status...\n      JUMP \t\t\tTraceUpdated(productId, Status...\n    tag 127\t\t\tTraceUpdated(productId, Status...\n      JUMPDEST \t\t\tTraceUpdated(productId, Status...\n      PUSH 40\t\t\tTraceUpdated(productId, Status...\n      MLOAD \t\t\tTraceUpdated(productId, Status...\n      DUP1 \t\t\tTraceUpdated(productId, Status...\n      SWAP2 \t\t\tTraceUpdated(productId, Status...\n      SUB \t\t\tTraceUpdated(productId, Status...\n      SWAP1 \t\t\tTraceUpdated(productId, Status...\n      LOG2 \t\t\tTraceUpdated(productId, Status...\n      POP \t\t\tfunction registerProduct(bytes...\n      POP \t\t\tfunction registerProduct(bytes...\n      POP \t\t\tfunction registerProduct(bytes...\n      POP \t\t\tfunction registerProduct(bytes...\n      POP \t\t\tfunction registerProduct(bytes...\n      POP \t\t\tfunction registerProduct(bytes...\n      POP \t\t\tfunction registerProduct(bytes...\n      JUMP \t\t\tfunction registerProduct(bytes...\n    tag 51\t\t\t\n      JUMPDEST \t\t\t\n      PUSH 0\t\t\t\n      DUP3 \t\t\t\n      DUP2 \t\t\t\n      MSTORE \t\t\t\n      PUSH 20\t\t\t\n      DUP2 \t\t\t\n      SWAP1 \t\t\t\n      MSTORE \t\t\t\n      PUSH 40\t\t\t\n      SWAP1 \t\t\t\n      KECCAK256 \t\t\t\n      PUSH 1\t\t\t\n      ADD \t\t\t\n      SLOAD \t\t\t\n      PUSH [tag] 132\t\t\t        timeHist\n      DUP2 \t\t\teHis\n      PUSH [tag] 109\t\t\t        ti\n      JUMP \t\t\t        timeHist\n    tag 132\t\t\t        timeHist\n      JUMPDEST \t\t\t        timeHist\n      PUSH [tag] 134\t\t\t\n      DUP4 \t\t\t\n      DUP4 \t\t\t\n      PUSH [tag] 135\t\t\t\n      JUMP \t\t\t\n    tag 134\t\t\t\n      JUMPDEST \t\t\t\n      POP \t\t\t\n      POP \t\t\t\n      POP \t\t\t\n      POP \t\t\t\n      JUMP \t\t\t\n    tag 54\t\t\t\n      JUMPDEST \t\t\t\n      PUSH 1\t\t\t\n      PUSH 1\t\t\t\n      PUSH A0\t\t\t\n      SHL \t\t\t\n      SUB \t\t\t\n      DUP2 \t\t\t\n      AND \t\t\t\n      CALLER \t\t\t32 => Stat\n      EQ \t\t\t\n      PUSH [tag] 139\t\t\t\n      JUMPI \t\t\t\n      PUSH 40\t\t\t\n      MLOAD \t\t\t\n      PUSH 334BD919\t\t\t\n      PUSH E1\t\t\t\n      SHL \t\t\t\n      DUP2 \t\t\t\n      MSTORE \t\t\t\n      PUSH 4\t\t\t\n      ADD \t\t\t\n      PUSH 40\t\t\t\n      MLOAD \t\t\t\n      DUP1 \t\t\t\n      SWAP2 \t\t\t\n      SUB \t\t\t\n      SWAP1 \t\t\t\n      REVERT \t\t\t\n    tag 139\t\t\t\n      JUMPDEST \t\t\t\n      PUSH [tag] 140\t\t\t\n      DUP3 \t\t\t\n      DUP3 \t\t\t\n      PUSH [tag] 141\t\t\t\n      JUMP \t\t\t\n    tag 140\t\t\t\n      JUMPDEST \t\t\t\n      POP \t\t\t\n      POP \t\t\t\n      POP \t\t\t\n      JUMP \t\t\t\n    tag 57\t\t\tfunction getProduct(bytes32 pr...\n      JUMPDEST \t\t\tfunction getProduct(bytes32 pr...\n      PUSH [tag] 142\t\t\tProduct memory\n      PUSH [tag] 143\t\t\tProduct memory\n      JUMP \t\t\tProduct memory\n    tag 142\t\t\tProduct memory\n      JUMPDEST \t\t\tProduct memory\n      PUSH 0\t\t\tproducts[productId]\n      DUP3 \t\t\tproducts[productId]\n      DUP2 \t\t\tproducts[productId]\n      MSTORE \t\t\tproducts[productId]\n      PUSH 1\t\t\tproducts\n      PUSH 20\t\t\tproducts[productId]\n      MSTORE \t\t\tproducts[productId]\n      PUSH 40\t\t\tproducts[productId]\n      SWAP1 \t\t\tproducts[productId]\n      KECCAK256 \t\t\tproducts[productId]\n      PUSH 2\t\t\tproducts[productId].exists\n      ADD \t\t\tproducts[productId].exists\n      SLOAD \t\t\tproducts[productId].exists\n      PUSH 1\t\t\t\n      PUSH 48\t\t\t\n      SHL \t\t\t\n      SWAP1 \t\t\tproducts[productId].exists\n      DIV \t\t\tproducts[productId].exists\n      PUSH FF\t\t\tproducts[productId].exists\n      AND \t\t\tproducts[productId].exists\n      PUSH [tag] 145\t\t\trequire(products[productId].ex...\n      JUMPI \t\t\trequire(products[productId].ex...\n      PUSH 40\t\t\trequire(products[productId].ex...\n      MLOAD \t\t\trequire(products[productId].ex...\n      PUSH 461BCD\t\t\t\n      PUSH E5\t\t\t\n      SHL \t\t\t\n      DUP2 \t\t\trequire(products[productId].ex...\n      MSTORE \t\t\trequire(products[productId].ex...\n      PUSH 4\t\t\trequire(products[productId].ex...\n      ADD \t\t\trequire(products[productId].ex...\n      PUSH [tag] 98\t\t\trequire(products[productId].ex...\n      SWAP1 \t\t\trequire(products[productId].ex...\n      PUSH [tag] 99\t\t\trequire(products[productId].ex...\n      JUMP \t\t\trequire(products[productId].ex...\n    tag 145\t\t\trequire(products[productId].ex...\n      JUMPDEST \t\t\trequire(products[productId].ex...\n      PUSH 0\t\t\tproducts[productId]\n      DUP3 \t\t\tproducts[productId]\n      DUP2 \t\t\tproducts[productId]\n      MSTORE \t\t\tproducts[productId]\n      PUSH 1\t\t\tproducts\n      PUSH 20\t\t\tproducts[productId]\n      MSTORE \t\t\tproducts[productId]\n      PUSH 40\t\t\tproducts[productId]\n      SWAP1 \t\t\tproducts[productId]\n      DUP2 \t\t\tproducts[productId]\n      SWAP1 \t\t\tproducts[productId]\n      KECCAK256 \t\t\tproducts[productId]\n      DUP2 \t\t\treturn products[productId]\n      MLOAD \t\t\treturn products[productId]\n      PUSH A0\t\t\treturn products[productId]\n      DUP2 \t\t\treturn products[productId]\n      ADD \t\t\treturn products[productId]\n      SWAP1 \t\t\treturn products[productId]\n      SWAP3 \t\t\treturn products[productId]\n      MSTORE \t\t\treturn products[productId]\n      DUP1 \t\t\treturn products[productId]\n      SLOAD \t\t\treturn products[productId]\n      DUP3 \t\t\treturn products[productId]\n      SWAP1 \t\t\treturn products[productId]\n      DUP3 \t\t\tproducts[productId]\n      SWAP1 \t\t\tproducts[productId]\n      PUSH [tag] 147\t\t\treturn products[productId]\n      SWAP1 \t\t\treturn products[productId]\n      PUSH [tag] 148\t\t\treturn products[productId]\n      JUMP \t\t\treturn products[productId]\n    tag 147\t\t\treturn products[productId]\n      JUMPDEST \t\t\treturn products[productId]\n      DUP1 \t\t\treturn products[productId]\n      PUSH 1F\t\t\treturn products[productId]\n      ADD \t\t\treturn products[productId]\n      PUSH 20\t\t\treturn products[productId]\n      DUP1 \t\t\treturn products[productId]\n      SWAP2 \t\t\treturn products[productId]\n      DIV \t\t\treturn products[productId]\n      MUL \t\t\treturn products[productId]\n      PUSH 20\t\t\treturn products[productId]\n      ADD \t\t\treturn products[productId]\n      PUSH 40\t\t\treturn products[productId]\n      MLOAD \t\t\treturn products[productId]\n      SWAP1 \t\t\treturn products[productId]\n      DUP2 \t\t\treturn products[productId]\n      ADD \t\t\treturn products[productId]\n      PUSH 40\t\t\treturn products[productId]\n      MSTORE \t\t\treturn products[productId]\n      DUP1 \t\t\treturn products[productId]\n      SWAP3 \t\t\treturn products[productId]\n      SWAP2 \t\t\treturn products[productId]\n      SWAP1 \t\t\treturn products[productId]\n      DUP2 \t\t\treturn products[productId]\n      DUP2 \t\t\treturn products[productId]\n      MSTORE \t\t\treturn products[productId]\n      PUSH 20\t\t\treturn products[productId]\n      ADD \t\t\treturn products[productId]\n      DUP3 \t\t\treturn products[productId]\n      DUP1 \t\t\treturn products[productId]\n      SLOAD \t\t\treturn products[productId]\n      PUSH [tag] 149\t\t\treturn products[productId]\n      SWAP1 \t\t\treturn products[productId]\n      PUSH [tag] 148\t\t\treturn products[productId]\n      JUMP \t\t\treturn products[productId]\n    tag 149\t\t\treturn products[productId]\n      JUMPDEST \t\t\treturn products[productId]\n      DUP1 \t\t\treturn products[productId]\n      ISZERO \t\t\treturn products[productId]\n      PUSH [tag] 150\t\t\treturn products[productId]\n      JUMPI \t\t\treturn products[productId]\n      DUP1 \t\t\treturn products[productId]\n      PUSH 1F\t\t\treturn products[productId]\n      LT \t\t\treturn products[productId]\n      PUSH [tag] 151\t\t\treturn products[productId]\n      JUMPI \t\t\treturn products[productId]\n      PUSH 100\t\t\treturn products[productId]\n      DUP1 \t\t\treturn products[productId]\n      DUP4 \t\t\treturn products[productId]\n      SLOAD \t\t\treturn products[productId]\n      DIV \t\t\treturn products[productId]\n      MUL \t\t\treturn products[productId]\n      DUP4 \t\t\treturn products[productId]\n      MSTORE \t\t\treturn products[productId]\n      SWAP2 \t\t\treturn products[productId]\n      PUSH 20\t\t\treturn products[productId]\n      ADD \t\t\treturn products[productId]\n      SWAP2 \t\t\treturn products[productId]\n      PUSH [tag] 150\t\t\treturn products[productId]\n      JUMP \t\t\treturn products[productId]\n    tag 151\t\t\treturn products[productId]\n      JUMPDEST \t\t\treturn products[productId]\n      DUP3 \t\t\treturn products[productId]\n      ADD \t\t\treturn products[productId]\n      SWAP2 \t\t\treturn products[productId]\n      SWAP1 \t\t\treturn products[productId]\n      PUSH 0\t\t\treturn products[productId]\n      MSTORE \t\t\treturn products[productId]\n      PUSH 20\t\t\treturn products[productId]\n      PUSH 0\t\t\treturn products[productId]\n      KECCAK256 \t\t\treturn products[productId]\n      SWAP1 \t\t\treturn products[productId]\n    tag 152\t\t\treturn products[productId]\n      JUMPDEST \t\t\treturn products[productId]\n      DUP2 \t\t\treturn products[productId]\n      SLOAD \t\t\treturn products[productId]\n      DUP2 \t\t\treturn products[productId]\n      MSTORE \t\t\treturn products[productId]\n      SWAP1 \t\t\treturn products[productId]\n      PUSH 1\t\t\treturn products[productId]\n      ADD \t\t\treturn products[productId]\n      SWAP1 \t\t\treturn products[productId]\n      PUSH 20\t\t\treturn products[productId]\n      ADD \t\t\treturn products[productId]\n      DUP1 \t\t\treturn products[productId]\n      DUP4 \t\t\treturn products[productId]\n      GT \t\t\treturn products[productId]\n      PUSH [tag] 152\t\t\treturn products[productId]\n      JUMPI \t\t\treturn products[productId]\n      DUP3 \t\t\treturn products[productId]\n      SWAP1 \t\t\treturn products[productId]\n      SUB \t\t\treturn products[productId]\n      PUSH 1F\t\t\treturn products[productId]\n      AND \t\t\treturn products[productId]\n      DUP3 \t\t\treturn products[productId]\n      ADD \t\t\treturn products[productId]\n      SWAP2 \t\t\treturn products[productId]\n    tag 150\t\t\treturn products[productId]\n      JUMPDEST \t\t\treturn products[productId]\n      POP \t\t\treturn products[productId]\n      POP \t\t\treturn products[productId]\n      POP \t\t\treturn products[productId]\n      POP \t\t\treturn products[productId]\n      POP \t\t\treturn products[productId]\n      DUP2 \t\t\treturn products[productId]\n      MSTORE \t\t\treturn products[productId]\n      PUSH 20\t\t\treturn products[productId]\n      ADD \t\t\treturn products[productId]\n      PUSH 1\t\t\treturn products[productId]\n      DUP3 \t\t\treturn products[productId]\n      ADD \t\t\treturn products[productId]\n      DUP1 \t\t\treturn products[productId]\n      SLOAD \t\t\treturn products[productId]\n      PUSH [tag] 153\t\t\treturn products[productId]\n      SWAP1 \t\t\treturn products[productId]\n      PUSH [tag] 148\t\t\treturn products[productId]\n      JUMP \t\t\treturn products[productId]\n    tag 153\t\t\treturn products[productId]\n      JUMPDEST \t\t\treturn products[productId]\n      DUP1 \t\t\treturn products[productId]\n      PUSH 1F\t\t\treturn products[productId]\n      ADD \t\t\treturn products[productId]\n      PUSH 20\t\t\treturn products[productId]\n      DUP1 \t\t\treturn products[productId]\n      SWAP2 \t\t\treturn products[productId]\n      DIV \t\t\treturn products[productId]\n      MUL \t\t\treturn products[productId]\n      PUSH 20\t\t\treturn products[productId]\n      ADD \t\t\treturn products[productId]\n      PUSH 40\t\t\treturn products[productId]\n      MLOAD \t\t\treturn products[productId]\n      SWAP1 \t\t\treturn products[productId]\n      DUP2 \t\t\treturn products[productId]\n      ADD \t\t\treturn products[productId]\n      PUSH 40\t\t\treturn products[productId]\n      MSTORE \t\t\treturn products[productId]\n      DUP1 \t\t\treturn products[productId]\n      SWAP3 \t\t\treturn products[productId]\n      SWAP2 \t\t\treturn products[productId]\n      SWAP1 \t\t\treturn products[productId]\n      DUP2 \t\t\treturn products[productId]\n      DUP2 \t\t\treturn products[productId]\n      MSTORE \t\t\treturn products[productId]\n      PUSH 20\t\t\treturn products[productId]\n      ADD \t\t\treturn products[productId]\n      DUP3 \t\t\treturn products[productId]\n      DUP1 \t\t\treturn products[productId]\n      SLOAD \t\t\treturn products[productId]\n      PUSH [tag] 154\t\t\treturn products[productId]\n      SWAP1 \t\t\treturn products[productId]\n      PUSH [tag] 148\t\t\treturn products[productId]\n      JUMP \t\t\treturn products[productId]\n    tag 154\t\t\treturn products[productId]\n      JUMPDEST \t\t\treturn products[productId]\n      DUP1 \t\t\treturn products[productId]\n      ISZERO \t\t\treturn products[productId]\n      PUSH [tag] 155\t\t\treturn products[productId]\n      JUMPI \t\t\treturn products[productId]\n      DUP1 \t\t\treturn products[productId]\n      PUSH 1F\t\t\treturn products[productId]\n      LT \t\t\treturn products[productId]\n      PUSH [tag] 156\t\t\treturn products[productId]\n      JUMPI \t\t\treturn products[productId]\n      PUSH 100\t\t\treturn products[productId]\n      DUP1 \t\t\treturn products[productId]\n      DUP4 \t\t\treturn products[productId]\n      SLOAD \t\t\treturn products[productId]\n      DIV \t\t\treturn products[productId]\n      MUL \t\t\treturn products[productId]\n      DUP4 \t\t\treturn products[productId]\n      MSTORE \t\t\treturn products[productId]\n      SWAP2 \t\t\treturn products[productId]\n      PUSH 20\t\t\treturn products[productId]\n      ADD \t\t\treturn products[productId]\n      SWAP2 \t\t\treturn products[productId]\n      PUSH [tag] 155\t\t\treturn products[productId]\n      JUMP \t\t\treturn products[productId]\n    tag 156\t\t\treturn products[productId]\n      JUMPDEST \t\t\treturn products[productId]\n      DUP3 \t\t\treturn products[productId]\n      ADD \t\t\treturn products[productId]\n      SWAP2 \t\t\treturn products[productId]\n      SWAP1 \t\t\treturn products[productId]\n      PUSH 0\t\t\treturn products[productId]\n      MSTORE \t\t\treturn products[productId]\n      PUSH 20\t\t\treturn products[productId]\n      PUSH 0\t\t\treturn products[productId]\n      KECCAK256 \t\t\treturn products[productId]\n      SWAP1 \t\t\treturn products[productId]\n    tag 157\t\t\treturn products[productId]\n      JUMPDEST \t\t\treturn products[productId]\n      DUP2 \t\t\treturn products[productId]\n      SLOAD \t\t\treturn products[productId]\n      DUP2 \t\t\treturn products[productId]\n      MSTORE \t\t\treturn products[productId]\n      SWAP1 \t\t\treturn products[productId]\n      PUSH 1\t\t\treturn products[productId]\n      ADD \t\t\treturn products[productId]\n      SWAP1 \t\t\treturn products[productId]\n      PUSH 20\t\t\treturn products[productId]\n      ADD \t\t\treturn products[productId]\n      DUP1 \t\t\treturn products[productId]\n      DUP4 \t\t\treturn products[productId]\n      GT \t\t\treturn products[productId]\n      PUSH [tag] 157\t\t\treturn products[productId]\n      JUMPI \t\t\treturn products[productId]\n      DUP3 \t\t\treturn products[productId]\n      SWAP1 \t\t\treturn products[productId]\n      SUB \t\t\treturn products[productId]\n      PUSH 1F\t\t\treturn products[productId]\n      AND \t\t\treturn products[productId]\n      DUP3 \t\t\treturn products[productId]\n      ADD \t\t\treturn products[productId]\n      SWAP2 \t\t\treturn products[productId]\n    tag 155\t\t\treturn products[productId]\n      JUMPDEST \t\t\treturn products[productId]\n      POP \t\t\t\n      POP \t\t\t\n      POP \t\t\t\n      SWAP2 \t\t\treturn products[productId]\n      DUP4 \t\t\treturn products[productId]\n      MSTORE \t\t\treturn products[productId]\n      POP \t\t\t\n      POP \t\t\t\n      PUSH 2\t\t\treturn products[productId]\n      DUP3 \t\t\treturn products[productId]\n      ADD \t\t\treturn products[productId]\n      SLOAD \t\t\treturn products[productId]\n      PUSH FFFFFFFFFFFFFFFF\t\t\treturn products[productId]\n      DUP2 \t\t\treturn products[productId]\n      AND \t\t\treturn products[productId]\n      PUSH 20\t\t\treturn products[productId]\n      DUP4 \t\t\treturn products[productId]\n      ADD \t\t\treturn products[productId]\n      MSTORE \t\t\treturn products[productId]\n      PUSH 40\t\t\treturn products[productId]\n      SWAP1 \t\t\treturn products[productId]\n      SWAP2 \t\t\treturn products[productId]\n      ADD \t\t\treturn products[productId]\n      SWAP1 \t\t\treturn products[productId]\n      PUSH 1\t\t\t\n      PUSH 40\t\t\t\n      SHL \t\t\t\n      SWAP1 \t\t\treturn products[productId]\n      DIV \t\t\treturn products[productId]\n      PUSH FF\t\t\treturn products[productId]\n      AND \t\t\treturn products[productId]\n      PUSH 4\t\t\treturn products[productId]\n      DUP2 \t\t\treturn products[productId]\n      GT \t\t\treturn products[productId]\n      ISZERO \t\t\treturn products[productId]\n      PUSH [tag] 159\t\t\treturn products[productId]\n      JUMPI \t\t\treturn products[productId]\n      PUSH [tag] 159\t\t\treturn products[productId]\n      PUSH [tag] 104\t\t\treturn products[productId]\n      JUMP \t\t\treturn products[productId]\n    tag 159\t\t\treturn products[productId]\n      JUMPDEST \t\t\treturn products[productId]\n      PUSH 4\t\t\treturn products[productId]\n      DUP2 \t\t\treturn products[productId]\n      GT \t\t\treturn products[productId]\n      ISZERO \t\t\treturn products[productId]\n      PUSH [tag] 161\t\t\treturn products[productId]\n      JUMPI \t\t\treturn products[productId]\n      PUSH [tag] 161\t\t\treturn products[productId]\n      PUSH [tag] 104\t\t\treturn products[productId]\n      JUMP \t\t\treturn products[productId]\n    tag 161\t\t\treturn products[productId]\n      JUMPDEST \t\t\treturn products[productId]\n      DUP2 \t\t\treturn products[productId]\n      MSTORE \t\t\treturn products[productId]\n      PUSH 2\t\t\treturn products[productId]\n      SWAP2 \t\t\treturn products[productId]\n      SWAP1 \t\t\treturn products[productId]\n      SWAP2 \t\t\treturn products[productId]\n      ADD \t\t\treturn products[productId]\n      SLOAD \t\t\treturn products[productId]\n      PUSH 1\t\t\t\n      PUSH 48\t\t\t\n      SHL \t\t\t\n      SWAP1 \t\t\treturn products[productId]\n      DIV \t\t\treturn products[productId]\n      PUSH FF\t\t\treturn products[productId]\n      AND \t\t\treturn products[productId]\n      ISZERO \t\t\treturn products[productId]\n      ISZERO \t\t\treturn products[productId]\n      PUSH 20\t\t\treturn products[productId]\n      SWAP1 \t\t\treturn products[productId]\n      SWAP2 \t\t\treturn products[productId]\n      ADD \t\t\treturn products[productId]\n      MSTORE \t\t\treturn products[productId]\n      SWAP3 \t\t\treturn products[productId]\n      SWAP2 \t\t\treturn products[productId]\n      POP \t\t\t\n      POP \t\t\t\n      JUMP \t\t\tfunction getProduct(bytes32 pr...\n    tag 63\t\t\tfunction grantMany(bytes32 rol...\n      JUMPDEST \t\t\tfunction grantMany(bytes32 rol...\n      PUSH 0\t\t\t\n      DUP4 \t\t\t\n      DUP2 \t\t\t\n      MSTORE \t\t\t\n      PUSH 20\t\t\t\n      DUP2 \t\t\t\n      SWAP1 \t\t\t\n      MSTORE \t\t\t\n      PUSH 40\t\t\t\n      SWAP1 \t\t\t\n      KECCAK256 \t\t\t\n      PUSH 1\t\t\t\n      ADD \t\t\t\n      SLOAD \t\t\t\n      PUSH [tag] 164\t\t\t        timeHist\n      DUP2 \t\t\teHis\n      PUSH [tag] 109\t\t\t        ti\n      JUMP \t\t\t        timeHist\n    tag 164\t\t\t        timeHist\n      JUMPDEST \t\t\t        timeHist\n      PUSH 0\t\t\tuint i\n    tag 166\t\t\tfor (uint i = 0; i < addrs.len...\n      JUMPDEST \t\t\tfor (uint i = 0; i < addrs.len...\n      DUP3 \t\t\ti < addrs.length\n      DUP2 \t\t\ti < addrs.length\n      LT \t\t\ti < addrs.length\n      ISZERO \t\t\tfor (uint i = 0; i < addrs.len...\n      PUSH [tag] 167\t\t\tfor (uint i = 0; i < addrs.len...\n      JUMPI \t\t\tfor (uint i = 0; i < addrs.len...\n      PUSH [tag] 169\t\t\t_grantRole(role, addrs[i])\n      DUP6 \t\t\trole\n      DUP6 \t\t\taddrs\n      DUP6 \t\t\taddrs\n      DUP5 \t\t\ti\n      DUP2 \t\t\taddrs[i]\n      DUP2 \t\t\taddrs[i]\n      LT \t\t\taddrs[i]\n      PUSH [tag] 171\t\t\taddrs[i]\n      JUMPI \t\t\taddrs[i]\n      PUSH [tag] 171\t\t\taddrs[i]\n      PUSH [tag] 172\t\t\taddrs[i]\n      JUMP \t\t\taddrs[i]\n    tag 171\t\t\taddrs[i]\n      JUMPDEST \t\t\taddrs[i]\n      SWAP1 \t\t\taddrs[i]\n      POP \t\t\taddrs[i]\n      PUSH 20\t\t\taddrs[i]\n      MUL \t\t\taddrs[i]\n      ADD \t\t\taddrs[i]\n      PUSH 20\t\t\taddrs[i]\n      DUP2 \t\t\taddrs[i]\n      ADD \t\t\taddrs[i]\n      SWAP1 \t\t\taddrs[i]\n      PUSH [tag] 173\t\t\taddrs[i]\n      SWAP2 \t\t\taddrs[i]\n      SWAP1 \t\t\taddrs[i]\n      PUSH [tag] 174\t\t\taddrs[i]\n      JUMP \t\t\taddrs[i]\n    tag 173\t\t\taddrs[i]\n      JUMPDEST \t\t\taddrs[i]\n      PUSH [tag] 135\t\t\t_grantRole\n      JUMP \t\t\t_grantRole(role, addrs[i])\n    tag 169\t\t\t_grantRole(role, addrs[i])\n      JUMPDEST \t\t\t_grantRole(role, addrs[i])\n      POP \t\t\t\n      PUSH 1\t\t\ti++\n      ADD \t\t\ti++\n      PUSH [tag] 166\t\t\tfor (uint i = 0; i < addrs.len...\n      JUMP \t\t\tfor (uint i = 0; i < addrs.len...\n    tag 167\t\t\tfor (uint i = 0; i < addrs.len...\n      JUMPDEST \t\t\tfor (uint i = 0; i < addrs.len...\n      POP \t\t\tfor (uint i = 0; i < addrs.len...\n      POP \t\t\tfunction grantMany(bytes32 rol...\n      POP \t\t\tfunction grantMany(bytes32 rol...\n      POP \t\t\tfunction grantMany(bytes32 rol...\n      POP \t\t\tfunction grantMany(bytes32 rol...\n      JUMP \t\t\tfunction grantMany(bytes32 rol...\n    tag 66\t\t\tfunction setRetail(bytes32 pro...\n      JUMPDEST \t\t\tfunction setRetail(bytes32 pro...\n      PUSH 2A5F906C256A5D799494FCD066E1F6C077689DE1CDB65052A1624DE4BACE99BF\t\t\tkeccak256(\"RETAILER_ROLE\")\n      PUSH [tag] 176\t\t\t        timeHist\n      DUP2 \t\t\teHis\n      PUSH [tag] 109\t\t\t        ti\n      JUMP \t\t\t        timeHist\n    tag 176\t\t\t        timeHist\n      JUMPDEST \t\t\t        timeHist\n      PUSH [tag] 178\t\t\t_advance(productId, Status.Ret...\n      DUP3 \t\t\tproductId\n      PUSH 4\t\t\tStatus.Retail\n      PUSH 3\t\t\tStatus.Cleared\n      PUSH [tag] 179\t\t\t_advance\n      JUMP \t\t\t_advance(productId, Status.Ret...\n    tag 178\t\t\t_advance(productId, Status.Ret...\n      JUMPDEST \t\t\t_advance(productId, Status.Ret...\n      POP \t\t\tfunction setRetail(bytes32 pro...\n      POP \t\t\tfunction setRetail(bytes32 pro...\n      JUMP \t\t\tfunction setRetail(bytes32 pro...\n    tag 69\t\t\trnal view returns (Status[] me...\n      JUMPDEST \t\t\trnal view returns (Status[] me...\n      PUSH 0\t\t\tcts[\n      SWAP2 \t\t\t\"No product\"\n      DUP3 \t\t\t\"No product\"\n      MSTORE \t\t\t\"No product\"\n      PUSH 20\t\t\t\"No product\"\n      DUP3 \t\t\t\"No product\"\n      DUP2 \t\t\t\"No product\"\n      MSTORE \t\t\t\"No product\"\n      PUSH 40\t\t\t\"No product\"\n      DUP1 \t\t\t\"No product\"\n      DUP5 \t\t\t\"No product\"\n      KECCAK256 \t\t\t\"No product\"\n      PUSH 1\t\t\t\n      PUSH 1\t\t\t\n      PUSH A0\t\t\t\n      SHL \t\t\t\n      SUB \t\t\t\n      SWAP4 \t\t\t\"No product\");\\n        return\n      SWAP1 \t\t\t\"No product\");\\n        return\n      SWAP4 \t\t\t\"No product\");\\n        return\n      AND \t\t\t\"No product\");\\n        return\n      DUP5 \t\t\t\"No product\");\\n        return\n      MSTORE \t\t\t\"No product\");\\n        return\n      SWAP2 \t\t\t\"No product\");\\n        return\n      SWAP1 \t\t\t\"No product\");\\n        return\n      MSTORE \t\t\t\"No product\");\\n        return\n      SWAP1 \t\t\t\"No product\");\\n        return\n      KECCAK256 \t\t\t\"No product\");\\n        return\n      SLOAD \t\t\t\"No product\");\\n        return\n      PUSH FF\t\t\t\"No product\");\\n        return\n      AND \t\t\t\"No product\");\\n        return\n      SWAP1 \t\t\t\"No product\");\\n        return\n      JUMP \t\t\trnal view returns (Status[] me...\n    tag 82\t\t\tfunction setCollected(bytes32 ...\n      JUMPDEST \t\t\tfunction setCollected(bytes32 ...\n      PUSH 14CF45180C3FCF249A5A305E9657EA05C14FD4F4E1800EE0216A8213091711D2\t\t\tkeccak256(\"COLLECTOR_ROLE\")\n      PUSH [tag] 182\t\t\t        timeHist\n      DUP2 \t\t\teHis\n      PUSH [tag] 109\t\t\t        ti\n      JUMP \t\t\t        timeHist\n    tag 182\t\t\t        timeHist\n      JUMPDEST \t\t\t        timeHist\n      PUSH [tag] 178\t\t\t_advance(productId, Status.Col...\n      DUP3 \t\t\tproductId\n      PUSH 2\t\t\tStatus.Collected\n      PUSH 1\t\t\tStatus.Produced\n      PUSH [tag] 179\t\t\t_advance\n      JUMP \t\t\t_advance(productId, Status.Col...\n    tag 85\t\t\t\n      JUMPDEST \t\t\t\n      PUSH 0\t\t\t\n      DUP3 \t\t\t\n      DUP2 \t\t\t\n      MSTORE \t\t\t\n      PUSH 20\t\t\t\n      DUP2 \t\t\t\n      SWAP1 \t\t\t\n      MSTORE \t\t\t\n      PUSH 40\t\t\t\n      SWAP1 \t\t\t\n      KECCAK256 \t\t\t\n      PUSH 1\t\t\t\n      ADD \t\t\t\n      SLOAD \t\t\t\n      PUSH [tag] 187\t\t\t        timeHist\n      DUP2 \t\t\teHis\n      PUSH [tag] 109\t\t\t        ti\n      JUMP \t\t\t        timeHist\n    tag 187\t\t\t        timeHist\n      JUMPDEST \t\t\t        timeHist\n      PUSH [tag] 134\t\t\t\n      DUP4 \t\t\t\n      DUP4 \t\t\t\n      PUSH [tag] 141\t\t\t\n      JUMP \t\t\t\n    tag 91\t\t\tfunction setCleared(bytes32 pr...\n      JUMPDEST \t\t\tfunction setCleared(bytes32 pr...\n      PUSH 545CD3008E8205610EC65C7CA17F448815C2AB7EAAD3609FE9D3A0AED3356536\t\t\tkeccak256(\"CUSTOMS_ROLE\")\n      PUSH [tag] 191\t\t\t        timeHist\n      DUP2 \t\t\teHis\n      PUSH [tag] 109\t\t\t        ti\n      JUMP \t\t\t        timeHist\n    tag 191\t\t\t        timeHist\n      JUMPDEST \t\t\t        timeHist\n      PUSH [tag] 178\t\t\t_advance(productId, Status.Cle...\n      DUP3 \t\t\tproductId\n      PUSH 3\t\t\tStatus.Cleared\n      PUSH 2\t\t\tStatus.Collected\n      PUSH [tag] 179\t\t\t_advance\n      JUMP \t\t\t_advance(productId, Status.Cle...\n    tag 109\t\t\ttRole(role, addrs[i]);\\n    }\\...\n      JUMPDEST \t\t\ttRole(role, addrs[i]);\\n    }\\...\n      PUSH [tag] 196\t\t\t\n      DUP2 \t\t\t\n      CALLER \t\t\t32 => Stat\n      PUSH [tag] 198\t\t\t\n      JUMP \t\t\t\n    tag 196\t\t\t\n      JUMPDEST \t\t\t\n      POP \t\t\ttRole(role, addrs[i]);\\n    }\\...\n      JUMP \t\t\ttRole(role, addrs[i]);\\n    }\\...\n    tag 135\t\t\t\n      JUMPDEST \t\t\t\n      PUSH 0\t\t\t\n      PUSH [tag] 200\t\t\t\n      DUP4 \t\t\t\n      DUP4 \t\t\t\n      PUSH [tag] 69\t\t\t\n      JUMP \t\t\t\n    tag 200\t\t\t\n      JUMPDEST \t\t\t\n      PUSH [tag] 201\t\t\t\n      JUMPI \t\t\t\n      PUSH 0\t\t\t\n      DUP4 \t\t\t\n      DUP2 \t\t\t\n      MSTORE \t\t\t\n      PUSH 20\t\t\t\n      DUP2 \t\t\t\n      DUP2 \t\t\t\n      MSTORE \t\t\t\n      PUSH 40\t\t\t\n      DUP1 \t\t\t\n      DUP4 \t\t\t\n      KECCAK256 \t\t\t\n      PUSH 1\t\t\t\n      PUSH 1\t\t\t\n      PUSH A0\t\t\t\n      SHL \t\t\t\n      SUB \t\t\t\n      DUP7 \t\t\t\n      AND \t\t\t\n      DUP5 \t\t\t\n      MSTORE \t\t\t\n      SWAP1 \t\t\t\n      SWAP2 \t\t\t\n      MSTORE \t\t\t\n      SWAP1 \t\t\t\n      KECCAK256 \t\t\t\n      DUP1 \t\t\t\n      SLOAD \t\t\t\n      PUSH FF\t\t\t\n      NOT \t\t\t\n      AND \t\t\t\n      PUSH 1\t\t\t\n      OR \t\t\t\n      SWAP1 \t\t\t\n      SSTORE \t\t\t\n      PUSH [tag] 202\t\t\t\n      CALLER \t\t\t32 => Stat\n      SWAP1 \t\t\t32 => Stat\n      JUMP \t\t\tsts;\\n    }\\n\\n    mapping(byt...\n    tag 202\t\t\t\n      JUMPDEST \t\t\t\n      PUSH 1\t\t\t\n      PUSH 1\t\t\t\n      PUSH A0\t\t\t\n      SHL \t\t\t\n      SUB \t\t\t\n      AND \t\t\t\n      DUP3 \t\t\t\n      PUSH 1\t\t\t\n      PUSH 1\t\t\t\n      PUSH A0\t\t\t\n      SHL \t\t\t\n      SUB \t\t\t\n      AND \t\t\t\n      DUP5 \t\t\t\n      PUSH 2F8788117E7EFF1D82E926EC794901D17C78024A50270940304540A733656F0D\t\t\t\n      PUSH 40\t\t\t\n      MLOAD \t\t\t\n      PUSH 40\t\t\t\n      MLOAD \t\t\t\n      DUP1 \t\t\t\n      SWAP2 \t\t\t\n      SUB \t\t\t\n      SWAP1 \t\t\t\n      LOG4 \t\t\t\n      POP \t\t\t\n      PUSH 1\t\t\t\n      PUSH [tag] 94\t\t\t\n      JUMP \t\t\t\n    tag 201\t\t\t\n      JUMPDEST \t\t\t\n      POP \t\t\t\n      PUSH 0\t\t\t\n      PUSH [tag] 94\t\t\t\n      JUMP \t\t\t\n    tag 141\t\t\t\n      JUMPDEST \t\t\t\n      PUSH 0\t\t\t\n      PUSH [tag] 206\t\t\t\n      DUP4 \t\t\t\n      DUP4 \t\t\t\n      PUSH [tag] 69\t\t\t\n      JUMP \t\t\t\n    tag 206\t\t\t\n      JUMPDEST \t\t\t\n      ISZERO \t\t\t\n      PUSH [tag] 201\t\t\t\n      JUMPI \t\t\t\n      PUSH 0\t\t\t\n      DUP4 \t\t\t\n      DUP2 \t\t\t\n      MSTORE \t\t\t\n      PUSH 20\t\t\t\n      DUP2 \t\t\t\n      DUP2 \t\t\t\n      MSTORE \t\t\t\n      PUSH 40\t\t\t\n      DUP1 \t\t\t\n      DUP4 \t\t\t\n      KECCAK256 \t\t\t\n      PUSH 1\t\t\t\n      PUSH 1\t\t\t\n      PUSH A0\t\t\t\n      SHL \t\t\t\n      SUB \t\t\t\n      DUP7 \t\t\t\n      AND \t\t\t\n      DUP1 \t\t\t\n      DUP6 \t\t\t\n      MSTORE \t\t\t\n      SWAP3 \t\t\t\n      MSTORE \t\t\t\n      DUP1 \t\t\t\n      DUP4 \t\t\t\n      KECCAK256 \t\t\t\n      DUP1 \t\t\t\n      SLOAD \t\t\t\n      PUSH FF\t\t\t\n      NOT \t\t\t\n      AND \t\t\t\n      SWAP1 \t\t\t\n      SSTORE \t\t\t\n      MLOAD \t\t\t\n      CALLER \t\t\t32 => Stat\n      SWAP3 \t\t\t32 => Stat\n      DUP7 \t\t\t\n      SWAP2 \t\t\t\n      PUSH F6391F5C32D9C69D2A47EA670B442974B53935D1EDC7FD64EB21E047A839171B\t\t\t\n      SWAP2 \t\t\t\n      SWAP1 \t\t\t\n      LOG4 \t\t\t\n      POP \t\t\t\n      PUSH 1\t\t\t\n      PUSH [tag] 94\t\t\t\n      JUMP \t\t\t\n    tag 179\t\t\tfunction _advance(bytes32 prod...\n      JUMPDEST \t\t\tfunction _advance(bytes32 prod...\n      PUSH 0\t\t\tproducts[productId]\n      DUP4 \t\t\tproducts[productId]\n      DUP2 \t\t\tproducts[productId]\n      MSTORE \t\t\tproducts[productId]\n      PUSH 1\t\t\tproducts\n      PUSH 20\t\t\tproducts[productId]\n      MSTORE \t\t\tproducts[productId]\n      PUSH 40\t\t\tproducts[productId]\n      SWAP1 \t\t\tproducts[productId]\n      KECCAK256 \t\t\tproducts[productId]\n      PUSH 2\t\t\tproducts[productId].exists\n      ADD \t\t\tproducts[productId].exists\n      SLOAD \t\t\tproducts[productId].exists\n      PUSH 1\t\t\t\n      PUSH 48\t\t\t\n      SHL \t\t\t\n      SWAP1 \t\t\tproducts[productId].exists\n      DIV \t\t\tproducts[productId].exists\n      PUSH FF\t\t\tproducts[productId].exists\n      AND \t\t\tproducts[productId].exists\n      PUSH [tag] 211\t\t\trequire(products[productId].ex...\n      JUMPI \t\t\trequire(products[productId].ex...\n      PUSH 40\t\t\trequire(products[productId].ex...\n      MLOAD \t\t\trequire(products[productId].ex...\n      PUSH 461BCD\t\t\t\n      PUSH E5\t\t\t\n      SHL \t\t\t\n      DUP2 \t\t\trequire(products[productId].ex...\n      MSTORE \t\t\trequire(products[productId].ex...\n      PUSH 4\t\t\trequire(products[productId].ex...\n      ADD \t\t\trequire(products[productId].ex...\n      PUSH [tag] 98\t\t\trequire(products[productId].ex...\n      SWAP1 \t\t\trequire(products[productId].ex...\n      PUSH [tag] 99\t\t\trequire(products[productId].ex...\n      JUMP \t\t\trequire(products[productId].ex...\n    tag 211\t\t\trequire(products[productId].ex...\n      JUMPDEST \t\t\trequire(products[productId].ex...\n      DUP1 \t\t\trequiredPrev\n      PUSH 4\t\t\tproducts[productId].status == ...\n      DUP2 \t\t\tproducts[productId].status == ...\n      GT \t\t\tproducts[productId].status == ...\n      ISZERO \t\t\tproducts[productId].status == ...\n      PUSH [tag] 214\t\t\tproducts[productId].status == ...\n      JUMPI \t\t\tproducts[productId].status == ...\n      PUSH [tag] 214\t\t\tproducts[productId].status == ...\n      PUSH [tag] 104\t\t\tproducts[productId].status == ...\n      JUMP \t\t\tproducts[productId].status == ...\n    tag 214\t\t\tproducts[productId].status == ...\n      JUMPDEST \t\t\tproducts[productId].status == ...\n      PUSH 0\t\t\tproducts[productId]\n      DUP5 \t\t\tproducts[productId]\n      DUP2 \t\t\tproducts[productId]\n      MSTORE \t\t\tproducts[productId]\n      PUSH 1\t\t\tproducts\n      PUSH 20\t\t\tproducts[productId]\n      MSTORE \t\t\tproducts[productId]\n      PUSH 40\t\t\tproducts[productId]\n      SWAP1 \t\t\tproducts[productId]\n      KECCAK256 \t\t\tproducts[productId]\n      PUSH 2\t\t\tproducts[productId].status\n      ADD \t\t\tproducts[productId].status\n      SLOAD \t\t\tproducts[productId].status\n      PUSH 1\t\t\t\n      PUSH 40\t\t\t\n      SHL \t\t\t\n      SWAP1 \t\t\tproducts[productId].status\n      DIV \t\t\tproducts[productId].status\n      PUSH FF\t\t\tproducts[productId].status\n      AND \t\t\tproducts[productId].status\n      PUSH 4\t\t\tproducts[productId].status == ...\n      DUP2 \t\t\tproducts[productId].status == ...\n      GT \t\t\tproducts[productId].status == ...\n      ISZERO \t\t\tproducts[productId].status == ...\n      PUSH [tag] 216\t\t\tproducts[productId].status == ...\n      JUMPI \t\t\tproducts[productId].status == ...\n      PUSH [tag] 216\t\t\tproducts[productId].status == ...\n      PUSH [tag] 104\t\t\tproducts[productId].status == ...\n      JUMP \t\t\tproducts[productId].status == ...\n    tag 216\t\t\tproducts[productId].status == ...\n      JUMPDEST \t\t\tproducts[productId].status == ...\n      EQ \t\t\tproducts[productId].status == ...\n      PUSH [tag] 217\t\t\trequire(products[productId].st...\n      JUMPI \t\t\trequire(products[productId].st...\n      PUSH 40\t\t\trequire(products[productId].st...\n      MLOAD \t\t\trequire(products[productId].st...\n      PUSH 461BCD\t\t\t\n      PUSH E5\t\t\t\n      SHL \t\t\t\n      DUP2 \t\t\trequire(products[productId].st...\n      MSTORE \t\t\trequire(products[productId].st...\n      PUSH 20\t\t\t\n      PUSH 4\t\t\trequire(products[productId].st...\n      DUP3 \t\t\trequire(products[productId].st...\n      ADD \t\t\trequire(products[productId].st...\n      MSTORE \t\t\t\n      PUSH B\t\t\t\n      PUSH 24\t\t\t\n      DUP3 \t\t\t\n      ADD \t\t\t\n      MSTORE \t\t\t\n      PUSH 2BB937B7339037B93232B9\t\t\t\n      PUSH A9\t\t\t\n      SHL \t\t\t\n      PUSH 44\t\t\t\n      DUP3 \t\t\t\n      ADD \t\t\t\n      MSTORE \t\t\t\n      PUSH 64\t\t\t\n      ADD \t\t\t\n      PUSH [tag] 98\t\t\trequire(products[productId].st...\n      JUMP \t\t\t\n    tag 217\t\t\trequire(products[productId].st...\n      JUMPDEST \t\t\trequire(products[productId].st...\n      PUSH 0\t\t\tproducts[productId]\n      DUP4 \t\t\tproducts[productId]\n      DUP2 \t\t\tproducts[productId]\n      MSTORE \t\t\tproducts[productId]\n      PUSH 1\t\t\tproducts\n      PUSH 20\t\t\tproducts[productId]\n      MSTORE \t\t\tproducts[productId]\n      PUSH 40\t\t\tproducts[productId]\n      SWAP1 \t\t\tproducts[productId]\n      KECCAK256 \t\t\tproducts[productId]\n      PUSH 2\t\t\tproducts[productId].status\n      ADD \t\t\tproducts[productId].status\n      DUP1 \t\t\tproducts[productId].status = t...\n      SLOAD \t\t\tproducts[productId].status = t...\n      DUP4 \t\t\ttarget\n      SWAP2 \t\t\ttarget\n      SWAP1 \t\t\tproducts[productId].status\n      PUSH FF0000000000000000\t\t\t\n      NOT \t\t\t\n      AND \t\t\tproducts[productId].status = t...\n      PUSH 1\t\t\t\n      PUSH 40\t\t\t\n      SHL \t\t\t\n      DUP4 \t\t\ttarget\n      PUSH 4\t\t\tproducts[productId].status = t...\n      DUP2 \t\t\tproducts[productId].status = t...\n      GT \t\t\tproducts[productId].status = t...\n      ISZERO \t\t\tproducts[productId].status = t...\n      PUSH [tag] 221\t\t\tproducts[productId].status = t...\n      JUMPI \t\t\tproducts[productId].status = t...\n      PUSH [tag] 221\t\t\tproducts[productId].status = t...\n      PUSH [tag] 104\t\t\tproducts[productId].status = t...\n      JUMP \t\t\tproducts[productId].status = t...\n    tag 221\t\t\tproducts[productId].status = t...\n      JUMPDEST \t\t\tproducts[productId].status = t...\n      MUL \t\t\tproducts[productId].status = t...\n      OR \t\t\tproducts[productId].status = t...\n      SWAP1 \t\t\tproducts[productId].status = t...\n      SSTORE \t\t\tproducts[productId].status = t...\n      POP \t\t\t\n      PUSH 0\t\t\tstatusHistory[productId]\n      DUP4 \t\t\tstatusHistory[productId]\n      DUP2 \t\t\tstatusHistory[productId]\n      MSTORE \t\t\tstatusHistory[productId]\n      PUSH 2\t\t\tstatusHistory\n      PUSH 20\t\t\tstatusHistory[productId]\n      SWAP1 \t\t\tstatusHistory[productId]\n      DUP2 \t\t\tstatusHistory[productId]\n      MSTORE \t\t\tstatusHistory[productId]\n      PUSH 40\t\t\tstatusHistory[productId]\n      DUP3 \t\t\tstatusHistory[productId]\n      KECCAK256 \t\t\tstatusHistory[productId]\n      DUP1 \t\t\tstatusHistory[productId].push(...\n      SLOAD \t\t\tstatusHistory[productId].push(...\n      PUSH 1\t\t\tstatusHistory[productId].push(...\n      DUP2 \t\t\tstatusHistory[productId].push(...\n      ADD \t\t\tstatusHistory[productId].push(...\n      DUP3 \t\t\tstatusHistory[productId].push(...\n      SSTORE \t\t\tstatusHistory[productId].push(...\n      SWAP1 \t\t\tstatusHistory[productId].push(...\n      DUP4 \t\t\tstatusHistory[productId].push(...\n      MSTORE \t\t\tstatusHistory[productId].push(...\n      SWAP2 \t\t\tstatusHistory[productId].push(...\n      DUP2 \t\t\tstatusHistory[productId].push(...\n      SWAP1 \t\t\tstatusHistory[productId].push(...\n      KECCAK256 \t\t\tstatusHistory[productId].push(...\n      SWAP1 \t\t\tstatusHistory[productId].push(...\n      DUP3 \t\t\tstatusHistory[productId].push(...\n      DIV \t\t\tstatusHistory[productId].push(...\n      ADD \t\t\tstatusHistory[productId].push(...\n      DUP1 \t\t\tstatusHistory[productId].push(...\n      SLOAD \t\t\tstatusHistory[productId].push(...\n      DUP5 \t\t\ttarget\n      SWAP3 \t\t\ttarget\n      PUSH 1F\t\t\tstatusHistory[productId].push(...\n      AND \t\t\tstatusHistory[productId].push(...\n      PUSH 100\t\t\tstatusHistory[productId].push(...\n      EXP \t\t\tstatusHistory[productId].push(...\n      PUSH FF\t\t\tstatusHistory[productId].push(...\n      DUP2 \t\t\tstatusHistory[productId].push(...\n      MUL \t\t\tstatusHistory[productId].push(...\n      NOT \t\t\tstatusHistory[productId].push(...\n      SWAP1 \t\t\tstatusHistory[productId].push(...\n      SWAP2 \t\t\tstatusHistory[productId].push(...\n      AND \t\t\tstatusHistory[productId].push(...\n      SWAP1 \t\t\tstatusHistory[productId].push(...\n      DUP4 \t\t\ttarget\n      PUSH 4\t\t\tstatusHistory[productId].push(...\n      DUP2 \t\t\tstatusHistory[productId].push(...\n      GT \t\t\tstatusHistory[productId].push(...\n      ISZERO \t\t\tstatusHistory[productId].push(...\n      PUSH [tag] 224\t\t\tstatusHistory[productId].push(...\n      JUMPI \t\t\tstatusHistory[productId].push(...\n      PUSH [tag] 224\t\t\tstatusHistory[productId].push(...\n      PUSH [tag] 104\t\t\tstatusHistory[productId].push(...\n      JUMP \t\t\tstatusHistory[productId].push(...\n    tag 224\t\t\tstatusHistory[productId].push(...\n      JUMPDEST \t\t\tstatusHistory[productId].push(...\n      MUL \t\t\tstatusHistory[productId].push(...\n      OR \t\t\tstatusHistory[productId].push(...\n      SWAP1 \t\t\tstatusHistory[productId].push(...\n      SSTORE \t\t\tstatusHistory[productId].push(...\n      POP \t\t\t\n      PUSH 0\t\t\ttimeHistory[productId]\n      DUP4 \t\t\ttimeHistory[productId]\n      DUP2 \t\t\ttimeHistory[productId]\n      MSTORE \t\t\ttimeHistory[productId]\n      PUSH 3\t\t\ttimeHistory\n      PUSH 20\t\t\ttimeHistory[productId]\n      SWAP1 \t\t\ttimeHistory[productId]\n      DUP2 \t\t\ttimeHistory[productId]\n      MSTORE \t\t\ttimeHistory[productId]\n      PUSH 40\t\t\ttimeHistory[productId]\n      DUP1 \t\t\ttimeHistory[productId]\n      DUP4 \t\t\ttimeHistory[productId]\n      KECCAK256 \t\t\ttimeHistory[productId]\n      DUP1 \t\t\ttimeHistory[productId].push(bl...\n      SLOAD \t\t\ttimeHistory[productId].push(bl...\n      PUSH 1\t\t\ttimeHistory[productId].push(bl...\n      DUP2 \t\t\ttimeHistory[productId].push(bl...\n      ADD \t\t\ttimeHistory[productId].push(bl...\n      DUP3 \t\t\ttimeHistory[productId].push(bl...\n      SSTORE \t\t\ttimeHistory[productId].push(bl...\n      SWAP1 \t\t\ttimeHistory[productId].push(bl...\n      DUP5 \t\t\ttimeHistory[productId].push(bl...\n      MSTORE \t\t\ttimeHistory[productId].push(bl...\n      SWAP2 \t\t\ttimeHistory[productId].push(bl...\n      SWAP1 \t\t\ttimeHistory[productId].push(bl...\n      SWAP3 \t\t\ttimeHistory[productId].push(bl...\n      KECCAK256 \t\t\ttimeHistory[productId].push(bl...\n      TIMESTAMP \t\t\tblock.timestamp\n      SWAP2 \t\t\ttimeHistory[productId].push(bl...\n      ADD \t\t\ttimeHistory[productId].push(bl...\n      DUP2 \t\t\ttimeHistory[productId].push(bl...\n      SWAP1 \t\t\ttimeHistory[productId].push(bl...\n      SSTORE \t\t\ttimeHistory[productId].push(bl...\n      SWAP1 \t\t\tTraceUpdated(productId, target...\n      MLOAD \t\t\tTraceUpdated(productId, target...\n      DUP5 \t\t\tproductId\n      SWAP2 \t\t\tproductId\n      PUSH CA73B838FB308ED0DE2F1D63EE69E1AF3C7D64A31B00067689CBBE94D50C86D4\t\t\tTraceUpdated(productId, target...\n      SWAP2 \t\t\tTraceUpdated(productId, target...\n      PUSH [tag] 226\t\t\tTraceUpdated(productId, target...\n      SWAP2 \t\t\tTraceUpdated(productId, target...\n      DUP7 \t\t\ttarget\n      SWAP2 \t\t\ttarget\n      PUSH [tag] 128\t\t\tTraceUpdated(productId, target...\n      JUMP \t\t\tTraceUpdated(productId, target...\n    tag 226\t\t\tTraceUpdated(productId, target...\n      JUMPDEST \t\t\tTraceUpdated(productId, target...\n      PUSH 40\t\t\tTraceUpdated(productId, target...\n      MLOAD \t\t\tTraceUpdated(productId, target...\n      DUP1 \t\t\tTraceUpdated(productId, target...\n      SWAP2 \t\t\tTraceUpdated(productId, target...\n      SUB \t\t\tTraceUpdated(productId, target...\n      SWAP1 \t\t\tTraceUpdated(productId, target...\n      LOG2 \t\t\tTraceUpdated(productId, target...\n      POP \t\t\tfunction _advance(bytes32 prod...\n      POP \t\t\tfunction _advance(bytes32 prod...\n      POP \t\t\tfunction _advance(bytes32 prod...\n      JUMP \t\t\tfunction _advance(bytes32 prod...\n    tag 198\t\t\t\n      JUMPDEST \t\t\t\n      PUSH [tag] 228\t\t\t\n      DUP3 \t\t\t\n      DUP3 \t\t\t\n      PUSH [tag] 69\t\t\t\n      JUMP \t\t\t\n    tag 228\t\t\t\n      JUMPDEST \t\t\t\n      PUSH [tag] 178\t\t\t\n      JUMPI \t\t\t\n      PUSH 40\t\t\t\n      MLOAD \t\t\t\n      PUSH E2517D3F\t\t\t\n      PUSH E0\t\t\t\n      SHL \t\t\t\n      DUP2 \t\t\t\n      MSTORE \t\t\t\n      PUSH 1\t\t\t\n      PUSH 1\t\t\t\n      PUSH A0\t\t\t\n      SHL \t\t\t\n      SUB \t\t\t\n      DUP3 \t\t\t\n      AND \t\t\t\n      PUSH 4\t\t\t\n      DUP3 \t\t\t\n      ADD \t\t\t\n      MSTORE \t\t\t\n      PUSH 24\t\t\t\n      DUP2 \t\t\t\n      ADD \t\t\t\n      DUP4 \t\t\t\n      SWAP1 \t\t\t\n      MSTORE \t\t\t\n      PUSH 44\t\t\t\n      ADD \t\t\t\n      PUSH [tag] 98\t\t\t\n      JUMP \t\t\t\n    tag 143\t\t\t\n      JUMPDEST \t\t\t\n      PUSH 40\t\t\t\n      MLOAD \t\t\t\n      DUP1 \t\t\t\n      PUSH A0\t\t\t\n      ADD \t\t\t\n      PUSH 40\t\t\t\n      MSTORE \t\t\t\n      DUP1 \t\t\t\n      PUSH 60\t\t\t\n      DUP2 \t\t\t\n      MSTORE \t\t\t\n      PUSH 20\t\t\t\n      ADD \t\t\t\n      PUSH 60\t\t\t\n      DUP2 \t\t\t\n      MSTORE \t\t\t\n      PUSH 20\t\t\t\n      ADD \t\t\t\n      PUSH 0\t\t\t\n      PUSH FFFFFFFFFFFFFFFF\t\t\t\n      AND \t\t\t\n      DUP2 \t\t\t\n      MSTORE \t\t\t\n      PUSH 20\t\t\t\n      ADD \t\t\t\n      PUSH 0\t\t\t\n      PUSH 4\t\t\t\n      DUP2 \t\t\t\n      GT \t\t\t\n      ISZERO \t\t\t\n      PUSH [tag] 233\t\t\t\n      JUMPI \t\t\t\n      PUSH [tag] 233\t\t\t\n      PUSH [tag] 104\t\t\t\n      JUMP \t\t\t\n    tag 233\t\t\t\n      JUMPDEST \t\t\t\n      DUP2 \t\t\t\n      MSTORE \t\t\t\n      PUSH 0\t\t\t\n      PUSH 20\t\t\t\n      SWAP1 \t\t\t\n      SWAP2 \t\t\t\n      ADD \t\t\t\n      MSTORE \t\t\t\n      SWAP1 \t\t\t\n      JUMP \t\t\t\n    tag 26\t\t\te-Identifier: MIT\\npragma soli...\n      JUMPDEST \t\t\te-Identifier: MIT\\npragma soli...\n      PUSH 0\t\t\teppeli\n      PUSH 20\t\t\tt \n      DUP3 \t\t\tl\";\\n\\ncont\n      DUP5 \t\t\tontrol.\n      SUB \t\t\tessControl.sol\";\\n\\ncontr\n      SLT \t\t\t/AccessControl.sol\";\\n\\ncontra...\n      ISZERO \t\t\tess/AccessControl.sol\";\\n\\ncon...\n      PUSH [tag] 245\t\t\tess/AccessControl.sol\";\\n\\ncon...\n      JUMPI \t\t\tess/AccessControl.sol\";\\n\\ncon...\n      PUSH 0\t\t\tc\n      DUP1 \t\t\ts\n      REVERT \t\t\tTrace is Acc\n    tag 245\t\t\tess/AccessControl.sol\";\\n\\ncon...\n      JUMPDEST \t\t\tess/AccessControl.sol\";\\n\\ncon...\n      DUP2 \t\t\t public constant MANUFA\n      CALLDATALOAD \t\t\t public constant MANUFA\n      PUSH 1\t\t\t\n      PUSH 1\t\t\t\n      PUSH E0\t\t\t\n      SHL \t\t\t\n      SUB \t\t\t\n      NOT \t\t\t\n      DUP2 \t\t\tFACTURER_ROLE\");\\n    bytes32 ...\n      AND \t\t\tFACTURER_ROLE\");\\n    bytes32 ...\n      DUP2 \t\t\tk256(\"MANUFACTURER_ROLE\");\\n  ...\n      EQ \t\t\tk256(\"MANUFACTURER_ROLE\");\\n  ...\n      PUSH [tag] 246\t\t\tLE = keccak256(\"MANUFACTURER_R...\n      JUMPI \t\t\tLE = keccak256(\"MANUFACTURER_R...\n      PUSH 0\t\t\tL\n      DUP1 \t\t\t \n      REVERT \t\t\tonstant COLL\n    tag 246\t\t\tLE = keccak256(\"MANUFACTURER_R...\n      JUMPDEST \t\t\tLE = keccak256(\"MANUFACTURER_R...\n      SWAP4 \t\t\tk256(\n      SWAP3 \t\t\te-Identifier: MIT\\npragma soli...\n      POP \t\t\t\n      POP \t\t\t\n      POP \t\t\t\n      JUMP \t\t\te-Identifier: MIT\\npragma soli...\n    tag 32\t\t\t, Collected, Cleared, Retail }...\n      JUMPDEST \t\t\t, Collected, Cleared, Retail }...\n      PUSH 0\t\t\t  stri\n      PUSH 20\t\t\tfg\n      DUP3 \t\t\t    uint6\n      DUP5 \t\t\ttch;\\n  \n      SUB \t\t\tg batch;\\n        uint64\n      SLT \t\t\ttring batch;\\n        uint64 m...\n      ISZERO \t\t\t  string batch;\\n        uint6...\n      PUSH [tag] 249\t\t\t  string batch;\\n        uint6...\n      JUMPI \t\t\t  string batch;\\n        uint6...\n      PUSH 0\t\t\tS\n      DUP1 \t\t\t \n      REVERT \t\t\t;\\n        St\n    tag 249\t\t\t  string batch;\\n        uint6...\n      JUMPDEST \t\t\t  string batch;\\n        uint6...\n      POP \t\t\t\n      CALLDATALOAD \t\t\tbool exists;\\n    }\\n\\n   \n      SWAP2 \t\t\tbool exists;\\n    }\\n\\n   \n      SWAP1 \t\t\t, Collected, Cleared, Retail }...\n      POP \t\t\t\n      JUMP \t\t\t, Collected, Cleared, Retail }...\n    tag 104\t\t\ttes32 => Product) private prod...\n      JUMPDEST \t\t\ttes32 => Product) private prod...\n      PUSH 4E487B71\t\t\tatus[]) pr\n      PUSH E0\t\t\t=> \n      SHL \t\t\ts32 => Status[]) pri\n      PUSH 0\t\t\ty\n      MSTORE \t\t\tpping(bytes32 => Status[]) pri...\n      PUSH 21\t\t\t    \n      PUSH 4\t\t\ty\n      MSTORE \t\t\tsHistory;\\n    m\n      PUSH 24\t\t\tint2\n      PUSH 0\t\t\t>\n      REVERT \t\t\ttes32 => uint25\n    tag 234\t\t\te timeHistory;\\n\\n    event Pr...\n      JUMPDEST \t\t\te timeHistory;\\n\\n    event Pr...\n      PUSH 5\t\t\tn\n      DUP2 \t\t\tstrin\n      LT \t\t\td, string na\n      PUSH [tag] 252\t\t\td productId, string name, stri...\n      JUMPI \t\t\td productId, string name, stri...\n      PUSH 4E487B71\t\t\tt TraceUpd\n      PUSH E0\t\t\t ev\n      SHL \t\t\t\\n    event TraceUpda\n      PUSH 0\t\t\te\n      MSTORE \t\t\t mfgDate);\\n    event TraceUpd...\n      PUSH 21\t\t\tuctI\n      PUSH 4\t\t\tr\n      MSTORE \t\t\tdexed productId\n      PUSH 24\t\t\tt256\n      PUSH 0\t\t\tu\n      REVERT \t\t\ttatus, uint256 \n    tag 252\t\t\td productId, string name, stri...\n      JUMPDEST \t\t\td productId, string name, stri...\n      SWAP1 \t\t\tnstructor(address \n      MSTORE \t\t\tnstructor(address \n      JUMP \t\t\te timeHistory;\\n\\n    event Pr...\n    tag 35\t\t\t      _grantRole(DEFAULT_ADMIN...\n      JUMPDEST \t\t\t      _grantRole(DEFAULT_ADMIN...\n      PUSH 40\t\t\tis\n      DUP1 \t\t\t    products[productI\n      DUP3 \t\t\t    products[productI\n      MSTORE \t\t\t    products[productI\n      DUP4 \t\t\tmfgDate, stat\n      MLOAD \t\t\tmfgDate, stat\n      SWAP1 \t\t\tts, \"Already exist\n      DUP3 \t\t\tts, \"Already exist\n      ADD \t\t\tts, \"Already exist\n      DUP2 \t\t\ts.Produced, exists: tr\n      SWAP1 \t\t\ts.Produced, exists: tr\n      MSTORE \t\t\ts.Produced, exists: tr\n      PUSH 0\t\t\trequ\n      SWAP1 \t\t\trequ\n      PUSH 20\t\t\toduc\n      SWAP1 \t\t\toduc\n      PUSH 60\t\t\tdu\n      DUP5 \t\t\tatusHistory[produc\n      ADD \t\t\tatusHistory[produc\n      SWAP1 \t\t\tatusHistory[produc\n      DUP3 \t\t\ty[productId].pu\n      DUP8 \t\t\ty[productId].pu\n      ADD \t\t\ty[productId].pu\n      DUP5 \t\t\trequ\n    tag 254\t\t\t emit ProductRegistered(produc...\n      JUMPDEST \t\t\t emit ProductRegistered(produc...\n      DUP3 \t\t\tegiste\n      DUP2 \t\t\tc\n      LT \t\t\toductRegister\n      ISZERO \t\t\t emit ProductRegistered(produc...\n      PUSH [tag] 256\t\t\t emit ProductRegistered(produc...\n      JUMPI \t\t\t emit ProductRegistered(produc...\n      PUSH [tag] 257\t\t\t   emit TraceUpdated(productId...\n      DUP5 \t\t\t.Pr\n      DUP4 \t\t\td, Sta\n      MLOAD \t\t\toductId, Stat\n      PUSH [tag] 234\t\t\t   emit TraceUpdated(productId...\n      JUMP \t\t\t   emit TraceUpdated(productId...\n    tag 257\t\t\t   emit TraceUpdated(productId...\n      JUMPDEST \t\t\t   emit TraceUpdated(productId...\n      SWAP3 \t\t\tmp);\\n    }\\n\\n\n      DUP5 \t\t\tmp);\\n    }\\n\\n\n      ADD \t\t\tmp);\\n    }\\n\\n\n      SWAP3 \t\t\tmp);\\n    }\\n\\n\n      SWAP1 \t\t\ted(bytes32 prod\n      DUP5 \t\t\ted(bytes32 prod\n      ADD \t\t\ted(bytes32 prod\n      SWAP1 \t\t\ted(bytes32 prod\n      PUSH 1\t\t\ta\n      ADD \t\t\tctId, nam\n      PUSH [tag] 254\t\t\t emit ProductRegistered(produc...\n      JUMP \t\t\t emit ProductRegistered(produc...\n    tag 256\t\t\t emit ProductRegistered(produc...\n      JUMPDEST \t\t\t emit ProductRegistered(produc...\n      POP \t\t\t\n      POP \t\t\t\n      POP \t\t\t\n      DUP4 \t\t\t     _advance(produ\n      DUP2 \t\t\t     _advance(produ\n      SUB \t\t\t     _advance(produ\n      DUP3 \t\t\tOLLECTOR_ROLE) {\\n \n      DUP6 \t\t\tOLLECTOR_ROLE) {\\n \n      ADD \t\t\tOLLECTOR_ROLE) {\\n \n      MSTORE \t\t\tyRole(COLLECTOR_ROLE) {\\n     ...\n      DUP5 \t\t\t  function se\n      MLOAD \t\t\t  function se\n      DUP1 \t\t\tbytes32 productId) ex\n      DUP3 \t\t\tbytes32 productId) ex\n      MSTORE \t\t\tbytes32 productId) ex\n      DUP6 \t\t\ttId, Status.Cle\n      DUP4 \t\t\ttId, Status.Cle\n      ADD \t\t\ttId, Status.Cle\n      SWAP2 \t\t\ttId, Status.Cle\n      DUP4 \t\t\tSTOMS_ROLE) \n      ADD \t\t\tSTOMS_ROLE) \n      SWAP1 \t\t\tSTOMS_ROLE) \n      PUSH 0\t\t\te\n    tag 258\t\t\t\\n\\n    function setRetail(byt...\n      JUMPDEST \t\t\t\\n\\n    function setRetail(byt...\n      DUP2 \t\t\tetRetail\n      DUP2 \t\t\tion\n      LT \t\t\tnction setRetail(\n      ISZERO \t\t\t\\n\\n    function setRetail(byt...\n      PUSH [tag] 260\t\t\t\\n\\n    function setRetail(byt...\n      JUMPI \t\t\t\\n\\n    function setRetail(byt...\n      DUP4 \t\t\t  _advance(prod\n      MLOAD \t\t\t  _advance(prod\n      DUP4 \t\t\tROLE) {\\n        _advance(prod...\n      MSTORE \t\t\tROLE) {\\n        _advance(prod...\n      SWAP3 \t\t\tvance(bytes32 pro\n      DUP5 \t\t\tvance(bytes32 pro\n      ADD \t\t\tvance(bytes32 pro\n      SWAP3 \t\t\tvance(bytes32 pro\n      SWAP2 \t\t\ttatus.Cleared)\n      DUP5 \t\t\ttatus.Cleared)\n      ADD \t\t\ttatus.Cleared)\n      SWAP2 \t\t\ttatus.Cleared)\n      PUSH 1\t\t\te\n      ADD \t\t\toductId) ex\n      PUSH [tag] 258\t\t\t\\n\\n    function setRetail(byt...\n      JUMP \t\t\t\\n\\n    function setRetail(byt...\n    tag 260\t\t\t\\n\\n    function setRetail(byt...\n      JUMPDEST \t\t\t\\n\\n    function setRetail(byt...\n      POP \t\t\t\n      SWAP1 \t\t\tus re\n      SWAP8 \t\t\tus re\n      SWAP7 \t\t\t      _grantRole(DEFAULT_ADMIN...\n      POP \t\t\t\n      POP \t\t\t\n      POP \t\t\t\n      POP \t\t\t\n      POP \t\t\t\n      POP \t\t\t\n      POP \t\t\t\n      JUMP \t\t\t      _grantRole(DEFAULT_ADMIN...\n    tag 235\t\t\t internal {\\n        require(p...\n      JUMPDEST \t\t\t internal {\\n        require(p...\n      PUSH 0\t\t\tts, \"No \n      DUP1 \t\t\toduct\"\n      DUP4 \t\t\t re\n      PUSH 1F\t\t\tatus\n      DUP5 \t\t\tctId].\n      ADD \t\t\troductId].status \n      SLT \t\t\tts[productId].status == req\n      PUSH [tag] 262\t\t\tire(products[productId].status...\n      JUMPI \t\t\tire(products[productId].status...\n      PUSH 0\t\t\to\n      DUP1 \t\t\t\"\n      REVERT \t\t\tdPrev, \"Wron\n    tag 262\t\t\tire(products[productId].status...\n      JUMPDEST \t\t\tire(products[productId].status...\n      POP \t\t\t\n      DUP2 \t\t\toducts[productId].st\n      CALLDATALOAD \t\t\toducts[productId].st\n      PUSH FFFFFFFFFFFFFFFF\t\t\tstatusHistory[prod\n      DUP2 \t\t\tt;\\n        statusHistory[prod...\n      GT \t\t\tt;\\n        statusHistory[prod...\n      ISZERO \t\t\trget;\\n        statusHistory[p...\n      PUSH [tag] 263\t\t\trget;\\n        statusHistory[p...\n      JUMPI \t\t\trget;\\n        statusHistory[p...\n      PUSH 0\t\t\tr\n      DUP1 \t\t\t(\n      REVERT \t\t\td].push(targ\n    tag 263\t\t\trget;\\n        statusHistory[p...\n      JUMPDEST \t\t\trget;\\n        statusHistory[p...\n      PUSH 20\t\t\t.pus\n      DUP4 \t\t\toductI\n      ADD \t\t\ty[productId].push\n      SWAP2 \t\t\t  timeHistory[productId].push\n      POP \t\t\t  timeHistory[productId].push\n      DUP4 \t\t\todu\n      PUSH 20\t\t\tated\n      DUP3 \t\t\t Trace\n      DUP6 \t\t\t    em\n      ADD \t\t\t        emit TraceU\n      ADD \t\t\tp);\\n        emit TraceUpdated...\n      GT \t\t\ttamp);\\n        emit TraceUpda...\n      ISZERO \t\t\tmestamp);\\n        emit TraceU...\n      PUSH [tag] 264\t\t\tmestamp);\\n        emit TraceU...\n      JUMPI \t\t\tmestamp);\\n        emit TraceU...\n      PUSH 0\t\t\tb\n      DUP1 \t\t\tt\n      REVERT \t\t\t, target, bl\n    tag 264\t\t\tmestamp);\\n        emit TraceU...\n      JUMPDEST \t\t\tmestamp);\\n        emit TraceU...\n      SWAP3 \t\t\t internal {\\n        require(p...\n      POP \t\t\t internal {\\n        require(p...\n      SWAP3 \t\t\t internal {\\n        require(p...\n      SWAP1 \t\t\t internal {\\n        require(p...\n      POP \t\t\t internal {\\n        require(p...\n      JUMP \t\t\t internal {\\n        require(p...\n    tag 38\t\t\t);\\n    }\\n\\n    function getP...\n      JUMPDEST \t\t\t);\\n    }\\n\\n    function getP...\n      PUSH 0\t\t\t(produ\n      DUP1 \t\t\ts[prod\n      PUSH 0\t\t\ttId].e\n      DUP1 \t\t\tsts, \"\n      PUSH 0\t\t\t produ\n      DUP1 \t\t\t\");\\n  \n      PUSH 80\t\t\tnct\n      DUP8 \t\t\t   }\\n\\n   \n      DUP10 \t\t\tuctId];\n      SUB \t\t\tproductId];\\n    }\\n\\n    \n      SLT \t\t\tcts[productId];\\n    }\\n\\n    ...\n      ISZERO \t\t\toducts[productId];\\n    }\\n\\n ...\n      PUSH [tag] 266\t\t\toducts[productId];\\n    }\\n\\n ...\n      JUMPI \t\t\toducts[productId];\\n    }\\n\\n ...\n      PUSH 0\t\t\t(\n      DUP1 \t\t\to\n      REVERT \t\t\tgetHistory(b\n    tag 266\t\t\toducts[productId];\\n    }\\n\\n ...\n      JUMPDEST \t\t\toducts[productId];\\n    }\\n\\n ...\n      DUP7 \t\t\tturns (St\n      CALLDATALOAD \t\t\ternal view returns (Sta\n      SWAP6 \t\t\tuctId) external view returns (...\n      POP \t\t\tuctId) external view returns (...\n      PUSH 20\t\t\tro\n      DUP8 \t\t\t  require\n      ADD \t\t\t      require(prod\n      CALLDATALOAD \t\t\t memory) {\\n        require(pr...\n      PUSH FFFFFFFFFFFFFFFF\t\t\tts, \"No product\");\n      DUP1 \t\t\tHi\n      DUP3 \t\t\t (stat\n      GT \t\t\turn (statusHis\n      ISZERO \t\t\treturn (statusHistory[productI...\n      PUSH [tag] 267\t\t\treturn (statusHistory[productI...\n      JUMPI \t\t\treturn (statusHistory[productI...\n      PUSH 0\t\t\td\n      DUP1 \t\t\tc\n      REVERT \t\t\ty[productId]\n    tag 267\t\t\treturn (statusHistory[productI...\n      JUMPDEST \t\t\treturn (statusHistory[productI...\n      PUSH [tag] 268\t\t\t function grantMany(bytes32 ro...\n      DUP11 \t\t\ta addrs\n      DUP4 \t\t\t] call\n      DUP12 \t\t\te, addres\n      ADD \t\t\t role, address[] calld\n      PUSH [tag] 235\t\t\t function grantMany(bytes32 ro...\n      JUMP \t\t\t function grantMany(bytes32 ro...\n    tag 268\t\t\t function grantMany(bytes32 ro...\n      JUMPDEST \t\t\t function grantMany(bytes32 ro...\n      SWAP1 \t\t\tgetRoleA\n      SWAP8 \t\t\tgetRoleA\n      POP \t\t\t\n      SWAP6 \t\t\try[productId]);\\n    }\\n\\n    ...\n      POP \t\t\t\n      PUSH 40\t\t\tdd\n      DUP10 \t\t\tantRole(role, addr\n      ADD \t\t\tantRole(role, addr\n      CALLDATALOAD \t\t\tgth; i++) _grantRole(role, add...\n      SWAP2 \t\t\tgth; i++) _grantRole(role, add...\n      POP \t\t\t\n      DUP1 \t\t\t}\\n\n      DUP3 \t\t\t}\\n\n      GT \t\t\t}\\n\n      ISZERO \t\t\t }\\n}\\n\n      PUSH [tag] 269\t\t\t }\\n}\\n\n      JUMPI \t\t\t }\\n}\\n\n      PUSH 0\t\t\t\n      DUP1 \t\t\t\n      REVERT \t\t\t\n    tag 269\t\t\t }\\n}\\n\n      JUMPDEST \t\t\t }\\n}\\n\n      PUSH [tag] 270\t\t\t\n      DUP11 \t\t\t\n      DUP4 \t\t\t\n      DUP12 \t\t\t\n      ADD \t\t\t\n      PUSH [tag] 235\t\t\t\n      JUMP \t\t\t\n    tag 270\t\t\t\n      JUMPDEST \t\t\t\n      SWAP1 \t\t\t\n      SWAP6 \t\t\t\n      POP \t\t\t\n      SWAP4 \t\t\t\n      POP \t\t\t\n      PUSH 60\t\t\t\n      DUP10 \t\t\t\n      ADD \t\t\t\n      CALLDATALOAD \t\t\t\n      SWAP2 \t\t\t\n      POP \t\t\t\n      DUP1 \t\t\t\n      DUP3 \t\t\t\n      AND \t\t\t\n      DUP3 \t\t\t\n      EQ \t\t\t\n      PUSH [tag] 271\t\t\t\n      JUMPI \t\t\t\n      PUSH 0\t\t\t\n      DUP1 \t\t\t\n      REVERT \t\t\t\n    tag 271\t\t\t\n      JUMPDEST \t\t\t\n      POP \t\t\t\n      DUP1 \t\t\t\n      SWAP2 \t\t\t\n      POP \t\t\t\n      POP \t\t\t\n      SWAP3 \t\t\t);\\n    }\\n\\n    function getP...\n      SWAP6 \t\t\t);\\n    }\\n\\n    function getP...\n      POP \t\t\t);\\n    }\\n\\n    function getP...\n      SWAP3 \t\t\t);\\n    }\\n\\n    function getP...\n      SWAP6 \t\t\t);\\n    }\\n\\n    function getP...\n      POP \t\t\t);\\n    }\\n\\n    function getP...\n      SWAP3 \t\t\t);\\n    }\\n\\n    function getP...\n      SWAP6 \t\t\t);\\n    }\\n\\n    function getP...\n      JUMP \t\t\t);\\n    }\\n\\n    function getP...\n    tag 236\t\t\t\n      JUMPDEST \t\t\t\n      DUP1 \t\t\t\n      CALLDATALOAD \t\t\t\n      PUSH 1\t\t\t\n      PUSH 1\t\t\t\n      PUSH A0\t\t\t\n      SHL \t\t\t\n      SUB \t\t\t\n      DUP2 \t\t\t\n      AND \t\t\t\n      DUP2 \t\t\t\n      EQ \t\t\t\n      PUSH [tag] 274\t\t\t\n      JUMPI \t\t\t\n      PUSH 0\t\t\t\n      DUP1 \t\t\t\n      REVERT \t\t\t\n    tag 274\t\t\t\n      JUMPDEST \t\t\t\n      SWAP2 \t\t\t\n      SWAP1 \t\t\t\n      POP \t\t\t\n      JUMP \t\t\t\n    tag 50\t\t\t\n      JUMPDEST \t\t\t\n      PUSH 0\t\t\t\n      DUP1 \t\t\t\n      PUSH 40\t\t\t\n      DUP4 \t\t\t\n      DUP6 \t\t\t\n      SUB \t\t\t\n      SLT \t\t\t\n      ISZERO \t\t\t\n      PUSH [tag] 276\t\t\t\n      JUMPI \t\t\t\n      PUSH 0\t\t\t\n      DUP1 \t\t\t\n      REVERT \t\t\t\n    tag 276\t\t\t\n      JUMPDEST \t\t\t\n      DUP3 \t\t\t\n      CALLDATALOAD \t\t\t\n      SWAP2 \t\t\t\n      POP \t\t\t\n      PUSH [tag] 277\t\t\t\n      PUSH 20\t\t\t\n      DUP5 \t\t\t\n      ADD \t\t\t\n      PUSH [tag] 236\t\t\t\n      JUMP \t\t\t\n    tag 277\t\t\t\n      JUMPDEST \t\t\t\n      SWAP1 \t\t\t\n      POP \t\t\t\n      SWAP3 \t\t\t\n      POP \t\t\t\n      SWAP3 \t\t\t\n      SWAP1 \t\t\t\n      POP \t\t\t\n      JUMP \t\t\t\n    tag 237\t\t\t\n      JUMPDEST \t\t\t\n      PUSH 0\t\t\t\n      DUP2 \t\t\t\n      MLOAD \t\t\t\n      DUP1 \t\t\t\n      DUP5 \t\t\t\n      MSTORE \t\t\t\n      PUSH 0\t\t\t\n    tag 279\t\t\t\n      JUMPDEST \t\t\t\n      DUP2 \t\t\t\n      DUP2 \t\t\t\n      LT \t\t\t\n      ISZERO \t\t\t\n      PUSH [tag] 281\t\t\t\n      JUMPI \t\t\t\n      PUSH 20\t\t\t\n      DUP2 \t\t\t\n      DUP6 \t\t\t\n      ADD \t\t\t\n      DUP2 \t\t\t\n      ADD \t\t\t\n      MLOAD \t\t\t\n      DUP7 \t\t\t\n      DUP4 \t\t\t\n      ADD \t\t\t\n      DUP3 \t\t\t\n      ADD \t\t\t\n      MSTORE \t\t\t\n      ADD \t\t\t\n      PUSH [tag] 279\t\t\t\n      JUMP \t\t\t\n    tag 281\t\t\t\n      JUMPDEST \t\t\t\n      POP \t\t\t\n      PUSH 0\t\t\t\n      PUSH 20\t\t\t\n      DUP3 \t\t\t\n      DUP7 \t\t\t\n      ADD \t\t\t\n      ADD \t\t\t\n      MSTORE \t\t\t\n      PUSH 20\t\t\t\n      PUSH 1F\t\t\t\n      NOT \t\t\t\n      PUSH 1F\t\t\t\n      DUP4 \t\t\t\n      ADD \t\t\t\n      AND \t\t\t\n      DUP6 \t\t\t\n      ADD \t\t\t\n      ADD \t\t\t\n      SWAP2 \t\t\t\n      POP \t\t\t\n      POP \t\t\t\n      SWAP3 \t\t\t\n      SWAP2 \t\t\t\n      POP \t\t\t\n      POP \t\t\t\n      JUMP \t\t\t\n    tag 59\t\t\t\n      JUMPDEST \t\t\t\n      PUSH 20\t\t\t\n      DUP2 \t\t\t\n      MSTORE \t\t\t\n      PUSH 0\t\t\t\n      DUP3 \t\t\t\n      MLOAD \t\t\t\n      PUSH A0\t\t\t\n      PUSH 20\t\t\t\n      DUP5 \t\t\t\n      ADD \t\t\t\n      MSTORE \t\t\t\n      PUSH [tag] 283\t\t\t\n      PUSH C0\t\t\t\n      DUP5 \t\t\t\n      ADD \t\t\t\n      DUP3 \t\t\t\n      PUSH [tag] 237\t\t\t\n      JUMP \t\t\t\n    tag 283\t\t\t\n      JUMPDEST \t\t\t\n      SWAP1 \t\t\t\n      POP \t\t\t\n      PUSH 20\t\t\t\n      DUP5 \t\t\t\n      ADD \t\t\t\n      MLOAD \t\t\t\n      PUSH 1F\t\t\t\n      NOT \t\t\t\n      DUP5 \t\t\t\n      DUP4 \t\t\t\n      SUB \t\t\t\n      ADD \t\t\t\n      PUSH 40\t\t\t\n      DUP6 \t\t\t\n      ADD \t\t\t\n      MSTORE \t\t\t\n      PUSH [tag] 284\t\t\t\n      DUP3 \t\t\t\n      DUP3 \t\t\t\n      PUSH [tag] 237\t\t\t\n      JUMP \t\t\t\n    tag 284\t\t\t\n      JUMPDEST \t\t\t\n      SWAP2 \t\t\t\n      POP \t\t\t\n      POP \t\t\t\n      PUSH FFFFFFFFFFFFFFFF\t\t\t\n      PUSH 40\t\t\t\n      DUP6 \t\t\t\n      ADD \t\t\t\n      MLOAD \t\t\t\n      AND \t\t\t\n      PUSH 60\t\t\t\n      DUP5 \t\t\t\n      ADD \t\t\t\n      MSTORE \t\t\t\n      PUSH 60\t\t\t\n      DUP5 \t\t\t\n      ADD \t\t\t\n      MLOAD \t\t\t\n      PUSH [tag] 285\t\t\t\n      PUSH 80\t\t\t\n      DUP6 \t\t\t\n      ADD \t\t\t\n      DUP3 \t\t\t\n      PUSH [tag] 234\t\t\t\n      JUMP \t\t\t\n    tag 285\t\t\t\n      JUMPDEST \t\t\t\n      POP \t\t\t\n      PUSH 80\t\t\t\n      DUP5 \t\t\t\n      ADD \t\t\t\n      MLOAD \t\t\t\n      ISZERO \t\t\t\n      ISZERO \t\t\t\n      PUSH A0\t\t\t\n      DUP5 \t\t\t\n      ADD \t\t\t\n      MSTORE \t\t\t\n      DUP1 \t\t\t\n      SWAP2 \t\t\t\n      POP \t\t\t\n      POP \t\t\t\n      SWAP3 \t\t\t\n      SWAP2 \t\t\t\n      POP \t\t\t\n      POP \t\t\t\n      JUMP \t\t\t\n    tag 62\t\t\t\n      JUMPDEST \t\t\t\n      PUSH 0\t\t\t\n      DUP1 \t\t\t\n      PUSH 0\t\t\t\n      PUSH 40\t\t\t\n      DUP5 \t\t\t\n      DUP7 \t\t\t\n      SUB \t\t\t\n      SLT \t\t\t\n      ISZERO \t\t\t\n      PUSH [tag] 287\t\t\t\n      JUMPI \t\t\t\n      PUSH 0\t\t\t\n      DUP1 \t\t\t\n      REVERT \t\t\t\n    tag 287\t\t\t\n      JUMPDEST \t\t\t\n      DUP4 \t\t\t\n      CALLDATALOAD \t\t\t\n      SWAP3 \t\t\t\n      POP \t\t\t\n      PUSH 20\t\t\t\n      DUP5 \t\t\t\n      ADD \t\t\t\n      CALLDATALOAD \t\t\t\n      PUSH FFFFFFFFFFFFFFFF\t\t\t\n      DUP1 \t\t\t\n      DUP3 \t\t\t\n      GT \t\t\t\n      ISZERO \t\t\t\n      PUSH [tag] 288\t\t\t\n      JUMPI \t\t\t\n      PUSH 0\t\t\t\n      DUP1 \t\t\t\n      REVERT \t\t\t\n    tag 288\t\t\t\n      JUMPDEST \t\t\t\n      DUP2 \t\t\t\n      DUP7 \t\t\t\n      ADD \t\t\t\n      SWAP2 \t\t\t\n      POP \t\t\t\n      DUP7 \t\t\t\n      PUSH 1F\t\t\t\n      DUP4 \t\t\t\n      ADD \t\t\t\n      SLT \t\t\t\n      PUSH [tag] 289\t\t\t\n      JUMPI \t\t\t\n      PUSH 0\t\t\t\n      DUP1 \t\t\t\n      REVERT \t\t\t\n    tag 289\t\t\t\n      JUMPDEST \t\t\t\n      DUP2 \t\t\t\n      CALLDATALOAD \t\t\t\n      DUP2 \t\t\t\n      DUP2 \t\t\t\n      GT \t\t\t\n      ISZERO \t\t\t\n      PUSH [tag] 290\t\t\t\n      JUMPI \t\t\t\n      PUSH 0\t\t\t\n      DUP1 \t\t\t\n      REVERT \t\t\t\n    tag 290\t\t\t\n      JUMPDEST \t\t\t\n      DUP8 \t\t\t\n      PUSH 20\t\t\t\n      DUP3 \t\t\t\n      PUSH 5\t\t\t\n      SHL \t\t\t\n      DUP6 \t\t\t\n      ADD \t\t\t\n      ADD \t\t\t\n      GT \t\t\t\n      ISZERO \t\t\t\n      PUSH [tag] 291\t\t\t\n      JUMPI \t\t\t\n      PUSH 0\t\t\t\n      DUP1 \t\t\t\n      REVERT \t\t\t\n    tag 291\t\t\t\n      JUMPDEST \t\t\t\n      PUSH 20\t\t\t\n      DUP4 \t\t\t\n      ADD \t\t\t\n      SWAP5 \t\t\t\n      POP \t\t\t\n      DUP1 \t\t\t\n      SWAP4 \t\t\t\n      POP \t\t\t\n      POP \t\t\t\n      POP \t\t\t\n      POP \t\t\t\n      SWAP3 \t\t\t\n      POP \t\t\t\n      SWAP3 \t\t\t\n      POP \t\t\t\n      SWAP3 \t\t\t\n      JUMP \t\t\t\n    tag 99\t\t\t\n      JUMPDEST \t\t\t\n      PUSH 20\t\t\t\n      DUP1 \t\t\t\n      DUP3 \t\t\t\n      MSTORE \t\t\t\n      PUSH A\t\t\t\n      SWAP1 \t\t\t\n      DUP3 \t\t\t\n      ADD \t\t\t\n      MSTORE \t\t\t\n      PUSH 139BC81C1C9BD91D58DD\t\t\t\n      PUSH B2\t\t\t\n      SHL \t\t\t\n      PUSH 40\t\t\t\n      DUP3 \t\t\t\n      ADD \t\t\t\n      MSTORE \t\t\t\n      PUSH 60\t\t\t\n      ADD \t\t\t\n      SWAP1 \t\t\t\n      JUMP \t\t\t\n    tag 238\t\t\t\n      JUMPDEST \t\t\t\n      PUSH 4E487B71\t\t\t\n      PUSH E0\t\t\t\n      SHL \t\t\t\n      PUSH 0\t\t\t\n      MSTORE \t\t\t\n      PUSH 41\t\t\t\n      PUSH 4\t\t\t\n      MSTORE \t\t\t\n      PUSH 24\t\t\t\n      PUSH 0\t\t\t\n      REVERT \t\t\t\n    tag 148\t\t\t\n      JUMPDEST \t\t\t\n      PUSH 1\t\t\t\n      DUP2 \t\t\t\n      DUP2 \t\t\t\n      SHR \t\t\t\n      SWAP1 \t\t\t\n      DUP3 \t\t\t\n      AND \t\t\t\n      DUP1 \t\t\t\n      PUSH [tag] 296\t\t\t\n      JUMPI \t\t\t\n      PUSH 7F\t\t\t\n      DUP3 \t\t\t\n      AND \t\t\t\n      SWAP2 \t\t\t\n      POP \t\t\t\n    tag 296\t\t\t\n      JUMPDEST \t\t\t\n      PUSH 20\t\t\t\n      DUP3 \t\t\t\n      LT \t\t\t\n      DUP2 \t\t\t\n      SUB \t\t\t\n      PUSH [tag] 297\t\t\t\n      JUMPI \t\t\t\n      PUSH 4E487B71\t\t\t\n      PUSH E0\t\t\t\n      SHL \t\t\t\n      PUSH 0\t\t\t\n      MSTORE \t\t\t\n      PUSH 22\t\t\t\n      PUSH 4\t\t\t\n      MSTORE \t\t\t\n      PUSH 24\t\t\t\n      PUSH 0\t\t\t\n      REVERT \t\t\t\n    tag 297\t\t\t\n      JUMPDEST \t\t\t\n      POP \t\t\t\n      SWAP2 \t\t\t\n      SWAP1 \t\t\t\n      POP \t\t\t\n      JUMP \t\t\t\n    tag 240\t\t\t\n      JUMPDEST \t\t\t\n      PUSH 1F\t\t\t\n      DUP3 \t\t\t\n      GT \t\t\t\n      ISZERO \t\t\t\n      PUSH [tag] 140\t\t\t\n      JUMPI \t\t\t\n      DUP1 \t\t\t\n      PUSH 0\t\t\t\n      MSTORE \t\t\t\n      PUSH 20\t\t\t\n      PUSH 0\t\t\t\n      KECCAK256 \t\t\t\n      PUSH 1F\t\t\t\n      DUP5 \t\t\t\n      ADD \t\t\t\n      PUSH 5\t\t\t\n      SHR \t\t\t\n      DUP2 \t\t\t\n      ADD \t\t\t\n      PUSH 20\t\t\t\n      DUP6 \t\t\t\n      LT \t\t\t\n      ISZERO \t\t\t\n      PUSH [tag] 301\t\t\t\n      JUMPI \t\t\t\n      POP \t\t\t\n      DUP1 \t\t\t\n    tag 301\t\t\t\n      JUMPDEST \t\t\t\n      PUSH 1F\t\t\t\n      DUP5 \t\t\t\n      ADD \t\t\t\n      PUSH 5\t\t\t\n      SHR \t\t\t\n      DUP3 \t\t\t\n      ADD \t\t\t\n      SWAP2 \t\t\t\n      POP \t\t\t\n    tag 302\t\t\t\n      JUMPDEST \t\t\t\n      DUP2 \t\t\t\n      DUP2 \t\t\t\n      LT \t\t\t\n      ISZERO \t\t\t\n      PUSH [tag] 167\t\t\t\n      JUMPI \t\t\t\n      PUSH 0\t\t\t\n      DUP2 \t\t\t\n      SSTORE \t\t\t\n      PUSH 1\t\t\t\n      ADD \t\t\t\n      PUSH [tag] 302\t\t\t\n      JUMP \t\t\t\n    tag 117\t\t\t\n      JUMPDEST \t\t\t\n      DUP2 \t\t\t\n      MLOAD \t\t\t\n      PUSH FFFFFFFFFFFFFFFF\t\t\t\n      DUP2 \t\t\t\n      GT \t\t\t\n      ISZERO \t\t\t\n      PUSH [tag] 308\t\t\t\n      JUMPI \t\t\t\n      PUSH [tag] 308\t\t\t\n      PUSH [tag] 238\t\t\t\n      JUMP \t\t\t\n    tag 308\t\t\t\n      JUMPDEST \t\t\t\n      PUSH [tag] 309\t\t\t\n      DUP2 \t\t\t\n      PUSH [tag] 310\t\t\t\n      DUP5 \t\t\t\n      SLOAD \t\t\t\n      PUSH [tag] 148\t\t\t\n      JUMP \t\t\t\n    tag 310\t\t\t\n      JUMPDEST \t\t\t\n      DUP5 \t\t\t\n      PUSH [tag] 240\t\t\t\n      JUMP \t\t\t\n    tag 309\t\t\t\n      JUMPDEST \t\t\t\n      PUSH 20\t\t\t\n      DUP1 \t\t\t\n      PUSH 1F\t\t\t\n      DUP4 \t\t\t\n      GT \t\t\t\n      PUSH 1\t\t\t\n      DUP2 \t\t\t\n      EQ \t\t\t\n      PUSH [tag] 312\t\t\t\n      JUMPI \t\t\t\n      PUSH 0\t\t\t\n      DUP5 \t\t\t\n      ISZERO \t\t\t\n      PUSH [tag] 313\t\t\t\n      JUMPI \t\t\t\n      POP \t\t\t\n      DUP6 \t\t\t\n      DUP4 \t\t\t\n      ADD \t\t\t\n      MLOAD \t\t\t\n    tag 313\t\t\t\n      JUMPDEST \t\t\t\n      PUSH 0\t\t\t\n      NOT \t\t\t\n      PUSH 3\t\t\t\n      DUP7 \t\t\t\n      SWAP1 \t\t\t\n      SHL \t\t\t\n      SHR \t\t\t\n      NOT \t\t\t\n      AND \t\t\t\n      PUSH 1\t\t\t\n      DUP6 \t\t\t\n      SWAP1 \t\t\t\n      SHL \t\t\t\n      OR \t\t\t\n      DUP6 \t\t\t\n      SSTORE \t\t\t\n      PUSH [tag] 311\t\t\t\n      JUMP \t\t\t\n    tag 312\t\t\t\n      JUMPDEST \t\t\t\n      PUSH 0\t\t\t\n      DUP6 \t\t\t\n      DUP2 \t\t\t\n      MSTORE \t\t\t\n      PUSH 20\t\t\t\n      DUP2 \t\t\t\n      KECCAK256 \t\t\t\n      PUSH 1F\t\t\t\n      NOT \t\t\t\n      DUP7 \t\t\t\n      AND \t\t\t\n      SWAP2 \t\t\t\n    tag 316\t\t\t\n      JUMPDEST \t\t\t\n      DUP3 \t\t\t\n      DUP2 \t\t\t\n      LT \t\t\t\n      ISZERO \t\t\t\n      PUSH [tag] 318\t\t\t\n      JUMPI \t\t\t\n      DUP9 \t\t\t\n      DUP7 \t\t\t\n      ADD \t\t\t\n      MLOAD \t\t\t\n      DUP3 \t\t\t\n      SSTORE \t\t\t\n      SWAP5 \t\t\t\n      DUP5 \t\t\t\n      ADD \t\t\t\n      SWAP5 \t\t\t\n      PUSH 1\t\t\t\n      SWAP1 \t\t\t\n      SWAP2 \t\t\t\n      ADD \t\t\t\n      SWAP1 \t\t\t\n      DUP5 \t\t\t\n      ADD \t\t\t\n      PUSH [tag] 316\t\t\t\n      JUMP \t\t\t\n    tag 318\t\t\t\n      JUMPDEST \t\t\t\n      POP \t\t\t\n      DUP6 \t\t\t\n      DUP3 \t\t\t\n      LT \t\t\t\n      ISZERO \t\t\t\n      PUSH [tag] 319\t\t\t\n      JUMPI \t\t\t\n      DUP8 \t\t\t\n      DUP6 \t\t\t\n      ADD \t\t\t\n      MLOAD \t\t\t\n      PUSH 0\t\t\t\n      NOT \t\t\t\n      PUSH 3\t\t\t\n      DUP9 \t\t\t\n      SWAP1 \t\t\t\n      SHL \t\t\t\n      PUSH F8\t\t\t\n      AND \t\t\t\n      SHR \t\t\t\n      NOT \t\t\t\n      AND \t\t\t\n      DUP2 \t\t\t\n      SSTORE \t\t\t\n    tag 319\t\t\t\n      JUMPDEST \t\t\t\n      POP \t\t\t\n      POP \t\t\t\n      PUSH 1\t\t\t\n      DUP5 \t\t\t\n      PUSH 1\t\t\t\n      SHL \t\t\t\n      ADD \t\t\t\n      DUP6 \t\t\t\n      SSTORE \t\t\t\n    tag 311\t\t\t\n      JUMPDEST \t\t\t\n      POP \t\t\t\n      POP \t\t\t\n      POP \t\t\t\n      POP \t\t\t\n      POP \t\t\t\n      POP \t\t\t\n      JUMP \t\t\t\n    tag 242\t\t\t\n      JUMPDEST \t\t\t\n      DUP2 \t\t\t\n      DUP4 \t\t\t\n      MSTORE \t\t\t\n      DUP2 \t\t\t\n      DUP2 \t\t\t\n      PUSH 20\t\t\t\n      DUP6 \t\t\t\n      ADD \t\t\t\n      CALLDATACOPY \t\t\t\n      POP \t\t\t\n      PUSH 0\t\t\t\n      DUP3 \t\t\t\n      DUP3 \t\t\t\n      ADD \t\t\t\n      PUSH 20\t\t\t\n      SWAP1 \t\t\t\n      DUP2 \t\t\t\n      ADD \t\t\t\n      SWAP2 \t\t\t\n      SWAP1 \t\t\t\n      SWAP2 \t\t\t\n      MSTORE \t\t\t\n      PUSH 1F\t\t\t\n      SWAP1 \t\t\t\n      SWAP2 \t\t\t\n      ADD \t\t\t\n      PUSH 1F\t\t\t\n      NOT \t\t\t\n      AND \t\t\t\n      SWAP1 \t\t\t\n      SWAP2 \t\t\t\n      ADD \t\t\t\n      ADD \t\t\t\n      SWAP1 \t\t\t\n      JUMP \t\t\t\n    tag 126\t\t\t\n      JUMPDEST \t\t\t\n      PUSH 60\t\t\t\n      DUP2 \t\t\t\n      MSTORE \t\t\t\n      PUSH 0\t\t\t\n      PUSH [tag] 322\t\t\t\n      PUSH 60\t\t\t\n      DUP4 \t\t\t\n      ADD \t\t\t\n      DUP8 \t\t\t\n      DUP10 \t\t\t\n      PUSH [tag] 242\t\t\t\n      JUMP \t\t\t\n    tag 322\t\t\t\n      JUMPDEST \t\t\t\n      DUP3 \t\t\t\n      DUP2 \t\t\t\n      SUB \t\t\t\n      PUSH 20\t\t\t\n      DUP5 \t\t\t\n      ADD \t\t\t\n      MSTORE \t\t\t\n      PUSH [tag] 323\t\t\t\n      DUP2 \t\t\t\n      DUP7 \t\t\t\n      DUP9 \t\t\t\n      PUSH [tag] 242\t\t\t\n      JUMP \t\t\t\n    tag 323\t\t\t\n      JUMPDEST \t\t\t\n      SWAP2 \t\t\t\n      POP \t\t\t\n      POP \t\t\t\n      PUSH FFFFFFFFFFFFFFFF\t\t\t\n      DUP4 \t\t\t\n      AND \t\t\t\n      PUSH 40\t\t\t\n      DUP4 \t\t\t\n      ADD \t\t\t\n      MSTORE \t\t\t\n      SWAP7 \t\t\t\n      SWAP6 \t\t\t\n      POP \t\t\t\n      POP \t\t\t\n      POP \t\t\t\n      POP \t\t\t\n      POP \t\t\t\n      POP \t\t\t\n      JUMP \t\t\t\n    tag 128\t\t\t\n      JUMPDEST \t\t\t\n      PUSH 40\t\t\t\n      DUP2 \t\t\t\n      ADD \t\t\t\n      PUSH [tag] 325\t\t\t\n      DUP3 \t\t\t\n      DUP6 \t\t\t\n      PUSH [tag] 234\t\t\t\n      JUMP \t\t\t\n    tag 325\t\t\t\n      JUMPDEST \t\t\t\n      DUP3 \t\t\t\n      PUSH 20\t\t\t\n      DUP4 \t\t\t\n      ADD \t\t\t\n      MSTORE \t\t\t\n      SWAP4 \t\t\t\n      SWAP3 \t\t\t\n      POP \t\t\t\n      POP \t\t\t\n      POP \t\t\t\n      JUMP \t\t\t\n    tag 172\t\t\t\n      JUMPDEST \t\t\t\n      PUSH 4E487B71\t\t\t\n      PUSH E0\t\t\t\n      SHL \t\t\t\n      PUSH 0\t\t\t\n      MSTORE \t\t\t\n      PUSH 32\t\t\t\n      PUSH 4\t\t\t\n      MSTORE \t\t\t\n      PUSH 24\t\t\t\n      PUSH 0\t\t\t\n      REVERT \t\t\t\n    tag 174\t\t\t\n      JUMPDEST \t\t\t\n      PUSH 0\t\t\t\n      PUSH 20\t\t\t\n      DUP3 \t\t\t\n      DUP5 \t\t\t\n      SUB \t\t\t\n      SLT \t\t\t\n      ISZERO \t\t\t\n      PUSH [tag] 328\t\t\t\n      JUMPI \t\t\t\n      PUSH 0\t\t\t\n      DUP1 \t\t\t\n      REVERT \t\t\t\n    tag 328\t\t\t\n      JUMPDEST \t\t\t\n      PUSH [tag] 246\t\t\t\n      DUP3 \t\t\t\n      PUSH [tag] 236\t\t\t\n      JUMP \t\t\t\n    .data\n"
}